:020000040000FA
:100000000C9458000C9480000C9480000C94800098
:100010000C9480000C9480000C9480000C94800060
:100020000C9480000C9480000C9480000C94800050
:100030000C9480000C9480000C9480000C94800040
:100040000C9421040C9480000C94EF030C94C903CD
:100050000C9480000C9480000C9480000C94800020
:100060000C946B040C948000000000002500280014
:100070002B00040404040404040402020202020229
:10008000030303030303010204081020408001025C
:1000900004081020010204081020000000080002DB
:1000A00001000003040700000000000000008A05B2
:1000B00011241FBECFEFD8E0DEBFCDBF22E0A0E409
:1000C000B1E001C01D92A03BB207E1F711E0A0E052
:1000D000B1E0EAE1F5E102C005900D92A034B1076C
:1000E000D9F710E0C8E5D0E004C02197FE010E94D6
:1000F0009308C735D107C9F70E94C3050C948B0A32
:100100000C94000008950895AF92BF92CF92DF92B1
:10011000EF92FF920F931F93CF93DF936C017B01BC
:100120008B01040F151FEB015E01AE18BF08C0174D
:10013000D10759F06991D601ED91FC910190F081C0
:10014000E02DC6010995892B79F7C501DF91CF9183
:100150001F910F91FF90EF90DF90CF90BF90AF90E5
:100160000895FC01538D448D252F30E0842F90E0BD
:10017000821B930B541710F0CF96089501970895A2
:10018000FC01918D828D981761F0A28DAE0FBF2F6B
:10019000B11D5D968C91928D9F5F9F73928F90E0C1
:1001A00008958FEF9FEF0895FC01918D828D981730
:1001B00031F0828DE80FF11D858D90E008958FEF6D
:1001C0009FEF0895FC01918D228D892F90E0805C36
:1001D0009F4F821B91098F739927089583E092E0C6
:1001E0000E94E20021E0892B09F420E0822F08958B
:1001F00080E090E0892B29F00E94EE0081110C94A0
:1002000000000895FC01A48DA80FB92FB11DA35AB9
:10021000BF4F2C91848D90E001968F739927848F26
:10022000A689B7892C93A089B1898C918370806449
:100230008C93938D848D981306C00288F389E02DEA
:1002400080818F7D80830895EF92FF920F931F939B
:10025000CF93DF93EC0181E0888F9B8D8C8D981379
:100260001AC0E889F989808185FF15C09FB7F89485
:10027000EE89FF896083E889F989808183708064D1
:1002800080839FBF81E090E0DF91CF911F910F911C
:10029000FF90EF900895F62E0B8D10E00F5F1F4F2B
:1002A0000F731127E02E8C8D8E110CC00FB607FC3A
:1002B000FACFE889F989808185FFF5CFCE010E94C8
:1002C0000201F1CFEB8DEC0FFD2FF11DE35AFF4F33
:1002D000F0829FB7F8940B8FEA89FB898081806256
:1002E000CFCFCF93DF93EC01888D8823B9F0AA8913
:1002F000BB89E889F9898C9185FD03C0808186FDE1
:100300000DC00FB607FCF7CF8C9185FFF2CF80812F
:1003100085FFEDCFCE010E940201E9CFDF91CF91A1
:10032000089590E0FC01E656FF4F2491FC01EA5746
:10033000FF4F3491FC01EE58FF4FE491EE23C9F0DA
:10034000222339F0233001F1A8F4213019F12230B1
:1003500029F1F0E0EE0FFF1FE859FF4FA591B4918E
:100360008FB7F894EC91611126C030953E233C93F1
:100370008FBF08952730A9F02830C9F0243049F7FD
:10038000809180008F7D03C0809180008F77809363
:100390008000DFCF84B58F7784BDDBCF84B58F7DC0
:1003A000FBCF8091B0008F778093B000D2CF809147
:1003B000B0008F7DF9CF3E2BDACF3FB7F894809114
:1003C000A9019091AA01A091AB01B091AC0126B511
:1003D000A89B05C02F3F19F00196A11DB11D3FBF7D
:1003E000BA2FA92F982F8827BC01CD01620F711D4C
:1003F000811D911D42E0660F771F881F991F4A9546
:10040000D1F708958F929F92AF92BF92CF92DF92D1
:10041000EF92FF924B015C010E94DD016B017C01B8
:100420000E94DD016C197D098E099F09683E7340A9
:1004300081059105A8F321E0821A9108A108B1086D
:1004400088EEC80E83E0D81EE11CF11C81149104D3
:10045000A104B10429F7FF90EF90DF90CF90BF90F7
:10046000AF909F908F90089520918101260F3327A0
:10047000331F21323105ECF42091D901FC0190E0C9
:1004800080E0243069F082E00895A09181012191FB
:10049000AC014F595E4FA40FB52FB11D2C9301969F
:1004A000861798F380918101680F6093810180E045
:1004B000089581E008951092D90181E08093D801D8
:1004C0001092B30161E082E10E94910161E083E159
:1004D0000E949101E9EBF0E080818E7F8083808132
:1004E0008D7F808388E48093B80085E48093BC008E
:1004F0000895CF93DF9391E0909360018823B9F042
:10050000C091B800D091BA008091BC008A7B8093E2
:10051000BC0060E082E10E94910160E083E10E9402
:1005200091010E945B02D093BA00C093B800DF91A2
:10053000CF9108950895E091B2018091B101E8173B
:1005400030F4F0E0E05CFE4F808190E008958FEFA2
:100550009FEF08959091B2018091B1012FEF3FEF8D
:10056000981748F4E92FF0E0E05CFE4F208130E07E
:100570009F5F9093B201C90108958091B10190915C
:10058000B201891B990B0895CF92DF92EF92FF92EF
:100590000F931F93CF93DF937C01CB018A012091AE
:1005A000DF01222389F0EB016B01C40ED51ECC15AF
:1005B000DD0569F06991D701ED91FC910190F08121
:1005C000E02DC7010995F3CF642F0E943402C801C2
:1005D000DF91CF911F910F91FF90EF90DF90CF901F
:1005E0000895CF93DF931F92CDB7DEB76983209133
:1005F000DF012223F9F020910202203258F021E09D
:1006000030E0FC013383228390E080E00F90DF91A3
:10061000CF9108958091E001E82FF0E0EF51FE4F77
:10062000998190838F5F8093E0018093020281E043
:1006300090E0ECCF61E0CE0101960E943402F7CF4A
:1006400090E080E008950F931F93CF93DF93EC0128
:1006500088819981009759F02A813B8126173707B5
:1006600030F081E0DF91CF911F910F9108958B01C0
:100670006F5F7F4F0E94BE09009759F0998388836E
:100680001B830A832C813D81232B59F7FC011082A7
:10069000E8CF80E0E7CFEF92FF920F931F93CF93C5
:1006A000DF936115710541F480E0DF91CF911F91D7
:1006B0000F91FF90EF90089541155105B1F07B0126
:1006C000EC010C811D81040F151FB8010E9423034A
:1006D000882351F3288139818C819D81B701820F54
:1006E000931F0E94840A1D830C8381E0DECFCF9389
:1006F000DF93EC0188819981009711F00E94350900
:10070000198218821D821C821B821A82DF91CF916E
:100710000895FC0180819181009711F00C943509B6
:10072000089585ED8093BC008091DB019091DC0100
:10073000A091DD01B091DE010796A11DB11D23E05E
:10074000B695A795979587952A95D1F72091BC00E6
:1007500024FD03C01092D90108954091DB0150910E
:10076000DC016091DD017091DE01452B462B472BAA
:1007700069F30097A105B10541F02AE22A95F1F746
:1007800000C00197A109B109E1CF8091DA010C9471
:1007900079021F920F920FB60F9211242F933F935D
:1007A0004F935F936F937F938F939F93AF93BF9379
:1007B000EF93FF9383E092E00E940201FF91EF919B
:1007C000BF91AF919F918F917F916F915F914F9169
:1007D0003F912F910F900FBE0F901F9018951F9271
:1007E0000F920FB60F9211242F938F939F93EF9335
:1007F000FF93E0911302F09114028081E0911902BD
:10080000F0911A0282FD1BC0908180911C028F5FC3
:100810008F7320911D02821741F0E0911C02F0E0DD
:10082000ED5FFD4F958F80931C02FF91EF919F919B
:100830008F912F910F900FBE0F901F901895808170
:10084000F4CF1F920F920FB60F9211242F933F9364
:100850008F939F93AF93BF938091A5019091A60131
:10086000A091A701B091A8013091A40123E0230F2A
:100870002D3758F50196A11DB11D2093A401809339
:10088000A5019093A601A093A701B093A801809120
:10089000A9019091AA01A091AB01B091AC01019680
:1008A000A11DB11D8093A9019093AA01A093AB0152
:1008B000B093AC01BF91AF919F918F913F912F91D8
:1008C0000F900FBE0F901F90189526E8230F0296E9
:1008D000A11DB11DD2CF1F920F920FB60F921124FE
:1008E0002F933F934F935F936F937F938F939F9338
:1008F000AF93BF93EF93FF938091B900887F8036C9
:1009000009F44AC0F0F5883209F4A7C018F580311F
:1009100009F49BC0B8F4882309F4F9C0883009F4BD
:1009200094C0FF91EF91BF91AF919F918F917F9173
:100930006F915F914F913F912F910F900FBE0F904C
:100940001F901895883109F488C0803251F7809340
:10095000D70114C0803409F49DC040F48033B9F34A
:100960008833F9F68093D70185ECB0C0803509F45F
:1009700085C0883509F496C0883499F60E949103A1
:10098000D0CF883909F48CC038F5883729F050F475
:10099000883611F0803729F683E08093D9011092D0
:1009A000A30157C0883809F47BC0803919F080381A
:1009B00009F0B7CF8091A301803208F071C0E091B7
:1009C000A30181E08E0F8093A3018091BB00F0E032
:1009D000ED57FE4F80833DC0803B39F0E0F4803A14
:1009E00009F479C0883A09F09CCF84E08093D9015A
:1009F0001092820110928101E091AF01F091B0015B
:100A000009958091810181110FC081E0809381015E
:100A10001092610109C0803C09F4A6CF883C09F41A
:100A2000A3CF883B09F07DCFE091820181E08E0F5A
:100A300080938201F0E0EF59FE4F80818093BB00EC
:100A4000909182018091810129C08091B4018093AD
:100A5000BB0085EC8093BC0064CF9091D60180915F
:100A6000D501981758F5E091D60181E08E0F80935B
:100A7000D601F0E0EB54FE4F8081E9CFE091D60142
:100A800081E08E0F8093D6018091BB00F0E0EB54A3
:100A9000FE4F80839091D6018091D5019817C8F2BE
:100AA00085E8D8CFE091D60181E08E0F8093D60102
:100AB0008091BB00F0E0EB54FE4F80838091D80121
:100AC00081115CCF81E08093B30184EA8093BC0004
:100AD0001092D90126CF85EC8093BC001092D901E9
:100AE0008091A301803230F4E091A301F0E0ED5752
:100AF000FE4F10826091A30170E0E091AD01F09192
:100B0000AE0183E891E009951092A3010ACF1092FB
:100B1000D70134CFE3E0F2E01382128288EE93E053
:100B2000A0E0B0E084839583A683B7832DE031E015
:100B30003183208325EC30E03587248724EC30E0B6
:100B40003787268720EC30E0318B208B21EC30E09A
:100B5000338B228B22EC30E0358B248B26EC30E07B
:100B6000378B268B118E128E138E148EE0EAF2E0F4
:100B70001382128284839583A683B7838FE191E0E9
:100B8000918380830895CF93DF93CDB7DEB76E97BF
:100B90000FB6F894DEBF0FBECDBF789484B58260E7
:100BA00084BD84B5816084BD85B5826085BD85B511
:100BB000816085BD80916E00816080936E0010928F
:100BC000810080918100826080938100809181000A
:100BD000816080938100809180008160809380009B
:100BE0008091B10084608093B1008091B0008160F9
:100BF0008093B00080917A00846080937A00809125
:100C00007A00826080937A0080917A00816080937C
:100C10007A0080917A00806880937A001092C100F7
:100C20001092B2011092B1010E945B0282E890E042
:100C30009093B0018093AF0183E890E09093AE0170
:100C40008093AD0182E08093BA00E0911302F091AD
:100C500014028083E0910F02F09110021082E09163
:100C60001102F09112028FEC808310921B02E0912E
:100C70001702F091180286E08083E0911502F0914E
:100C80001602808180618083E0911502F091160246
:100C9000808188608083E0911502F0911602808146
:100CA00080688083E0911502F091160280818F7D2B
:100CB000808368EB7BE080E090E00E940202DD240C
:100CC000D3948E010F5F1F4F85EEC82E95EC992EA1
:100CD00020E0A22E20E0B22E32E0832E77247A94F8
:100CE000D092DF01D09201021092E0011092020234
:100CF000809102011C8A1B8A1E8A1D8A188E1F8AF7
:100D00004AE0B80190E00E943208F801019000200A
:100D1000E9F731977F01E01AF10AB701CE01439656
:100D20000E9423038111FDC0CE0143960E947703E8
:100D300080910001909101011A8E198E1C8E1B8EDC
:100D40001E8E1D8E4AE0B8010E942708F80101900E
:100D50000020E9F731977F01E01AF10AB701CE01CF
:100D600049960E9423038111E4C0CE0149960E9456
:100D700077031A8219821C821B821E821D8265E003
:100D800070E0C8010E9423038111DBC0C8010E94EA
:100D900077034D8D5E8D698D7A8DC8010E944B035E
:100DA000811103C0C8010E94770348E050E063E36B
:100DB00071E0C8010E944B03811103C0C8010E9469
:100DC00077034F89588D6B897C89C8010E944B033A
:100DD000811103C0C8010E9477034D815E81698142
:100DE0007A8183E092E00E94840042E050E06CE36C
:100DF00071E083E092E00E948400C8010E948903B0
:100E0000CE0149960E948903CE0143960E94890330
:100E1000E0900001F09001016E2D80EA92E00E94C6
:100E2000F1028FEFE81AF80AF0920101E092000156
:100E30006091020180EA92E00E94F102E0900202D9
:100E400080E28E1508F4ADC0F09001020E94DD0131
:100E50001B012C018091D90181117EC08092D901A2
:100E6000D092D8017092D7011092D601E092D501AC
:100E7000E1EEF1E0A5EBB1E0E812BDC01092B401E3
:100E80008091B401FF0CF82AF092B4018091B30173
:100E9000813009F0B4C01092B3010E94DD011B0142
:100EA0002C018091B4018093BB008091DB01909173
:100EB000DC01A091DD01B091DE01892B8A2B8B2B07
:100EC000A1F00E94DD012091DB013091DC01409115
:100ED000DD015091DE016219730984099509261715
:100EE00037074807590708F458C08091BC0083FDB4
:100EF000D8CF9092BC000E94DD011B012C01809193
:100F0000D901823009F47EC08091D7018F3F09F466
:100F100048C08091D701803209F443C08091D70145
:100F200040C0F88EEF8AB8018B899C890E94840AA0
:100F3000FFCEFE8EED8EB801898D9A8D0E94840AB7
:100F400018CF85E090E09E838D836DE271E089810A
:100F50009A810E94840A1DCF8091DB019091DC016F
:100F6000A091DD01B091DE01892B8A2B8B2B09F436
:100F700071CF0E94DD012091DB013091DC014091B5
:100F8000DD015091DE016219730984099509261764
:100F900037074807590708F05DCF8091DA010E94B2
:100FA00079021092E001109202021092DF0168EEC5
:100FB00073E080E090E00E94020280910001909135
:100FC0000101079761F482E090E090930101809322
:100FD000000180910201811137C0D0920201A11459
:100FE000B10409F47DCE0E94EE00882309F478CE86
:100FF0000E94000075CE91919D938F5F3DCFC0926E
:10100000BC0079CF8091DB019091DC01A091DD01E2
:10101000B091DE01892B8A2B8B2B09F470CF0E94B3
:10102000DD012091DB013091DC014091DD01509127
:10103000DE016219730984099509261737074807E5
:10104000590708F05CCFA9CF10920201C8CFBB2787
:101050004A3031F4992322F4BDE2909581959F4F57
:101060000C943308BB27FB015527AA27880F991F2B
:10107000AA1FA41710F0A41B83955051B9F7A05DC7
:10108000AA3308F0A95DA193009779F7B111B19344
:101090001192CB010C944C08DC01FC01672F71917B
:1010A0007723E1F7329704C07C916D93708362914E
:1010B000AE17BF07C8F308952F923F924F925F92E9
:1010C0006F927F928F929F92AF92BF92CF92DF9258
:1010D000EF92FF920F931F93CF93DF93CDB7DEB7BD
:1010E000CA1BDB0B0FB6F894DEBF0FBECDBF099451
:1010F0002A88398848885F846E847D848C849B84A8
:10110000AA84B984C884DF80EE80FD800C811B81B5
:10111000AA81B981CE0FD11D0FB6F894DEBF0FBEE4
:10112000CDBFED010895EE0FFF1F0590F491E02D66
:1011300009940F931F93CF93DF938230910510F49E
:1011400082E090E0E091AE02F091AF0230E020E06A
:10115000B0E0A0E0309799F42115310509F44AC0B8
:10116000281B390B24303105D8F58A819B81611504
:10117000710589F1FB0193838283FE0111C04081D7
:1011800051810281138148175907E0F04817590728
:1011900099F4109761F012960C93129713961C9382
:1011A0003296CF01DF91CF911F910F910895009357
:1011B000AE021093AF02F4CF2115310551F0421762
:1011C000530738F0A901DB019A01BD01DF01F801E5
:1011D000C1CFEF01F9CF9093AF028093AE02CDCF94
:1011E000FE01E20FF31F819391932250310939835D
:1011F0002883D7CF2091AC023091AD02232B41F44C
:1012000020910501309106013093AD022093AC028C
:1012100020910301309104012115310541F42DB7CE
:101220003EB74091070150910801241B350BE09116
:10123000AC02F091AD02E217F307A0F42E1B3F0BB6
:101240002817390778F0AC014E5F5F4F2417350738
:1012500048F04E0F5F1F5093AD024093AC02819354
:1012600091939FCFF0E0E0E09CCFCF93DF93009786
:10127000E9F0FC01329713821282A091AE02B09184
:10128000AF02ED0130E020E01097A1F42081318120
:10129000820F931F2091AC023091AD0228173907BD
:1012A00009F061C0F093AD02E093AC02DF91CF9101
:1012B0000895EA01CE17DF07E8F54A815B819E01B8
:1012C00041155105B1F7E901FB83EA834991599131
:1012D000C40FD51FEC17FD0761F480819181029640
:1012E000840F951FE90199838883828193819B8371
:1012F0008A83F0E0E0E012968D919C91139700971D
:10130000B9F52D913C911197CD010296820F931F53
:101310002091AC023091AD022817390739F6309789
:1013200051F51092AF021092AE02B093AD02A093AD
:10133000AC02BCCFD383C28340815181840F951FFF
:10134000C817D90761F44E5F5F4F88819981480FB4
:10135000591F518340838A819B8193838283211506
:10136000310509F0B0CFF093AF02E093AE029ECF0B
:10137000FD01DC01C0CF13821282D7CFB0E0A0E024
:10138000E4ECF9E00C945E088C01009751F4CB0179
:101390000E9499088C01C801CDB7DEB7E0E10C943A
:1013A0007A08FC01E60FF71F9C0122503109E21771
:1013B000F30708F49DC0D901CD91DC911197C617B0
:1013C000D70798F0C530D10530F3CE0104978617C2
:1013D000970708F3C61BD70B2297C193D1936D9340
:1013E0007C93CF010E943509D6CF5B01AC1ABD0AB0
:1013F0004C018C0E9D1EA091AE02B091AF02512CFB
:10140000412CF12CE12C109731F58091AC02909198
:10141000AD028815990509F05CC04616570608F01C
:1014200058C08091030190910401009741F48DB759
:101430009EB74091070150910801841B950BE81756
:10144000F90708F055C0F093AD02E093AC02F90142
:1014500071836083A0CF8D919C91119712966C90AF
:10146000129713967C901397A815B90559F56C013E
:1014700042E0C40ED11CCA14DB0420F1AC014A19AD
:101480005B09DA011296159780F0628273825183AC
:101490004083D9016D937C93E114F10471F0D7017D
:1014A0001396FC93EE93129776CF22968C0F9D1F86
:1014B000F90191838083F301EFCFF093AF02E093C2
:1014C000AE0269CF4816590608F42C017D01D301FC
:1014D0009ACFCB010E9499087C01009749F0AE0198
:1014E000B8010E947B0AC8010E943509870153CFC9
:1014F00010E000E050CFFB01DC0102C001900D9232
:1015000041505040D8F70895FB01DC0101900D9245
:101510000020E1F70895F894FFCF0200010000B029
:101520000280000000000024018400B1007101E28B
:1015300000C000D40000000000F102C40220039AA1
:1015400002BD02AA029B0250494E3A200020457378
:0A1550007461646F3A000D0A000098
:107E0000112484B714BE81FFF0D085E080938100F7
:107E100082E08093C00088E18093C10086E0809377
:107E2000C20080E18093C4008EE0C9D0259A86E02C
:107E300020E33CEF91E0309385002093840096BBD3
:107E4000B09BFECF1D9AA8958150A9F7CC24DD24C4
:107E500088248394B5E0AB2EA1E19A2EF3E0BF2EE7
:107E6000A2D0813461F49FD0082FAFD0023811F036
:107E7000013811F484E001C083E08DD089C08234E0
:107E800011F484E103C0853419F485E0A6D080C0E4
:107E9000853579F488D0E82EFF2485D0082F10E0AE
:107EA000102F00270E291F29000F111F8ED06801E7
:107EB0006FC0863521F484E090D080E0DECF843638
:107EC00009F040C070D06FD0082F6DD080E0C81688
:107ED00080E7D80618F4F601B7BEE895C0E0D1E017
:107EE00062D089930C17E1F7F0E0CF16F0E7DF06D8
:107EF00018F0F601B7BEE89568D007B600FCFDCFD4
:107F0000A601A0E0B1E02C9130E011968C91119780
:107F100090E0982F8827822B932B1296FA010C0160
:107F200087BEE89511244E5F5F4FF1E0A038BF0790
:107F300051F7F601A7BEE89507B600FCFDCF97BE46
:107F4000E89526C08437B1F42ED02DD0F82E2BD052
:107F50003CD0F601EF2C8F010F5F1F4F84911BD097
:107F6000EA94F801C1F70894C11CD11CFA94CF0C13
:107F7000D11C0EC0853739F428D08EE10CD085E9AC
:107F80000AD08FE07ACF813511F488E018D01DD067
:107F900080E101D065CF982F8091C00085FFFCCF94
:107FA0009093C60008958091C00087FFFCCF809118
:107FB000C00084FD01C0A8958091C6000895E0E648
:107FC000F0E098E1908380830895EDDF803219F02E
:107FD00088E0F5DFFFCF84E1DECF1F93182FE3DFCA
:107FE0001150E9F7F2DF1F91089580E0E8DFEE27F6
:047FF000FF270994CA
:027FFE00040479
:00000001FF
