:020000040000FA
:100000000C944E010C947F010C947F010C947F01A1
:100010000C947F010C947F010C947F010C947F0160
:100020000C947F010C947F010C947F010C947F0150
:100030000C947F010C947F010C947F010C947F0140
:100040000C947F010C947F010C947F010C947F0130
:100050000C947F010C947F010C947F010C942B086D
:100060000C947F010C94F5070C94CB070C947F0142
:100070000C947F010C947F010C947F010C947F0100
:100080000C947F010C947F010C947F010C947F01F0
:100090000C9495070C946B070C947F010C947508D5
:1000A0000C947F010C947F010C947F010C947F01D0
:1000B0000C947F010C947F010C947F010C947F01C0
:1000C0000C947F010C947F010C947F010C947F01B0
:1000D0000C947F010C947F010C947F010C947F01A0
:1000E0000C947F010C9469030C9484040C947404A4
:1000F0000C94D5020C9455030C945F030C94730379
:100100000C94E8010C9488020C9451060C9497040A
:100110000C9452030C9477030C9446030C944602FF
:100120000C944E030C949E040C944A030C94E70127
:100130000C9438020C947B030C945B030C943D0DDF
:100140000C9475040C94E2050C9440030C94E601A5
:100150000C946D030C9480030C9485030C9465033C
:100160000C94E1050C9481030C9424020C94150268
:100170000C9499090C94CB04000020002300260065
:1001800029002C002F0032000001000003010601AD
:10019000090100000A0B02090C0D0E0807030401F7
:1001A000000000000000000000000000000000004F
:1001B000000000000000000000000000000012111C
:1001C000100000000000000000000000000000001F
:1001D00000000000000000000000220025002800B0
:1001E0002B002E003100340002010000050108013F
:1001F0000B0100002100240027002A002D00300000
:10020000330001010000040107010A01050505058D
:10021000070508080808020202020A0A080804047E
:1002200004040101010101010101030303030303AC
:100230000303040707070C0C0C0C0C0C0C0C02023B
:10024000020206060606060606060B0B0B0B0B0B38
:100250000B0B0102102020080810204010204080C5
:10026000020102010804020101020408102040807A
:100270008040201008040201800402018040201008
:100280000804020108040201010204081020408051
:10029000010204081020408099093D0D11241FBE61
:1002A000CFEFD1E2DEBFCDBF00E00CBF24E0A0EA7B
:1002B000B2E001C01D92AF3DB207E1F712E0A0E04D
:1002C000B2E0E8E4F0E200E00BBF02C007900D925C
:1002D000A03AB107D9F711E0CDE4D1E000E006C0C3
:1002E00021970109802FFE010E94D10DCC34D10746
:1002F00080E00807A9F70E94180A0C9412100C94C9
:100300000000FC01A089B18982E08C93A485B585A9
:100310001C92A685B7858FEC8C93108EA489B58925
:1003200086E08C93A289B3898C9180618C93A28999
:10033000B3898C9188608C93A289B3898C918068F1
:100340008C930288F389E02D80818F7D80830895CE
:100350002091C1043091C2048217930738F4209190
:10036000BD043091BE042115310529F410927603A5
:1003700086E793E00895820F931F0895CF93DF934C
:1003800090E0FC01EE5AFD4F2491845F9D4FFC01EB
:1003900084918823C1F090E0880F991FFC01EE50F2
:1003A000FE4FC591D491FC01E852FE4FA591B49146
:1003B0009FB7F8948881E22FE0958E2388838C91F3
:1003C000E823EC939FBFDF91CF910895089508959E
:1003D000AF92BF92CF92DF92EF92FF920F931F9353
:1003E000CF93DF936C017B018B01040F151FEB0191
:1003F0005E01AE18BF08C017D10759F06991D60148
:10040000ED91FC910190F081E02DC6011995892BA9
:1004100079F7C501DF91CF911F910F91FF90EF9078
:10042000DF90CF90BF90AF900895FC01538D448D25
:10043000252F30E0842F90E0821B930B541710F08F
:10044000CF96089501970895FC01918D828D98179C
:1004500061F0A28DAE0FBF2FB11D5D968C91928D74
:100460009F5F9F73928F90E008958FEF9FEF0895A5
:10047000FC01918D828D981731F0828DE80FF11D6E
:10048000858D90E008958FEF9FEF0895FC01918D89
:10049000228D892F90E0805C9F4F821B91098F7382
:1004A0009927089587E793E00E94460221E0892B6F
:1004B00009F420E0822F089584E194E00E9446022E
:1004C00021E0892B09F420E0822F0895FC01A48DFE
:1004D000A80FB92FB11DA35ABF4F2C91848D90E066
:1004E00001968F739927848FA689B7892C93A08949
:1004F000B1898C91837080648C93938D848D9813D3
:1005000006C00288F389E02D80818F7D8083089565
:10051000EF92FF920F931F93CF93DF93EC0181E053
:10052000888F9B8D8C8D98131AC0E889F9898081FA
:1005300085FF15C09FB7F894EE89FF896083E8892D
:10054000F98980818370806480839FBF81E090E01F
:10055000DF91CF911F910F91FF90EF900895F62EAC
:100560000B8D10E00F5F1F4F0F731127E02E8C8D46
:100570008E110CC00FB607FCFACFE889F98980818B
:1005800085FFF5CFCE010E946602F1CFEB8DEC0F17
:10059000FD2FF11DE35AFF4FF0829FB7F8940B8FA8
:1005A000EA89FB8980818062CFCFCF93DF93EC0112
:1005B000888D8823B9F0AA89BB89E889F9898C914B
:1005C00085FD03C0808186FD0DC00FB607FCF7CF07
:1005D0008C9185FFF2CF808185FFEDCFCE010E9407
:1005E0006602E9CFDF91CF91089580E090E0892BFA
:1005F00029F00E945C0281110E94000080E090E0DE
:10060000892B29F00E94520281110E94000080E093
:1006100090E0892B49F080E090E0892B29F00E943E
:10062000000081110E94000080E090E0892B49F0D9
:1006300080E090E0892B29F00E94000081110C9449
:10064000000008958150823108F05AC0E82FF0E090
:100650008827E25DFC4F8F4F0C94D10D4E0352035F
:10066000400346034A03800355035B035F036503AE
:1006700069036D037303770380037B0381038503A1
:10068000809180008F778093800008958091800012
:100690008F7DF9CF80918000877FF5CF84B58F77EC
:1006A00084BD089584B58F7DFBCF8091B0008F7796
:1006B0008093B00008958091B0008F7DF9CF809134
:1006C00090008F77809390000895809190008F7DA7
:1006D000F9CF80919000877FF5CF8091A0008F7730
:1006E0008093A00008958091A0008F7DF9CF809124
:1006F000A000877FF5CF809120018F778093200124
:100700000895809120018F7DF9CF80912001877F0E
:10071000F5CF1F93CF93DF93282F30E0F901EE56EA
:10072000FE4F8491F901EE5AFD4FD491F901E45F37
:10073000FD4FC491CC23A9F0162F81110E942203F2
:10074000EC2FF0E0EE0FFF1FE852FE4FA591B491A1
:100750008FB7F894EC91111108C0D095DE23DC938B
:100760008FBFDF91CF911F910895DE2BF8CF3FB758
:10077000F8948091570390915803A0915903B09138
:100780005A0326B5A89B05C02F3F19F00196A11D5D
:10079000B11D3FBFBA2FA92F982F8827BC01CD01CB
:1007A000620F711D811D911D42E0660F771F881F2A
:1007B000991F4A95D1F708958F929F92AF92BF9259
:1007C000CF92DF92EF92FF924B015C010E94B70340
:1007D0006B017C010E94B7036C197D098E099F098A
:1007E000683E734081059105A8F321E0821A9108C3
:1007F000A108B10888EEC80E83E0D81EE11CF11CE8
:1008000081149104A104B10429F7FF90EF90DF90C7
:10081000CF90BF90AF909F908F9008952091080344
:10082000260F3327331F21323105ECF420912C039E
:10083000FC0190E080E0243069F082E00895A0910E
:1008400008032191AC0148515D4FA40FB52FB11D94
:100850002C930196861798F380910803680F609394
:10086000080380E0089581E0089510922C0381E050
:1008700080932E0310922D0361E084E10E9489038E
:1008800061E085E10E948903E9EBF0E080818E7FE1
:10089000808380818D7F808388E48093B80085E4A5
:1008A0008093BC000895CF93DF9391E09093E7028B
:1008B0008823B9F0C091B800D091BA008091BC00F3
:1008C0008A7B8093BC0060E084E10E94890360E041
:1008D00085E10E9489030E943504D093BA00C09339
:1008E000B800DF91CF9108950895E091620380915F
:1008F0006103E81730F4F0E0EE53FD4F808190E0A3
:1009000008958FEF9FEF08959091620380916103A6
:100910002FEF3FEF981748F4E92FF0E0EE53FD4F2B
:10092000208130E09F5F90936203C9010895809118
:10093000610390916203891B990B0895CF92DF9216
:10094000EF92FF920F931F93CF93DF937C01CB0124
:100950008A012091C102222389F0EB016B01C40EB0
:10096000D51ECC15DD0569F06991D701ED91FC919B
:100970000190F081E02DC7011995F3CF642F0E94FB
:100980000E04C801DF91CF911F910F91FF90EF905E
:10099000DF90CF900895CF93DF931F92CDB7DEB74E
:1009A00069832091C1022223F9F020915F03203254
:1009B00058F021E030E0FC013383228390E080E0B6
:1009C0000F90DF91CF91089580916003E82FF0E0C0
:1009D000EF55FD4F998190838F5F809360038093E3
:1009E0005F0381E090E0ECCF61E0CE0101960E94D0
:1009F0000E04F7CFCF92DF92EF92FF920F931F93E7
:100A0000CF93DF93FC01C48121E02093C102C09306
:100A1000A0021092600310925F038385682B81EB24
:100A200094E00E94CB04D0915F03D13208F092C0D1
:100A30000E94B7036B017C0180912C03811165C07A
:100A400082E080932C0381E080932E038FEF8093CC
:100A50002B0310925003D0934F03A1EAB2E0EFE2D0
:100A6000F3E080E0D81385C01092510380915103C8
:100A7000CC0FC82BC093510380912D03813009F016
:100A80007CC010922D030E94B7036B017C01809102
:100A900051038093BB008091E3029091E402A09106
:100AA000E502B091E602892B8A2B8B2B99F00E94EC
:100AB000B7030091E3021091E4022091E502309126
:100AC000E6026C197D098E099F090617170728078A
:100AD0003907E0F18091BC0083FDD9CF85EC80938C
:100AE000BC000E94B7036B017C0180912C03823013
:100AF00009F445C080912B038F3F61F180912B0356
:100B0000803241F180912B0325C08091E3029091C6
:100B1000E402A091E502B091E602892B8A2B8B2B8F
:100B200009F48ACF0E94B7030091E3021091E40216
:100B30002091E5023091E6026C197D098E099F092A
:100B4000061717072807390708F076CF8091E202C9
:100B50000E9453041092600310925F031092C1022E
:100B6000DF91CF911F910F91FF90EF90DF90CF9089
:100B700008959D9191938F5F75CF85EEB0CF809151
:100B8000E3029091E402A091E502B091E602892B84
:100B90008A2B8B2B09F4A9CF0E94B7030091E302A3
:100BA0001091E4022091E5023091E6026C197D0972
:100BB0008E099F09061717072807390708F095CFF0
:100BC000C5CF089590E080E008950F931F93CF93D1
:100BD0008C01C62F0E94FA046C2F6460C8010E9429
:100BE000FA046C2F6B7FC8010E94FA0483EC90E03A
:100BF0000197F1F7CF911F910F9108950F931F93D4
:100C0000CF93DF938C01D62FC42F607F642B0E947B
:100C1000E50580E1D89FB00111246C2BC801DF915C
:100C2000CF911F910F910C94E50540E061E08FECAE
:100C300094E00E94FE058BE39FE10197F1F7089590
:100C4000CF93DF9300D000D01F921F92CDB7DEB7B5
:100C500098E0E8E0F2E0DE01119601900D929A959D
:100C6000E1F79091D704961708F46FEF262F30E044
:100C7000220F331F41E050E04C0F5D1F240F351F42
:100C8000F9016081680F606840E08FEC94E028967D
:100C90000FB6F894DEBF0FBECDBFDF91CF910C949D
:100CA000FE0541E00E94FE0581E090E00895EF928C
:100CB000FF920F931F93CF93DF937C018C01D0E0C1
:100CC000C0E0CE010E94850DF80181938F0121962D
:100CD000C131D105B1F7C701DF91CF911F910F91BC
:100CE000FF90EF900895FB0101900020E9F7319704
:100CF000AF01461B570BDC01ED91FC910280F381A3
:100D0000E02D19940F931F93CF93DF93EC010E9472
:100D100073068C0164E572E0CE010E947306800FB9
:100D2000911FDF91CF911F910F910895FC01808158
:100D30009181009711F00C94890E08950F931F93E1
:100D4000CF93DF93EC0188819981009759F02A8134
:100D50003B812617370730F081E0DF91CF911F915B
:100D60000F9108958B016F5F7F4F0E94120F0097C4
:100D700059F0998388831B830A832C813D81232B1F
:100D800059F7FC011082E8CF80E0E7CFEF92FF92A5
:100D90000F931F93CF93DF93EC017B01198218828D
:100DA0001B821A821D821C82FB0101900020E9F740
:100DB00031978F01061B170BB8010E949E062881F0
:100DC0003981811113C02115310519F0C9010E9423
:100DD000890E198218821D821C821B821A82DF9161
:100DE000CF911F910F91FF90EF9008951D830C8379
:100DF000B701C901DF91CF911F910F91FF90EF9043
:100E00000C94FC0FEF92FF920F931F93CF93DF93FD
:100E10001F921F92CDB7DEB78C0169831A82FC0145
:100E2000E480F580FFEFEF1AFF0AB7010E949E06EB
:100E3000882381F0F8012081318184819581BE0170
:100E40006F5F7F4F820F931F0E94FC0FF801F582A6
:100E5000E48281E00F900F90DF91CF911F910F916D
:100E6000FF90EF90089585ED8093BC008091E302A0
:100E70009091E402A091E502B091E6020796A11DCF
:100E8000B11D23E0B695A795979587952A95D1F73B
:100E90002091BC0024FD03C010922C0308954091C2
:100EA000E3025091E4026091E5027091E602452B65
:100EB000462B472B69F30097A105B10541F02AE2C3
:100EC0002A95F1F700C00197A109B109E1CF8091FE
:100ED000E2020C9453041F920F920FB60F9211244A
:100EE0000BB60F922F933F934F935F936F937F9324
:100EF0008F939F93AF93BF93EF93FF9387E793E015
:100F00000E946602FF91EF91BF91AF919F918F91E7
:100F10007F916F915F914F913F912F910F900BBEF9
:100F20000F900FBE0F901F9018951F920F920FB643
:100F30000F9211240BB60F922F938F939F93EF93E1
:100F4000FF93E0918703F09188038081E0918D0306
:100F5000F0918E0382FD1DC09081809190038F5F80
:100F60008F7320919103821741F0E0919003F0E09C
:100F7000E958FC4F958F80939003FF91EF919F91DB
:100F80008F912F910F900BBE0F900FBE0F901F905F
:100F900018958081F2CF1F920F920FB60F921124F5
:100FA0000BB60F922F933F934F935F936F937F9363
:100FB0008F939F93AF93BF93EF93FF9384E194E05C
:100FC0000E946602FF91EF91BF91AF919F918F9127
:100FD0007F916F915F914F913F912F910F900BBE39
:100FE0000F900FBE0F901F9018951F920F920FB683
:100FF0000F9211240BB60F922F938F939F93EF9321
:10100000FF93E0912404F09125048081E0912A046B
:10101000F0912B0482FD1DC0908180912D048F5F83
:101020008F7320912E04821741F0E0912D04F0E09F
:10103000EC5EFB4F958F80932D04FF91EF919F9174
:101040008F912F910F900BBE0F900FBE0F901F909E
:1010500018958081F2CF1F920F920FB60F92112434
:101060002F933F938F939F93AF93BF93809153039D
:1010700090915403A0915503B091560330915203BF
:1010800023E0230F2D3758F50196A11DB11D2093A4
:1010900052038093530390935403A0935503B0934A
:1010A00056038091570390915803A0915903B09132
:1010B0005A030196A11DB11D8093570390935803C5
:1010C000A0935903B0935A03BF91AF919F918F9111
:1010D0003F912F910F900FBE0F901F90189526E80B
:1010E000230F0296A11DB11DD2CF1F920F920FB6F2
:1010F0000F9211240BB60F922F933F934F935F9350
:101100006F937F938F939F93AF93BF93EF93FF93CF
:101110008091B900887F803609F44DC008F040C046
:10112000883209F4A9C028F5803109F49DC0C8F4BB
:10113000882309F4FBC0883009F496C0FF91EF9131
:10114000BF91AF919F918F917F916F915F914F91DF
:101150003F912F910F900BBE0F900FBE0F901F90DD
:101160001895883109F488C0803241F780932B03A9
:1011700014C0803409F49DC040F48033B9F388333F
:10118000E9F680932B0385ECB0C0803509F485C067
:10119000883509F496C0883489F60E943307CECF8B
:1011A000883909F48CC038F5883729F050F488362E
:1011B00011F0803719F683E080932C0310922A03F4
:1011C00057C0883809F47BC0803919F0803809F09D
:1011D000B5CF80912A03803208F071C0E0912A03D4
:1011E00081E08E0F80932A038091BB00F0E0E65FE0
:1011F000FC4F80833DC0803B39F0E0F4803A09F435
:1012000079C0883A09F09ACF84E080932C03109239
:10121000090310920803E0915D03F0915E031995B4
:101220008091080381110FC081E080930803109220
:10123000E80209C0803C09F4A6CF883C09F4A3CF9A
:10124000883B09F07BCFE091090381E08E0F80930A
:101250000903F0E0E851FD4F80818093BB0090913D
:1012600009038091080329C0809151038093BB003A
:1012700085EC8093BC0062CF9091500380914F0326
:10128000981758F5E091500381E08E0F809350033A
:10129000F0E0E15DFC4F8081E9CFE091500381E017
:1012A0008E0F809350038091BB00F0E0E15DFC4F16
:1012B00080839091500380914F039817C8F285E87E
:1012C000D8CFE091500381E08E0F8093500380913E
:1012D000BB00F0E0E15DFC4F808380912E03811123
:1012E0005CCF81E080932D0384EA8093BC00109250
:1012F0002C0324CF85EC8093BC0010922C038091AA
:101300002A03803230F4E0912A03F0E0E65FFC4FDC
:10131000108260912A0370E0E0915B03F0915C031E
:101320008AE093E0199510922A0308CF10922B03BC
:1013300034CFE7E7F3E01382128288EE93E0A0E077
:10134000B0E084839583A683B78328E232E03183BB
:1013500020834DEC50E0558744874CEC50E0578794
:10136000468748EC50E0518B408B49EC50E0538B62
:10137000428B4AEC50E0558B448B4EEC50E0578B3F
:10138000468B118E128E138E148EE4E1F4E01382DC
:10139000128284839583A683B7833183208325ECCF
:1013A00030E03587248724EC30E03787268720EC2F
:1013B00030E0318B208B21EC30E0338B228B22EC20
:1013C00030E0358B248B26EC30E0378B268B118E6A
:1013D000128E138E148EE1EBF4E01382128284835A
:1013E0009583A683B7838AE392E091838083EFECB1
:1013F000F4E0138212828CE492E09183808381E294
:10140000848380E1818782E08287138667E572E0CA
:1014100089EC94E00E94C60667E672E083EC94E0F3
:101420000E94C60666E572E08DEB94E00C94C60659
:10143000CF93DF93CDB7DEB7CF54D1090FB6F89471
:10144000DEBF0FBECDBF789484B5826084BD84B505
:10145000816084BD85B5826085BD85B5816085BDAF
:1014600080916E00816080936E0010928100809167
:1014700081008260809381008091810081608093EF
:101480008100809180008160809380008091B10014
:1014900084608093B1008091B00081608093B0003F
:1014A0008091910082608093910080919100816091
:1014B0008093910080919000816080939000809152
:1014C000A10082608093A1008091A100816080933F
:1014D000A1008091A00081608093A00080912101F3
:1014E000826080932101809121018160809321019C
:1014F0008091200181608093200180917A00846036
:1015000080937A0080917A00826080937A00809143
:101510007A00816080937A0080917A00806880935D
:101520007A001092C10084E194E00E94810187E773
:1015300093E00E94810184E00E94BE0185E00E9448
:10154000BE01109262031092610310926003109228
:101550005F030E94350486EE91E090935E038093D2
:101560005D0387EE91E090935C0380935B031092A0
:10157000D4048091D904823018F098E09093D40478
:101580008093D70462E370E080E090E00E94DC0387
:101590006091DA048FEC94E00E94FA0468EE73E044
:1015A00080E090E00E94DC0360E38FEC94E00E9416
:1015B000E5050BE416E4C8010197F1F760E38FEC51
:1015C00094E00E94E505C8010197F1F760E38FEC14
:1015D00094E00E94E50583E592E00197F1F760E26F
:1015E0008FEC94E00E94E5056091D404606240E0D5
:1015F0008FEC94E00E94FE0584E08093D50440E0E7
:101600006CE08FEC94E00E94FE050E94150682E0DB
:101610008093D60440E066E08FEC94E00E94FE05E3
:1016200040E062E08FEC94E00E94FE058BE39FE1D6
:101630000197F1F788E08093DA0460E08FEC94E0A2
:101640000E94FA040E94150660E080E00E942006D5
:101650004091CD045091CE046091C9047091CA04A8
:101660008FEC94E00E94E80161E080E00E94200697
:101670004091C7045091C8046091C3047091C404A0
:101680008FEC94E00E94E80166E9262E61E0362E98
:1016900076E5A72E72E0B72EEAE04E2E512C612C93
:1016A000712C84E194E00E944602892B71F084E160
:1016B00094E00E942402182F80937503682F8DEB0D
:1016C00094E00E94020710937403809174038532A2
:1016D00009F0C4C066E572E0CE01865B9F4F0E94B0
:1016E000C60666E572E0CE018C5B9F4F0E94C6067F
:1016F00010E000E0FF24F3948091C1049091C204B3
:101700000817190758F5C8010E94A801FC0180813B
:101710008C3221F4F12C0F5F1F4FEECFC8010E94D5
:10172000A801FC0180818532A9F3C801FF2061F086
:101730000E94A801FC016081CE01865B9F4F0E9440
:101740000207FF24F394E7CF0E94A801FC01608107
:10175000CE018C5B9F4F0E940207DDCF0E941506D1
:1017600060E081E00E94200667E772E08FEC94E081
:101770000E94730661E081E00E94200664E872E046
:101780008FEC94E00E9473062C968EAD9FAD2C9743
:10179000009709F4C5C00E94490D7093010260933F
:1017A00000027CAB6BAB2A960EAD1FAD2A970F3FA4
:1017B000100729F00115110509F0B6C01DAA81E135
:1017C000FE01F396DE01929601900D928A95E1F763
:1017D000CE0101960E9457067E0182E2E80EF11CBE
:1017E00010E000E0F70191907F01C8010E94850D93
:1017F000981621F0692DC8010E948D0D0F5F1F4FB3
:101800000131110579F770E060E08DEB94E00E9402
:101810009E062091BD043091BE04811196C0211511
:10182000310519F0C9010E94890E1092BE04109270
:10183000BD041092C2041092C1041092C004109210
:10184000BF0484E280937403CE018C5B9F4F0E949F
:101850009606CE01865B9F4F0E949606209100025D
:101860003091010237FD7BC0C9016AE070E00E943F
:101870009B0D660F771FFB01E05FFD4F408140BB72
:10188000FC01EE0FFF1FE05FFD4F80818093070199
:101890002115310511F021503109309301022093B7
:1018A000000283E693E00E9457060E94150660E05E
:1018B00081E00E94200667E772E08FEC94E00E94CE
:1018C000730661E081E00E94200665E673E08FEC1C
:1018D00094E00E94730664E670E080E090E00E946D
:1018E000DC038091000290910102892BB1F48FEF0B
:1018F0009FEF90930102809300028FE380BB80935F
:10190000070164E972E084E194E00E94820664E9E0
:1019100072E087E793E00E9482060E94F502C1CE42
:1019200060E070E0CB0139CF26966EAD7FAD269793
:10193000A801CE01C5960E940310E5E3F0E0EC0F8C
:10194000FD1FE00FF11F10823ACF1092C2041092D7
:10195000C10466E572E0C9010E94FC0F72CFF1017B
:101960008491F5011491E0E1F2E004910023A9F2E1
:1019700081110E942203E02FF0E0EE0FFF1FE858D4
:10198000FE4FA591B4918C91182309F4C6CF83E63C
:1019900093E00E9457060E94150660E081E00E94D5
:1019A000200667E772E08FEC94E00E94730661E026
:1019B00081E00E94200665E673E08FEC94E00E94CF
:1019C0007306809163039091640390930102809366
:1019D000000265E673E087E793E00E948206C0900C
:1019E0006303D09064030D2C000CEE08FF08F7FE93
:1019F0002EC06DE287E793E00E94880222273327FA
:101A0000A9012C193D094E095F0919A28E010F5D2C
:101A10001F4FCA01B901A30192010E94AF0D605D81
:101A2000F80162938F01211531054105510589F7B0
:101A30000115110529F0B80187E793E00E947306AC
:101A400064E572E087E793E00E94730666CFA70122
:101A5000960119A28E010F5D1F4FCA01B901A301A2
:101A600092010E94AF0D605DF80162938F01211514
:101A700031054105510589F7DBCF8DEB94E00E94DC
:101A8000960683EC94E00E94960689EC94E00C9410
:101A900096061F93FC0199278827BC01E8941191B1
:101AA0001032E9F3193010F01E30C8F31B3251F038
:101AB0001D3249F4689406C00E94700D610F711DBB
:101AC000811D911D119110531A30B0F33EF4909581
:101AD0008095709561957F4F8F4F9F4F1F9108950F
:101AE000592F482F372F262F660F771F881F991FD2
:101AF000660F771F881F991F620F731F841F951F22
:101B0000660F771F881F991F0895F999FECF92BD20
:101B100081BDF89A992780B50895262FF999FECFAF
:101B20001FBA92BD81BD20BD0FB6F894FA9AF99AFA
:101B30000FBE0196089597FB072E16F4009407D068
:101B400077FD09D00E94D90D07FC05D03EF4909591
:101B500081959F4F0895709561957F4F0895A1E2FB
:101B60001A2EAA1BBB1BFD010DC0AA1FBB1FEE1F17
:101B7000FF1FA217B307E407F50720F0A21BB30B62
:101B8000E40BF50B661F771F881F991F1A9469F7DE
:101B900060957095809590959B01AC01BD01CF013A
:101BA0000895EE0FFF1F881F8BBF0790F691E02D61
:101BB0001994AA1BBB1B51E107C0AA1FBB1FA61784
:101BC000B70710F0A61BB70B881F991F5A95A9F7E6
:101BD00080959095BC01CD0108950F931F93CF93ED
:101BE000DF938230910510F482E090E0E091DD0413
:101BF000F091DE0430E020E0B0E0A0E0309799F40E
:101C00002115310509F44AC0281B390B2430310550
:101C1000D8F58A819B816115710589F1FB01938358
:101C20008283FE0111C040815181028113814817D6
:101C30005907E0F04817590799F4109761F0129688
:101C40000C93129713961C933296CF01DF91CF918C
:101C50001F910F9108950093DD041093DE04F4CFDB
:101C60002115310551F04217530738F0A901DB0166
:101C70009A01BD01DF01F801C1CFEF01F9CF9093C7
:101C8000DE048093DD04CDCFFE01E20FF31F8193CC
:101C900091932250310939832883D7CF2091DB04D7
:101CA0003091DC04232B41F4209104023091050291
:101CB0003093DC042093DB04209102023091030274
:101CC0002115310541F42DB73EB7409106025091E0
:101CD0000702241B350BE091DB04F091DC04E217D2
:101CE000F307A0F42E1B3F0B2817390778F0AC013F
:101CF0004E5F5F4F2417350748F04E0F5F1F50931C
:101D0000DC044093DB04819391939FCFF0E0E0E00B
:101D10009CCFCF93DF930097E9F0FC0132971382B9
:101D20001282A091DD04B091DE04ED0130E020E0EC
:101D30001097A1F420813181820F931F2091DB0441
:101D40003091DC042817390709F061C0F093DC04F6
:101D5000E093DB04DF91CF910895EA01CE17DF070E
:101D6000E8F54A815B819E0141155105B1F7E90112
:101D7000FB83EA8349915991C40FD51FEC17FD07E6
:101D800061F4808191810296840F951FE901998306
:101D90008883828193819B838A83F0E0E0E01296BE
:101DA0008D919C9113970097B9F52D913C911197C6
:101DB000CD010296820F931F2091DB043091DC0449
:101DC0002817390739F6309751F51092DE04109232
:101DD000DD04B093DC04A093DB04BCCFD383C283C7
:101DE00040815181840F951FC817D90761F44E5F58
:101DF0005F4F88819981480F591F518340838A81A1
:101E00009B81938382832115310509F0B0CFF09334
:101E1000DE04E093DD049ECFFD01DC01C0CF138220
:101E20001282D7CF4F925F926F927F928F929F9242
:101E3000AF92BF92CF92DF92EF92FF920F931F93D8
:101E4000CF93DF938C01009799F4CB01DF91CF9171
:101E50001F910F91FF90EF90DF90CF90BF90AF90C8
:101E60009F908F907F906F905F904F900C94ED0DAE
:101E7000FC01E60FF71F9C0122503109E217F3071E
:101E800008F4AEC0D901CD91DC911197C617D707E0
:101E900020F1C530D10578F0CE0104978617970759
:101EA00050F0C61BD70B2297C193D1936D937C93AF
:101EB000CF010E94890EC801DF91CF911F910F9130
:101EC000FF90EF90DF90CF90BF90AF909F908F905A
:101ED0007F906F905F904F9008955B01AC1ABD0AA0
:101EE0004C018C0E9D1EA091DD04B091DE04512C9E
:101EF000412CF12CE12C109731F58091DB0490916D
:101F0000DC048815990509F05CC04616570608F0F0
:101F100058C08091020290910302009741F48DB75E
:101F20009EB74091060250910702841B950BE8175B
:101F3000F90708F055C0F093DC04E093DB04F901E5
:101F400071836083B8CF8D919C91119712966C909C
:101F5000129713967C901397A815B90559F56C0143
:101F600042E0C40ED11CCA14DB0420F1AC014A19B2
:101F70005B09DA011296159780F0628273825183B1
:101F80004083D9016D937C93E114F10471F0D70182
:101F90001396FC93EE9312978ECF22968C0F9D1F73
:101FA000F90191838083F301EFCFF093DE04E09396
:101FB000DD0481CF4816590608F42C017D01D301B8
:101FC0009ACFCB010E94ED0D7C01009749F0AE0144
:101FD000B8010E94F30FC8010E94890E87016BCFE0
:101FE00010E000E068CFFB01DC0102C001900D921F
:101FF00041505040D8F70895FB01DC0101900D924B
:102000000020E1F70895FB01DC014150504048F009
:1020100001900D920020C9F701C01D92415050401F
:10202000E0F7089511E0CDE4D1E000E006C0802F94
:10203000FE010E94D10D2196011DCE34D10780E012
:102040000807A9F7F894FFCFFFFF0000DF04800026
:1020500000004000140054003F0006005B004F00E9
:1020600066006D007D0007007F006F00000000002B
:102070008802E8011502D502460224023802000057
:102080000000CB049E04E2057404970484047504E4
:10209000000000005106E801E205E1050D0A0020FC
:1020A00020204269656E76656E69646F212000208C
:1020B0002020202020202020202020202020002040
:1020C000456A65637574616E646F20002054656DA8
:1020D000706F72697A61646F7221200046696E6167
:0820E0006C697A61646F210054
:020000040003F7
:10E000000D9489F10D94B2F10D94B2F10D94B2F129
:10E010000D94B2F10D94B2F10D94B2F10D94B2F1F0
:10E020000D94B2F10D94B2F10D94B2F10D94B2F1E0
:10E030000D94B2F10D94B2F10D94B2F10D94B2F1D0
:10E040000D94B2F10D94B2F10D94B2F10D94B2F1C0
:10E050000D94B2F10D94B2F10D94B2F10D94B2F1B0
:10E060000D94B2F10D94B2F10D94B2F10D94B2F1A0
:10E070000D94B2F10D94B2F10D94B2F10D94B2F190
:10E080000D94B2F10D94B2F10D94B2F10D94B2F180
:10E090000D94B2F10D94B2F10D94B2F10D94B2F170
:10E0A0000D94B2F10D94B2F10D94B2F10D94B2F160
:10E0B0000D94B2F10D94B2F10D94B2F10D94B2F150
:10E0C0000D94B2F10D94B2F10D94B2F10D94B2F140
:10E0D0000D94B2F10D94B2F10D94B2F10D94B2F130
:10E0E0000D94B2F141546D656761323536300041AF
:10E0F000726475696E6F206578706C6F72657220DE
:10E1000073746B3530305632206279204D4C530099
:10E11000426F6F746C6F616465723E004875683F52
:10E1200000436F6D70696C6564206F6E203D200048
:10E130004350552054797065202020203D20005FF9
:10E140005F4156525F415243485F5F3D2000415658
:10E1500052204C696243205665723D20004743437C
:10E160002056657273696F6E203D20004350552024
:10E1700049442020202020203D20004C6F7720663D
:10E18000757365202020203D20004869676820665F
:10E190007573652020203D200045787420667573D6
:10E1A00065202020203D20004C6F636B2066757336
:10E1B000652020203D20004D617220203720323024
:10E1C000313300312E362E3800342E332E350056A2
:10E1D00023202020414444522020206F7020636F70
:10E1E00064652020202020696E73747275637469E1
:10E1F0006F6E2061646472202020496E74657272B3
:10E20000757074006E6F20766563746F7200726A49
:10E210006D702020006A6D70200057686174207056
:10E220006F72743A00506F7274206E6F7420737541
:10E2300070706F72746564004D7573742062652030
:10E2400061206C6574746572002000577269747483
:10E25000696E672045450052656164696E672045B7
:10E26000450045452065727220636E743D00504F35
:10E27000525400303D5A65726F2061646472003FF1
:10E280003D43505520737461747300403D454550C3
:10E29000524F4D207465737400423D426C696E6B41
:10E2A000204C454400453D44756D70204545505215
:10E2B0004F4D00463D44756D7020464C415348001B
:10E2C000483D48656C70004C3D4C69737420492F83
:10E2D0004F20506F72747300513D51756974005234
:10E2E0003D44756D702052414D00563D73686F7707
:10E2F00020696E7465727275707420566563746FF0
:10E30000727300593D506F727420626C696E6B00BD
:10E310002A0011241FBECFEFD1E2DEBFCDBF01E046
:10E320000CBF12E0A0E0B2E0EEE1FDEF03E00BBFB6
:10E3300002C007900D92A030B107D9F712E0A0E01B
:10E34000B2E001C01D92AE30B107E1F70F9460F367
:10E350000D948DFE01E20EBF0FEF0DBF11241FBE05
:10E360000D9460F30D9400F020E030E040ED57E0B4
:10E3700005C0FA013197F1F72F5F3F4F2817390792
:10E38000C0F308959C01260F311DC901A0E0B0E043
:10E390002F5F3F4FABBFFC018791882361F08093D3
:10E3A000C6008091C00086FFFCCF8091C0008064D1
:10E3B0008093C000EACF08958DE08093C6008091DD
:10E3C000C00086FFFCCF8091C00080648093C000B5
:10E3D0008AE08093C6008091C00086FFFCCF8091C8
:10E3E000C00080648093C00008950F94C2F10F9420
:10E3F000DCF10895FC019081992359F09093C600B7
:10E400008091C00086FFFCCF8091C0008064809323
:10E41000C0003196992379F70895282F982F929567
:10E420009F70892F805D8A3308F0895F8093C600D2
:10E430008091C00086FFFCCF8091C00080648093F3
:10E44000C000822F8F70982F905D9A3308F0995FEB
:10E450009093C6008091C00086FFFCCF8091C000E1
:10E4600080648093C00008959C01FB01853691056E
:10E470001CF46330710594F0C90164E670E00F94F8
:10E480002EFE605D7F4F6093C6008091C00086FFC6
:10E49000FCCF8091C00080648093C0002B30310598
:10E4A00014F43297B4F0C90164E670E00F942EFEC4
:10E4B0006AE070E00F942EFE605D7F4F6093C600AF
:10E4C0008091C00086FFFCCF8091C0008064809363
:10E4D000C000C9016AE070E00F942EFEC0968093E0
:10E4E000C6008091C00086FFFCCF8091C000806490
:10E4F0008093C00008951F93182F8EE692EE60E07F
:10E500000F94C2F11093C6008091C00086FFFCCF2B
:10E510008091C00080648093C0000F94DCF11F9153
:10E5200008952F923F924F925F926F927F928F92B7
:10E530009F92AF92BF92CF92DF92EF92FF920F9392
:10E540001F93DF93CF93CDB7DEB762970FB6F894E2
:10E55000DEBF0FBECDBF382E622ECA01DB015C01CB
:10E560006D01772420E2222E2E010894411C511CBB
:10E570008BC081E0A81680E0B80681E0C80680E084
:10E58000D80628F0C601AA27BB270F940DF2BB2797
:10E59000AD2D9C2D8B2D0F940DF28A2D0F940DF225
:10E5A0002092C6008091C00086FFFCCF8091C00001
:10E5B00080648093C0009DE29093C6008091C0006B
:10E5C00086FFFCCF8091C00080648093C0002092C1
:10E5D000C6008091C00086FFFCCF8091C00080649F
:10E5E0008093C00019828601750188249924A1E0D6
:10E5F0003A1651F03A1620F0B2E03B1661F409C029
:10E600000BBFF701779007C0C7010F9477FE782EF4
:10E6100002C0F7017080872D0F940DF22092C60082
:10E620008091C00086FFFCCF8091C0008064809301
:10E63000C000872D8052F401EF70F0708F3520F408
:10E64000E40DF51D708204C0E40DF51D8EE280839B
:10E650000894E11CF11C011D111D0894811C911CE2
:10E6600090E18916910409F0C2CF80E190E0A0E02A
:10E67000B0E0A80EB91ECA1EDB1E198AC2010F9493
:10E68000FAF10F94DCF16A94662009F072CF629679
:10E690000FB6F894DEBF0FBECDBFCF91DF911F91B3
:10E6A0000F91FF90EF90DF90CF90BF90AF909F9031
:10E6B0008F907F906F905F904F903F902F90089534
:10E6C0002F923F924F925F926F927F928F929F9282
:10E6D000AF92BF92CF92DF92EF92FF920F931F9370
:10E6E000DF93CF93CDB7DEB7CD53D1400FB6F894BB
:10E6F000DEBF0FBECDBF01E20EBF0FEF0DBF94B75F
:10E70000F894A89514BE80916000886180936000A1
:10E7100010926000789493FF05C0E0910002F091A0
:10E7200001021995279A2F9A8091C00082608093E8
:10E73000C00080E18093C40088E18093C1000000A4
:10E74000EE24FF24870144E0A42EB12CCC24DD2448
:10E7500024C0C5010197F1F70894E11CF11C011DCB
:10E76000111D21E2E2162EE4F20620E0020720E06D
:10E77000120718F031E0C32ED12CC801B70127ECE5
:10E780003BE140E050E00F9441FE611571058105C9
:10E79000910519F485B1805885B98091C00087FD35
:10E7A00003C0C114D104A9F2A6014F5F5F4FC25E3E
:10E7B000DE4F59834883CE51D140C25EDE4F8881FF
:10E7C0009981CE51D140019711F00D9410FEC05D9A
:10E7D000DE4F19821882C053D14060E0C15DDE4F28
:10E7E0001882CF52D14088249924C35DDE4F19820C
:10E7F0001882CD52D140C05EDE4F188219821A8233
:10E800001B82C052D140CE5CDE4F188219821A8220
:10E810001B82C253D140EE24FF2487010BBFF701B6
:10E8200007911691C45CDE4F19830883CC53D14005
:10E830000D940BFEC25EDE4F28813981CE51D1404E
:10E840002130310509F52091C600C25EDE4F1982E4
:10E850001882CE51D14022C02F5F3F4F4F4F5F4FA4
:10E86000213082E138078AE7480780E0580780F0C6
:10E87000C45CDE4FE881F981CC53D140EF5FFF4F9C
:10E8800019F0EE27FF27099420E030E040E050E047
:10E890008091C00087FFE0CF2091C600C35DDE4FAE
:10E8A00048815981CD52D1404F5F5F4FC35DDE4FEC
:10E8B00059834883CD52D140213209F063C64A3092
:10E8C000510508F05FC60894811C911C53E0851621
:10E8D000910409F059C600E010E018C081E280936D
:10E8E000C6008091C00086FFFCCF8091C00080648C
:10E8F0008093C0002F5F3F4F2931310579F70F9486
:10E90000DCF10F5F1F4F0530110519F020E030E0FA
:10E91000E5CF10920A0210920B0210920C02109294
:10E920000D02109206021092070210920802109235
:10E930000902109202021092030210920402109235
:10E9400005028FEE90EE60E00F94F5F180E191EE1C
:10E9500060E00F94C2F18091C00087FFFCCF9091DE
:10E96000C600903608F09F759032B8F09093C600BC
:10E970008091C00086FFFCCF8091C00080648093AE
:10E98000C000A0E2A093C6008091C00086FFFCCF2B
:10E990008091C00080648093C000983409F4D7C18E
:10E9A0009934B8F4923409F459C1933458F490333B
:10E9B00019F1903308F4E3C59F33A1F1903409F0C5
:10E9C000DEC5BDC0953409F470C1963409F0D7C5D1
:10E9D00098C1923509F42BC2933538F49C3409F46C
:10E9E000F5C1913509F0CBC518C2963509F445C279
:10E9F000993509F0C4C567C483E792EE62E00F94CD
:10EA0000F5F110920602109207021092080210927D
:10EA1000090210920A0210920B0210920C0210923C
:10EA20000D0213C18FE792EE62E00F94F5F18FEEC5
:10EA300090EE60E00F94F5F181E291EE60E00F94CA
:10EA4000C2F187EB91EE60E00F94F5F180E391EE77
:10EA500060E00F94C2F184EE90EE60E00F94F5F167
:10EA60008FE391EE60E00F94C2F186E090E061E008
:10EA700070E00F9434F20F94DCF18DE591EE60E0DC
:10EA80000F94C2F189EC91EE60E00F94F5F18EE401
:10EA900091EE60E00F94C2F183EC91EE60E00F9490
:10EAA000F5F18CE691EE60E00F94C2F18EE10F94E7
:10EAB0000DF288E90F940DF281E00F940DF20F949E
:10EAC000DCF18BE791EE60E00F94C2F119E0E0E039
:10EAD000F0E010935700E4918E2F0F940DF20F94F5
:10EAE000DCF18AE891EE60E00F94C2F1E3E0F0E03F
:10EAF00010935700E4918E2F0F940DF20F94DCF1D8
:10EB000089E991EE60E00F94C2F1E2E0F0E0109349
:10EB10005700E4918E2F0F940DF20F94DCF188EAE8
:10EB200091EE60E00F94C2F1E1E0F0E01093570045
:10EB30001491812F0F940DF20F94DCF107CF8BE825
:10EB400092EE62E00F94F5F18BE492EE60E00F94A8
:10EB5000F5F10F94DCF100E010E019C0C8016F2D51
:10EB60000F947FFEFF2031F489E492EE60E00F9471
:10EB7000C2F10BC0F092C6008091C00086FFFCCFAE
:10EB80008091C00080648093C0000F5F1F4FC80158
:10EB900081519F41A0E0B0E0ABBFFC01F790BAE229
:10EBA000FB1621F0E2E000301E07C1F60F94DCF105
:10EBB0000F94DCF187E592EE60E00F94F5F10F948D
:10EBC000DCF1CC24DD2400E010E01EC0C8010F946D
:10EBD00077FEF82E882331F489E492EE60E00F94FA
:10EBE000C2F10BC08093C6008091C00086FFFCCFAD
:10EBF0008091C00080648093C000FE1419F00894D6
:10EC0000C11CD11C0F5F1F4FC80181519F41A0E063
:10EC1000B0E0ABBFFC01E790FAE2EF1621F022E092
:10EC20000030120799F60F94DCF10F94DCF182E6C4
:10EC300092EE60E00F94C2F1C60161E070E00F94C3
:10EC400034F20F94DCF10F94DCF110920202109276
:10EC50000302109204021092050278CE89E992EE26
:10EC600062E00F94F5F1279A2F9A16C02F9880E052
:10EC700090E0E0EDF7E03197F1F7019684369105E9
:10EC8000C1F72F9A80E090E0E0EDF7E03197F1F7DF
:10EC9000019684369105C1F78091C00087FFE6CFC9
:10ECA0008091C00087FFFCCF64C485EA92EE62E0E9
:10ECB0000F94F5F140910202509103026091040219
:10ECC0007091050281E020E10F9491F2809102029F
:10ECD00090910302A0910402B091050280509F4FD1
:10ECE000AF4FBF4F8093020290930302A0930402A0
:10ECF000B093050280509041A040B04008F426CE69
:10ED0000A4CF83EB92EE62E00F94F5F140910602FE
:10ED100050910702609108027091090280E020E1A1
:10ED20000F9491F28091060290910702A09108023F
:10ED3000B091090280509F4FAF4FBF4F80930602A2
:10ED400090930702A0930802B0930902FFCD80ECD4
:10ED500092EE62E00F94F5F183E792EE60E00F949B
:10ED6000F5F18FE792EE60E00F94F5F18BE892EE0B
:10ED700060E00F94F5F189E992EE60E00F94F5F10F
:10ED800085EA92EE60E00F94F5F183EB92EE60E09D
:10ED90000F94F5F180EC92EE60E00F94F5F187ECC2
:10EDA00092EE60E00F94F5F188ED92EE60E00F9442
:10EDB000F5F18FED92EE60E00F94F5F18AEE92EEB0
:10EDC00060E00F94F5F183E093EEBDCD87EC92EE19
:10EDD00062E00F94F5F181E40F947BF282E40F94EA
:10EDE0007BF283E40F947BF284E40F947BF285E45E
:10EDF0000F947BF286E40F947BF287E40F947BF20E
:10EE000088E40F947BF28AE40F947BF28BE40F94F6
:10EE10007BF28CE40F947BF299CD88ED92EE62E068
:10EE20000F94F5F1772473948824992409C48FED05
:10EE300092EE62E00F94F5F140910A0250910B02BC
:10EE400060910C0270910D0282E020E10F9491F22A
:10EE500080910A0290910B02A0910C02B0910D02D8
:10EE600080509F4FAF4FBF4F80930A0290930B0289
:10EE7000A0930C02B0930D0269CD8AEE92EE62E08F
:10EE80000F94F5F184EE90EE60E00F94F5F18FECC5
:10EE900091EE60E00F94F5F1662477244301CC5D98
:10EEA000DE4F19821882C452D140D401C301B695F5
:10EEB000A79597958795CA5DDE4F88839983AA8326
:10EEC000BB83C652D140CC5DDE4FA881B981C4520C
:10EED000D1401196CC5DDE4FB983A883C452D14096
:10EEE000CD0162E070E00F9434F2B0E2B093C6005E
:10EEF0008091C00086FFFCCF8091C0008064809329
:10EF0000C000EDE2E093C6008091C00086FFFCCF18
:10EF10008091C00080648093C000F0E2F093C6004E
:10EF20008091C00086FFFCCF8091C00080648093F8
:10EF3000C000CA5DDE4FE880F9800A811B81C6529D
:10EF4000D140BB27A12F902F8F2D0F940DF2CA5DBA
:10EF5000DE4F8881C652D1400F940DF2B0E2FB2EF5
:10EF6000F092C6008091C00086FFFCCF8091C00067
:10EF700080648093C0000DE30093C6008091C000C0
:10EF800086FFFCCF8091C00080648093C00010E2B7
:10EF90001093C6008091C00086FFFCCF8091C00016
:10EFA00080648093C0008BBEF3012791C65DDE4F65
:10EFB0002883CA52D140A22EBB24CC24DD2408943D
:10EFC000611C711C811C911C8BBEF3018791282E42
:10EFD0003324442455240894611C711C811C911C09
:10EFE0008BBEF3013791C55DDE4F3883CB52D140E4
:10EFF0000894611C711C811C911C8BBEF30147910C
:10F00000C45DDE4F4883CC52D140ADEFEA2EAFEF66
:10F01000FA2EAFEF0A2FAFEF1A2F6E0C7F1C801E57
:10F02000911E142D032DF22CEE24EA0CFB1C0C1D5A
:10F030001D1D0F940DF220E22093C6008091C000A8
:10F0400086FFFCCF8091C00080648093C000C65DC5
:10F05000DE4F8881CA52D1400F940DF230E23093D6
:10F06000C6008091C00086FFFCCF8091C000806404
:10F070008093C000C45DDE4F8881CC52D1400F9494
:10F080000DF240E24093C6008091C00086FFFCCFA5
:10F090008091C00080648093C000C55DDE4F888190
:10F0A000CB52D1400F940DF250E25093C6008091A4
:10F0B000C00086FFFCCF8091C00080648093C000B8
:10F0C0008FEFE8168FEFF80680E0080780E018075A
:10F0D00031F484E092EE60E00F94C2F1DFC0D80119
:10F0E000C7018070907CA070B0708050904CA040A0
:10F0F000B040D1F52FEF3FE340E050E0E222F322B1
:10F1000004231523CA5DDE4FA880B980CA80DB8046
:10F11000C652D140AE0CBF1CC01ED11EAA0CBB1CD7
:10F12000CC1CDD1C8EE092EE60E00F94C2F1BB2798
:10F13000A12F902F8F2D0F940DF28E2D0F940DF285
:10F1400030E23093C6008091C00086FFFCCF8091F2
:10F15000C00080648093C0004EE34093C60080915D
:10F16000C00086FFFCCF87C08EE09EEFA0E0B0E03D
:10F17000E822F9220A231B239CE0E91694E9F90608
:10F1800090E0090790E0190709F088C0C45DDE4FE0
:10F19000A881CC52D140EA2EFF2400E010E0102FCD
:10F1A0000F2DFE2CEE24C55DDE4FB881CB52D14031
:10F1B000EB0EF11C011D111DD601C501817090706F
:10F1C000A070B070DC0199278827E80EF91E0A1F8D
:10F1D0001B1F20EF30E040E050E0A222B322C42207
:10F1E000D52241E1AA0CBB1CCC1CDD1C4A95D1F7F1
:10F1F000EA0CFB1C0C1D1D1D81E090E0A0E0B0E0BE
:10F20000282239224A225B2235E1220C331C441C7D
:10F21000551C3A95D1F7E20CF31C041D151D57013E
:10F220006801AA0CBB1CCC1CDD1C85E192EE60E0E1
:10F230000F94C2F1C801AA27BB270F940DF2BB2778
:10F24000A12F902F8F2D0F940DF28E2D0F940DF274
:10F2500090E29093C6008091C00086FFFCCF809121
:10F26000C00080648093C000AEE3A093C60080918C
:10F27000C00086FFFCCF8091C00080648093C000F6
:10F28000C601AA27BB270F940DF2BB27AD2D9C2DDD
:10F290008B2D0F940DF28A2D0F940DF20F94DCF14B
:10F2A000CC5DDE4FE881F981C452D140F99709F471
:10F2B0004DCBF4E0EF2EF12C012D112D6E0C7F1CA7
:10F2C000801E911EF2CD83E093EE62E00F94F5F183
:10F2D0008AE192EE60E00F94C2F18091C00087FF56
:10F2E000FCCF1091C6001F751093C6008091C0001E
:10F2F00086FFFCCF8091C00080648093C0000F9493
:10F30000DCF1812F81548A3108F036C1163409F4BA
:10F3100095C0173490F4133409F44EC0143430F40B
:10F320001134F1F0123409F01DC130C0143409F465
:10F3300059C0153409F016C16BC01A3409F4C4C0A1
:10F340001B3438F4173409F48FC0183409F00AC19B
:10F35000A1C01B3409F4D2C01C3409F003C1E8C0B9
:10F360008FEF81B90DC082B1809582B980E090E0C5
:10F37000E0EDF7E03197F1F70196883C9105C1F790
:10F380008091C00087FFEFCF12B8EFC08FEF84B934
:10F390000DC085B1809585B980E090E0E0EDF7E0A3
:10F3A0003197F1F70196883C9105C1F78091C00033
:10F3B00087FFEFCF15B8D9C08FEF87B90DC088B1DF
:10F3C000809588B980E090E0E0EDF7E03197F1F7C3
:10F3D0000196883C9105C1F78091C00087FFEFCF6F
:10F3E00018B8C3C08FEF8AB90DC08BB180958BB9A7
:10F3F00080E090E0E0EDF7E03197F1F70196883C8E
:10F400009105C1F78091C00087FFEFCF1BB8ADC059
:10F410008FEF8DB90DC08EB180958EB980E090E0F0
:10F42000E0EDF7E03197F1F70196883C9105C1F7DF
:10F430008091C00087FFEFCF1EB897C08FEF80BBD1
:10F440000DC081B3809581BB80E090E0E0EDF7E0F6
:10F450003197F1F70196883C9105C1F78091C00082
:10F4600087FFEFCF11BA81C08FEF83BB0DC084B38C
:10F47000809584BB80E090E0E0EDF7E03197F1F714
:10F480000196883C9105C1F78091C00087FFEFCFBE
:10F4900014BA6BC08FEF809301010FC080910201FD
:10F4A00080958093020180E090E0E0EDF7E03197F5
:10F4B000F1F70196883C9105C1F78091C00087FF64
:10F4C000EDCF1092020151C08FEF809304010FC065
:10F4D0008091050180958093050180E090E0E0ED4A
:10F4E000F7E03197F1F70196883C9105C1F78091DB
:10F4F000C00087FFEDCF1092050137C08FEF8093DA
:10F5000007010FC08091080180958093080180E079
:10F5100090E0E0EDF7E03197F1F70196883C910536
:10F52000C1F78091C00087FFEDCF109208011DC088
:10F530008FEF80930A010FC080910B01809580931B
:10F540000B0180E090E0E0EDF7E03197F1F70196F4
:10F55000883C9105C1F78091C00087FFEDCF1092E4
:10F560000B0103C085E292EEEEC98091C00087FFD7
:10F57000FCCF8091C600EAC988E392EEE4C98CE131
:10F5800091EEE1C988249924933011F1943028F444
:10F59000913089F09230B8F408C0953061F195301F
:10F5A000F0F0963009F048C043C02B3109F042C951
:10F5B00091E06BE13FC96227C15DDE4F2883CF52E6
:10F5C000D14092E037C9B22FA0E0622793E032C960
:10F5D000822F90E0A82BB92B622794E02BC92E3004
:10F5E00009F039C3622795E0C05DDE4F19821882A9
:10F5F000C053D1401FC9E1E0F0E0EC0FFD1FC05D3A
:10F60000DE4F08811981C053D140E00FF11F2083E4
:10F610000F5F1F4FC05DDE4F19830883C053D14079
:10F6200062270A171B0709F005C9D80196E002C92D
:10F63000261709F010C303C0973009F0FBC87724E0
:10F640009981933109F412C19431C8F4963009F4C8
:10F65000D8C0973050F4923009F406C1933009F4C1
:10F660006DC0913009F059C253C0913109F477C08F
:10F67000923108F0BBC0903109F04FC2F5C098310B
:10F6800009F487C0993150F4953109F4EFC09531F0
:10F6900008F4C6C1963109F040C2C2C19A3109F4DA
:10F6A0006CC09A3108F491C09B3109F45BC09D3164
:10F6B00009F033C29D81903359F48F81882311F46E
:10F6C0009EE11CC0813011F091E018C098E916C08D
:10F6D000892F807591F0903539F4E0E0F0E089E011
:10F6E0008093570094910AC0983539F4E3E0F0E034
:10F6F00089E080935700949101C090E01A821B82A8
:10F700008D818C831D829E831F8227E030E009C299
:10F710001A8288E08B8381E48C8386E58D8382E581
:10F720008E8389E48F8383E5888780E589878FE5E9
:10F730008A8782E38B872BE030E0F3C18A818139AD
:10F7400041F0823941F0803911F48FE005C080E04A
:10F7500003C082E001C08AE01A828B8344C0772410
:10F76000739482C08D81882311F48EE12CC0813086
:10F7700011F081E028C088E926C01A82E1E0F0E0BB
:10F7800089E08093570084918B831C8224E030E0D1
:10F79000C8C18B81803589F48C81883039F4E2E0EE
:10F7A000F0E089E08093570084910DC0E0E0F0E044
:10F7B00089E080935700849106C0E3E0F0E089E09F
:10F7C0008093570084911A82DFCF8D81836C99E0FA
:10F7D000E1E0F0E0082E90935700E89507B600FCB2
:10F7E000FDCF1A821B8223E030E09BC180EC8A832C
:10F7F000CE5CDE4F188219821A821B82C253D1401E
:10F800008EC18A8190E0A0E0B0E0582F44273327D2
:10F8100022278B8190E0A0E0B0E0DC0199278827C7
:10F82000282B392B4A2B5B2B8D8190E0A0E0B0E098
:10F83000282B392B4A2B5B2B8C8190E0A0E0B0E089
:10F84000BA2FA92F982F8827282B392B4A2B5B2BCF
:10F85000220F331F441F551FC05EDE4F288339839C
:10F860004A835B83C052D1401A8259C13A81C95C34
:10F87000DE4F3883C753D140CA5CDE4F1882C6536F
:10F88000D1408B81C82EDD24CA5CDE4F488159816E
:10F89000C653D140C42AD52A933109F082C0CE5C28
:10F8A000DE4F88819981AA81BB81C253D1408050AB
:10F8B000904CA340B04030F583E0CE5CDE4FE88052
:10F8C000F9800A811B81C253D140F70100935B008C
:10F8D00080935700E89507B600FCFDCFCE5CDE4F65
:10F8E000088119812A813B81C253D14000501F4FAA
:10F8F0002F4F3F4FCE5CDE4F088319832A833B8313
:10F90000C253D140C05EDE4F488159816A817B81FC
:10F91000C052D140DE011B9631E08C9111962C91A2
:10F9200011971296C75CDE4F2883C953D140C85C3B
:10F93000DE4F1882C853D14090E0C85CDE4FE881AA
:10F94000F981C853D1408E2B9F2B0C01FA01609393
:10F950005B0030935700E89511244E5F5F4F6F4F67
:10F960007F4F0EEFE02E0FEFF02ECE0CDF1CC114F8
:10F97000D10499F685E0C05EDE4F088119812A81A5
:10F980003B81C052D140F80120935B008093570027
:10F99000E89507B600FCFDCF81E180935700E8951C
:10F9A00035C0C05EDE4F88819981AA81BB81C0527B
:10F9B000D140B695A795979587957C018601ABE0D8
:10F9C000AA2EB12CAC0EBD1E0BC0D5016D915D01F0
:10F9D000C7010F947FFE0894E11CF11C01501040F8
:10F9E0000115110591F7A60160E070E0440F551F65
:10F9F000661F771FC05EDE4FE880F9800A811B8199
:10FA0000C052D1404E0D5F1D601F711F1A82C05E33
:10FA1000DE4F488359836A837B83C052D1407FC0C5
:10FA2000FA80C55CDE4FF882CB53D140C65CDE4F16
:10FA30001882CA53D1408B81C82EDD24C65CDE4FAC
:10FA400008811981CA53D140C02AD12A1A828981DA
:10FA5000BE016D5F7F4F843121F59601C05EDE4FA0
:10FA6000E880F9800A811B81C052D1400BBFF701A9
:10FA700087919691DB018C9311969C936E5F7F4FDB
:10FA8000D801C7010296A11DB11DC05EDE4F88835B
:10FA90009983AA83BB83C052D14022503040F1F6F3
:10FAA00036C0C05EDE4F288139814A815B81C052F9
:10FAB000D1400894C108D108760100E010E0089414
:10FAC000C11CD11C0894E11CF11C011D111DE20E8A
:10FAD000F31E041F151F21BDBB27A52F942F832FB5
:10FAE00082BD2F5F3F4F4F4F5F4FF89A80B5DB01CC
:10FAF0008D93BD012E153F054007510761F7C05E8C
:10FB0000DE4F288339834A835B83C052D1409601FC
:10FB10002D5F3F4FFB01108204C080EC8A8322E0FE
:10FB200030E08BE18093C6008091C00086FFFCCF5F
:10FB30008091C00080648093C000C15DDE4FF88179
:10FB4000CF52D140F093C6008091C00086FFFCCF19
:10FB50008091C00080648093C000432F3093C60022
:10FB60008091C00086FFFCCF8091C00080648093AC
:10FB7000C000922F2093C6008091C00086FFFCCF6A
:10FB80008091C00080648093C0008EE08093C600A6
:10FB90008091C00086FFFCCF8091C000806480937C
:10FBA000C00065E1C15DDE4FE880CF52D1406E25D7
:10FBB00069276427FE01319610C090819093C6009A
:10FBC0008091C00086FFFCCF31968091C000806498
:10FBD0008093C0006927215030402115310569F715
:10FBE0006093C6008091C00086FFFCCF8091C0006A
:10FBF00080648093C00085B1805885B9772081F4F6
:10FC0000C15DDE4F0881CF52D1400F5FC15DDE4F35
:10FC10000883CF52D14090E0A0E0B0E00D941AF4F8
:10FC200027982F9880E090E020ED37E0F901319798
:10FC3000F1F7019684369105C9F700008091C00064
:10FC40008D7F8093C00081E180935700E895EE2777
:10FC5000FF270994FFCF90E00D941AF497FB092E2B
:10FC600007260AD077FD04D02ED006D000201AF443
:10FC7000709561957F4F0895F6F7909581959F4F08
:10FC80000895A1E21A2EAA1BBB1BFD010DC0AA1FDD
:10FC9000BB1FEE1FFF1FA217B307E407F50720F0F5
:10FCA000A21BB30BE40BF50B661F771F881F991F70
:10FCB0001A9469F760957095809590959B01AC01B9
:10FCC000BD01CF010895AA1BBB1B51E107C0AA1FAC
:10FCD000BB1FA617B70710F0A61BB70B881F991FED
:10FCE0005A95A9F780959095BC01CD010895F99991
:10FCF000FECF92BD81BDF89A992780B50895262F31
:10FD0000F999FECF1FBA92BD81BD20BD0FB6F89400
:0EFD1000FA9AF99A0FBE01960895F894FFCF63
:00000001FF
