:020000040000FA
:100000000C9458000C9480000C9480000C94800098
:100010000C9480000C9480000C9480000C94800060
:100020000C9480000C9480000C9480000C94800050
:100030000C9480000C9480000C9480000C94800040
:100040000C94E0030C9480000C94AE030C94880391
:100050000C9480000C9480000C9480000C94800020
:100060000C942A040C948000000000002500280055
:100070002B00040404040404040402020202020229
:10008000030303030303010204081020408001025C
:1000900004081020010204081020000000080002DB
:1000A00001000003040700000000000000004905F3
:1000B00011241FBECFEFD8E0DEBFCDBF11E0A0E01E
:1000C000B1E0E2E2FFE002C005900D92A63CB1076C
:1000D000D9F723E0A6ECB1E001C01D92A233B2072C
:1000E000E1F710E0C8E5D0E004C02197FE010E94CE
:1000F0008907C735D107C9F70E9482050C948F077D
:100100000C94000008950895AF92BF92CF92DF92B1
:10011000EF92FF920F931F93CF93DF936C017B01BC
:100120008B01040F151FEB015E01AE18BF08C0174D
:10013000D10759F06991D601ED91FC910190F081C0
:10014000E02DC6010995892B79F7C501DF91CF9183
:100150001F910F91FF90EF90DF90CF90BF90AF90E5
:100160000895FC01538D448D252F30E0842F90E0BD
:10017000821B930B541710F0CF96089501970895A2
:10018000FC01918D828D981761F0A28DAE0FBF2F6B
:10019000B11D5D968C91928D9F5F9F73928F90E0C1
:1001A00008958FEF9FEF0895FC01918D828D981730
:1001B00031F0828DE80FF11D858D90E008958FEF6D
:1001C0009FEF0895FC01918D228D892F90E0805C36
:1001D0009F4F821B91098F739927089589E892E0B8
:1001E0000E94E20021E0892B09F420E0822F08958B
:1001F00080E090E0892B29F00E94EE0081110C94A0
:1002000000000895FC01A48DA80FB92FB11DA35AB9
:10021000BF4F2C91848D90E001968F739927848F26
:10022000A689B7892C93A089B1898C918370806449
:100230008C93938D848D981306C00288F389E02DEA
:1002400080818F7D80830895EF92FF920F931F939B
:10025000CF93DF93EC0181E0888F9B8D8C8D981379
:100260001AC0E889F989808185FF15C09FB7F89485
:10027000EE89FF896083E889F989808183708064D1
:1002800080839FBF81E090E0DF91CF911F910F911C
:10029000FF90EF900895F62E0B8D10E00F5F1F4F2B
:1002A0000F731127E02E8C8D8E110CC00FB607FC3A
:1002B000FACFE889F989808185FFF5CFCE010E94C8
:1002C0000201F1CFEB8DEC0FFD2FF11DE35AFF4F33
:1002D000F0829FB7F8940B8FEA89FB898081806256
:1002E000CFCFCF93DF93EC01888D8823B9F0AA8913
:1002F000BB89E889F9898C9185FD03C0808186FDE1
:100300000DC00FB607FCF7CF8C9185FFF2CF80812F
:1003100085FFEDCFCE010E940201E9CFDF91CF91A1
:10032000089590E0FC01E656FF4F2491FC01EA5746
:10033000FF4F3491FC01EE58FF4FE491EE23C9F0DA
:10034000222339F0233001F1A8F4213019F12230B1
:1003500029F1F0E0EE0FFF1FE859FF4FA591B4918E
:100360008FB7F894EC91611126C030953E233C93F1
:100370008FBF08952730A9F02830C9F0243049F7FD
:10038000809180008F7D03C0809180008F77809363
:100390008000DFCF84B58F7784BDDBCF84B58F7DC0
:1003A000FBCF8091B0008F778093B000D2CF809147
:1003B000B0008F7DF9CF3E2BDACF3FB7F894809114
:1003C0002F0290913002A0913102B091320226B5F5
:1003D000A89B05C02F3F19F00196A11DB11D3FBF7D
:1003E000BA2FA92F982F8827BC01CD01620F711D4C
:1003F000811D911D42E0660F771F881F991F4A9546
:10040000D1F7089520910702260F3327331F213299
:100410003105ECF420915F02FC0190E080E0243093
:1004200069F082E00895A09107022191AC01495141
:100430005E4FA40FB52FB11D2C930196861798F32C
:1004400080910702680F6093070280E0089581E0C1
:10045000089510925F0281E080935E02109239024B
:1004600061E082E10E94910161E083E10E949101DB
:10047000E9EBF0E080818E7F808380818D7F8083B7
:1004800088E48093B80085E48093BC000895CF93FE
:10049000DF9391E09093E6018823B9F0C091B80012
:1004A000D091BA008091BC008A7B8093BC0060E050
:1004B00082E10E94910160E083E10E9491010E942B
:1004C0002902D093BA00C093B800DF91CF9108956C
:1004D0000895E091380280913702E81730F4F0E097
:1004E000EA53FE4F808190E008958FEF9FEF0895CB
:1004F00090913802809137022FEF3FEF981748F420
:10050000E92FF0E0EA53FE4F208130E09F5F9093A7
:100510003802C90108958091370290913802891BF1
:10052000990B0895CF92DF92EF92FF920F931F9352
:10053000CF93DF937C01CB018A01209165022223B6
:1005400089F0EB016B01C40ED51ECC15DD0569F0F9
:100550006991D701ED91FC910190F081E02DC701E7
:100560000995F3CF642F0E940202C801DF91CF9159
:100570001F910F91FF90EF90DF90CF900895CF9350
:10058000DF931F92CDB7DEB76983209165022223E6
:10059000F9F020918802203258F021E030E0FC018F
:1005A0003383228390E080E00F90DF91CF91089514
:1005B00080916602E82FF0E0E959FD4F9981908320
:1005C0008F5F809366028093880281E090E0ECCF99
:1005D00061E0CE0101960E940202F7CF90E080E038
:1005E0000895FC0101900020E9F73197AF01481B05
:1005F000590BBC0189E892E00C9484008F929F9281
:10060000AF92BF920F931F93CF93DF93CDB7DEB717
:10061000A1970FB6F894DEBF0FBECDBF19A242302E
:1006200008F44AE08E010F5D1F4F842E912CB12CEF
:10063000A12CA50194010E946707E62FB901CA0108
:10064000EA30F4F4E05DD801EE938D01232B242BE6
:10065000252B79F790E080E0109719F0CD010E94EA
:10066000F102A1960FB6F894DEBF0FBECDBFDF91A9
:10067000CF911F910F91BF90AF909F908F90089551
:10068000E95CE1CFCF93DF930E94F102EC0184E2B9
:1006900091E00E94F1028C0F9D1FDF91CF91089590
:1006A00085ED8093BC008091610290916202A091DF
:1006B0006302B09164020796A11DB11D23E0B695B7
:1006C000A795979587952A95D1F72091BC0024FD91
:1006D00003C010925F02089540916102509162023E
:1006E0006091630270916402452B462B472B69F39E
:1006F0000097A105B10541F02AE22A95F1F700C063
:100700000197A109B109E1CF809160020C944702E1
:100710001F920F920FB60F9211242F933F934F9376
:100720005F936F937F938F939F93AF93BF93EF9359
:10073000FF9389E892E00E940201FF91EF91BF913F
:10074000AF919F918F917F916F915F914F913F9169
:100750002F910F900FBE0F901F9018951F920F9220
:100760000FB60F9211242F938F939F93EF93FF93C4
:10077000E0919902F0919A028081E0919F02F091BC
:10078000A00282FD1BC090818091A2028F5F8F73B7
:100790002091A302821741F0E091A202F0E0E75716
:1007A000FD4F958F8093A202FF91EF919F918F91C2
:1007B0002F910F900FBE0F901F9018958081F4CF4E
:1007C0001F920F920FB60F9211242F933F938F9386
:1007D0009F93AF93BF9380912B0290912C02A09195
:1007E0002D02B0912E0230912A0223E0230F2D37E3
:1007F00058F50196A11DB11D20932A0280932B026A
:1008000090932C02A0932D02B0932E0280912F0280
:1008100090913002A0913102B09132020196A11D57
:10082000B11D80932F0290933002A0933102B093B8
:100830003202BF91AF919F918F913F912F910F9075
:100840000FBE0F901F90189526E8230F0296A11D4A
:10085000B11DD2CF1F920F920FB60F9211242F937A
:100860003F934F935F936F937F938F939F93AF9338
:10087000BF93EF93FF938091B900887F803609F48E
:100880004AC0F0F5883209F4A7C018F5803109F4A0
:100890009BC0B8F4882309F4F9C0883009F494C0E7
:1008A000FF91EF91BF91AF919F918F917F916F9148
:1008B0005F914F913F912F910F900FBE0F901F901E
:1008C0001895883109F488C0803251F780935D0211
:1008D00014C0803409F49DC040F48033B9F38833E8
:1008E000F9F680935D0285ECB0C0803509F485C0CF
:1008F000883509F496C0883499F60E945003D0CF09
:10090000883909F48CC038F5883729F050F48836D6
:1009100011F0803729F683E080935F02109229025C
:1009200057C0883809F47BC0803919F0803809F045
:10093000B7CF80912902803208F071C0E09129027E
:1009400081E08E0F809329028091BB00F0E0E75F89
:10095000FD4F80833DC0803B39F0E0F4803A09F4DC
:1009600079C0883A09F09CCF84E080935F021092AE
:10097000080210920702E0913502F09136020995C3
:100980008091070281110FC081E0809307021092CD
:10099000E70109C0803C09F4A6CF883C09F4A3CF45
:1009A000883B09F07DCFE091080281E08E0F8093B3
:1009B0000802F0E0E951FE4F80818093BB009091E6
:1009C00008028091070229C080913A028093BB00FF
:1009D00085EC8093BC0064CF90915C0280915B02B7
:1009E000981758F5E0915C0281E08E0F80935C02CD
:1009F000F0E0E55CFD4F8081E9CFE0915C0281E0B1
:100A00008E0F80935C028091BB00F0E0E55CFD4FAF
:100A1000808390915C0280915B029817C8F285E810
:100A2000D8CFE0915C0281E08E0F80935C028091D0
:100A3000BB00F0E0E55CFD4F808380915E02811198
:100A40005CCF81E08093390284EA8093BC001092ED
:100A50005F0226CF85EC8093BC0010925F028091EC
:100A60002902803230F4E0912902F0E0E75FFD4F87
:100A700010826091290270E0E0913302F09134021B
:100A800089E092E00995109229020ACF10925D0246
:100A900034CFE9E8F2E01382128288EE93E0A0E01E
:100AA000B0E084839583A683B78324E031E031836B
:100AB000208325EC30E03587248724EC30E037872D
:100AC000268720EC30E0318B208B21EC30E0338B1B
:100AD000228B22EC30E0358B248B26EC30E0378BF8
:100AE000268B118E128E138E148EE6E2F3E01382A3
:100AF000128284839583A683B78386E191E09183F4
:100B000080830895789484B5826084BD84B58160C3
:100B100084BD85B5826085BD85B5816085BD8091C8
:100B20006E00816080936E00109281008091810040
:100B30008260809381008091810081608093810038
:100B4000809180008160809380008091B1008460FA
:100B50008093B1008091B00081608093B00080915B
:100B60007A00846080937A0080917A00826080931A
:100B70007A0080917A00816080937A0080917A0077
:100B8000806880937A001092C1001092380210920F
:100B9000370210926602109288020E94290282E8AF
:100BA00090E0909336028093350283E890E0909332
:100BB000340280933302E0919902F0919A0282E02C
:100BC0008083E0919502F09196021082E091970265
:100BD000F09198028FEC80831092A102E0919D0227
:100BE000F0919E0286E08083E0919B02F0919C024E
:100BF000808180618083E0919B02F0919C028081E2
:100C000088608083E0919B02F0919C0280818068E3
:100C10008083E0919B02F0919C0280818F7D808394
:100C200087E291E00E94420325EE222E35EC332E1E
:100C300040E0A42E40E0B42E52E0852E99249A94F0
:100C400084E391E00E944203C12CD12C7601C3942D
:100C5000D0E0C0E001E01C2D00936502C092870245
:100C600010926602109288020E94DD012B013C0165
:100C700080915F02811162C080925F0200935E02E8
:100C800090925D0210925C0210925B0210923A0206
:100C900090913A02812F880F892B80933A0280919C
:100CA0003902813009F0D1C0109239020E94DD0171
:100CB0002B013C0180913A028093BB00809161023C
:100CC00090916202A0916302B0916402892B8A2BF9
:100CD0008B2BA1F00E94DD01209161023091620214
:100CE000409163025091640264197509860997095D
:100CF000261737074807590708F441C08091BC0000
:100D000083FDD8CF3092BC000E94DD012B013C0155
:100D100080915F02823009F49BC080915D028F3F19
:100D200009F4B8C080915D02803209F4B5C08091A9
:100D30005D02803309F4B2C084E026C08091610274
:100D400090916202A0916302B0916402892B8A2B78
:100D50008B2B09F48DCF0E94DD012091610230912F
:100D60006202409163025091640264197509860918
:100D70009709261737074807590708F079CF809158
:100D800060020E94470285E010926602109288027B
:100D900010926502811184C082E491E00E94F10208
:100DA000103120F48CE691E00E94F10240E1C7018D
:100DB000B6010E94FE028EE691E00E944203219657
:100DC0002FEFC21AD20AE20AF20A8FE7C816D1043C
:100DD000E104F10409F03FCF87E991E0CD2B11F058
:100DE0008DEB91E00E9442030E94DD012B013C014A
:100DF00088EEC82E83E0D82EE12CF12C0E94DD0174
:100E00006419750986099709683E73408105910543
:100E1000A8F321E0C21AD108E108F10888EE480ED3
:100E200083E0581E611C711CC114D104E104F1045B
:100E300029F7A114B10409F403CF0E94EE0088231E
:100E400009F4FECE0E940000FBCE2092BC005CCFD5
:100E50008091610290916202A0916302B09164025C
:100E6000892B8A2B8B2B09F453CF0E94DD01209113
:100E700061023091620240916302509164026419F0
:100E8000750986099709261737074807590708F093
:100E90003FCF75CF80E078CF82E076CF83E074CF0C
:100EA000843009F08DCF82E791E00E94F102103189
:100EB00020F48CE691E00E94F10240E1C701B60106
:100EC0000E94FE0284E291E00E94F10279CFA1E249
:100ED0001A2EAA1BBB1BFD010DC0AA1FBB1FEE1FB4
:100EE000FF1FA217B307E407F50720F0A21BB30BFF
:100EF000E40BF50B661F771F881F991F1A9469F77B
:100F000060957095809590959B01AC01BD01CF01D6
:100F10000895EE0FFF1F0590F491E02D0994F894C9
:100F2000FFCF0000000024018400B1007101E20045
:100F3000C000D40000000000BF029202EE0268026E
:100F40008B02780269020D0A000A4932432053637A
:100F5000616E6E657200457363616E65616E646F8C
:100F60002E2E2E00446973706F73697469766F203A
:100F7000656E636F6E747261646F20656E206C6164
:100F800020646972656363696F6E20307800300099
:100F9000202021004572726F7220646573636F6E4A
:100FA0006F6369646F20656E206C6120646972658F
:100FB0006363696F6E203078004E696E67756E20CE
:100FC000646973706F73697469766F204932432066
:100FD000656E636F6E747261646F7321200A0048DE
:080FE0006563686F200A000040
:107E0000112484B714BE81FFF0D085E080938100F7
:107E100082E08093C00088E18093C10086E0809377
:107E2000C20080E18093C4008EE0C9D0259A86E02C
:107E300020E33CEF91E0309385002093840096BBD3
:107E4000B09BFECF1D9AA8958150A9F7CC24DD24C4
:107E500088248394B5E0AB2EA1E19A2EF3E0BF2EE7
:107E6000A2D0813461F49FD0082FAFD0023811F036
:107E7000013811F484E001C083E08DD089C08234E0
:107E800011F484E103C0853419F485E0A6D080C0E4
:107E9000853579F488D0E82EFF2485D0082F10E0AE
:107EA000102F00270E291F29000F111F8ED06801E7
:107EB0006FC0863521F484E090D080E0DECF843638
:107EC00009F040C070D06FD0082F6DD080E0C81688
:107ED00080E7D80618F4F601B7BEE895C0E0D1E017
:107EE00062D089930C17E1F7F0E0CF16F0E7DF06D8
:107EF00018F0F601B7BEE89568D007B600FCFDCFD4
:107F0000A601A0E0B1E02C9130E011968C91119780
:107F100090E0982F8827822B932B1296FA010C0160
:107F200087BEE89511244E5F5F4FF1E0A038BF0790
:107F300051F7F601A7BEE89507B600FCFDCF97BE46
:107F4000E89526C08437B1F42ED02DD0F82E2BD052
:107F50003CD0F601EF2C8F010F5F1F4F84911BD097
:107F6000EA94F801C1F70894C11CD11CFA94CF0C13
:107F7000D11C0EC0853739F428D08EE10CD085E9AC
:107F80000AD08FE07ACF813511F488E018D01DD067
:107F900080E101D065CF982F8091C00085FFFCCF94
:107FA0009093C60008958091C00087FFFCCF809118
:107FB000C00084FD01C0A8958091C6000895E0E648
:107FC000F0E098E1908380830895EDDF803219F02E
:107FD00088E0F5DFFFCF84E1DECF1F93182FE3DFCA
:107FE0001150E9F7F2DF1F91089580E0E8DFEE27F6
:047FF000FF270994CA
:027FFE00040479
:00000001FF
