:100000000C943E010C946F010C946F010C946F01E1
:100010000C946F010C946F010C946F010C946F01A0
:100020000C946F010C946F010C946F010C946F0190
:100030000C946F010C946F010C946F010C946F0180
:100040000C946F010C9445080C946F010C946F0193
:100050000C946F010C946F010C946F010C94710758
:100060000C946F010C943B070C9411070C946F01D6
:100070000C946F010C946F010C946F010C946F0140
:100080000C9417080C946F010C946F010C946F0181
:100090000C946F010C946F010C946F010C946F0120
:1000A0000C946F010C946F010C94E9070C946F0190
:1000B0000C946F010C946F010C946F010C94BB07AE
:1000C0000C946F010C946F010C946F010C946F01F0
:1000D0000C946F010C946F010C94DB060C94B10628
:1000E0000C946F010C94DD010C94FF010C9422031D
:1000F0000C9430030C94F9020C94F1010C943A0323
:100100000C9439030C9441020C9401090C94C7031C
:100110000C94FF020C9434030C94CE010C942C0329
:100120000C940B030C94C6030C9418030C941E033C
:100130000C9403030C94200C0C941D060C940E03D9
:100140000C9426030C9407030C9498010C948E02D3
:100150000C943E030C94140300002000230026009E
:1001600029002C002F0032000001000003010601CD
:10017000090100002100240027002A002D00300082
:10018000330001010000040107010A010000220000
:10019000250028002B002E00310034000201000051
:1001A000050108010B0105050505070508080808F4
:1001B000020202020A0A08080404040401010101FF
:1001C00001010101030303030303030304070707FA
:1001D0000C0C0C0C0C0C0C0C02020202060606069F
:1001E000060606060B0B0B0B0B0B0B0B010210206C
:1001F000200808102040102040800201020108045D
:1002000002010102040810204080804020100804F0
:100210000201800402018040201008040201080449
:10022000020101020408102040800102040810208D
:10023000408000000A0B02090C0D0E0807030401A0
:1002400000000000000000000000000000000000AE
:10025000000000000000000000000000000012117B
:10026000100000000000000000000000000000007E
:1002700000000000000000000109200C11241FBE36
:10028000CFEFD1E2DEBFCDBF00E00CBF12E0A0E0B7
:10029000B2E0EAE1F0E200E00BBF02C007900D928D
:1002A000A03AB107D9F724E0A0EAB2E001C01D925C
:1002B000A33CB207E1F711E0CDE3D1E000E006C0D6
:1002C00021970109802FFE010E94DD0DCC33D1075B
:1002D00080E00807A9F70E94EB090C94FB0F0C942F
:1002E0000000FC01A089B18982E08C93A485B585CA
:1002F0001C92A685B7858FEC8C93108EA489B58946
:1003000086E08C93A289B3898C9180618C93A289B9
:10031000B3898C9188608C93A289B3898C91806811
:100320008C930288F389E02D80818F7D80830895EE
:10033000AF92BF92CF92DF92EF92FF920F931F93F3
:10034000CF93DF936C017B018B01040F151FEB0131
:100350005E01AE18BF08C017D10759F06991D601E8
:10036000ED91FC910190F081E02DC6011995892B4A
:1003700079F7C501DF91CF911F910F91FF90EF9019
:10038000DF90CF90BF90AF900895FC0144815581DC
:100390006081718187EA94E00C949801FC01538D8F
:1003A000448D252F30E0842F90E0821B930B54174F
:1003B00010F0CF96089501970895FC01918D828DDC
:1003C000981761F0A28DAE0FBF2FB11D5D968C9175
:1003D000928D9F5F9F73928F90E008958FEF9FEFB4
:1003E0000895FC01918D828D981731F0828DE80F70
:1003F000F11D858D90E008958FEF9FEF0895FC012A
:10040000918D228D892F90E0805C9F4F821B9109F6
:100410008F739927089585EB92E00E94FF0121E0F8
:10042000892B09F420E0822F089582E593E00E9451
:10043000FF0121E0892B09F420E0822F0895FC01BF
:10044000A48DA80FB92FB11DA35ABF4F2C91848D35
:1004500090E001968F739927848FA689B7892C9392
:10046000A089B1898C91837080648C93938D848DE5
:10047000981306C00288F389E02D80818F7D8083E8
:100480000895EF92FF920F931F93CF93DF93EC01A8
:1004900081E0888F9B8D8C8D98131AC0E889F9892B
:1004A000808185FF15C09FB7F894EE89FF8960832E
:1004B000E889F98980818370806480839FBF81E0AF
:1004C00090E0DF91CF911F910F91FF90EF900895F1
:1004D000F62E0B8D10E00F5F1F4F0F731127E02ECC
:1004E0008C8D8E110CC00FB607FCFACFE889F98904
:1004F000808185FFF5CFCE010E941F02F1CFEB8DE9
:10050000EC0FFD2FF11DE35AFF4FF0829FB7F894D7
:100510000B8FEA89FB8980818062CFCFCF93DF93F5
:10052000EC01888D8823B9F0AA89BB89E889F9890B
:100530008C9185FD03C0808186FD0DC00FB607FC40
:10054000F7CF8C9185FFF2CF808185FFEDCFCE0173
:100550000E941F02E9CFDF91CF91089580E090E0E3
:10056000892B29F00E94150281110E94000080E071
:1005700090E0892B49F080E090E0892B29F00E94DF
:10058000000081110E94000080E090E0892B49F07A
:1005900080E090E0892B29F00E94000081110E94E8
:1005A000000080E090E0892B29F00E940B0281116D
:1005B0000C94000008958150823108F05AC0E82F51
:1005C000F0E08827E951FD4F8F4F0C94DD0D0703B4
:1005D0000B03F902FF02030339030E03140318038C
:1005E0001E03220326032C033003390334033A038A
:1005F0003E03809180008F778093800008958091E2
:1006000080008F7DF9CF80918000877FF5CF84B502
:100610008F7784BD089584B58F7DFBCF8091B00026
:100620008F778093B00008958091B0008F7DF9CFCF
:10063000809190008F778093900008958091900032
:100640008F7DF9CF80919000877FF5CF8091A000BA
:100650008F778093A00008958091A0008F7DF9CFBF
:100660008091A000877FF5CF809120018F778093C4
:1006700020010895809120018F7DF9CF8091200184
:10068000877FF5CF1F93CF93DF93282F30E0F901B9
:10069000EE5CFD4F8491F901E451FE4FD491F901D4
:1006A000EA55FE4FC491CC23A9F0162F81110E9468
:1006B000DB02EC2FF0E0EE0FFF1FE457FE4FA59199
:1006C000B4918FB7F894EC91111108C0D095DE2346
:1006D000DC938FBFDF91CF911F910895DE2BF8CF70
:1006E000CF93DF9390E0FC01E451FE4F24918A55B3
:1006F0009E4FFC0184918823D1F090E0880F991FD0
:10070000FC01EE58FE4FA591B491FC01E457FE4F59
:10071000C591D49161110EC09FB7F8948C91E22FCE
:10072000E0958E238C932881E223E8839FBFDF919D
:10073000CF9108958FB7F894EC91E22BEC938FBF93
:10074000F6CF3FB7F8948091AD029091AE02A091A0
:10075000AF02B091B00226B5A89B05C02F3F19F09B
:100760000196A11DB11D3FBFBA2FA92F982F882731
:10077000BC01CD01620F711D811D911D42E0660F0C
:10078000771F881F991F4A95D1F70895089590E023
:1007900080E00895AF92BF92CF92DF92EF92FF92E6
:1007A0000F931F93CF93DF936B017A01EC01CC552C
:1007B000DD4F28813CE0389F8001399F100D1124C6
:1007C000A0907F04B12C27FF1FC0FB011182108273
:1007D00088818F5F888388819801280F311D87FD6C
:1007E0003A95F6012A153B051CF488818C30C4F13A
:1007F00080819181049680349C4908F473C0F6018D
:1008000080819181049670C088819801280F311DE4
:1008100087FD3A952A153B05DCF68881A801480F2B
:10082000511D87FD5A95FA01EE0FFF1FE40FF51FCA
:10083000E151FC4F808186FFCBCF8881F801E80F22
:10084000F11D87FDFA95CF01EE0FFF1FE80FF91F8D
:10085000E151FC4F808160E08F730E944203B8CF6A
:10086000808191812881A801420F511D27FD5A9551
:100870009A01FA01EE0FFF1FE20FF31FE151FC4F47
:1008800021813281820F931FF701918380838881B8
:100890009801280F311D87FD3A95F901EE0FFF1FD2
:1008A000E20FF31FE151FC4F808186FF22C0888157
:1008B000080F111D87FD1A95F801EE0FFF1FE00FBD
:1008C000F11FE151FC4F808161E08F73DF91CF9187
:1008D0001F910F91FF90EF90DF90CF90BF90AF905E
:1008E0000C94420380E49CE9F701918380838FEFAD
:1008F0008883DF91CF911F910F91FF90EF90DF9050
:10090000CF90BF90AF900895CF93DF93EC0160E05C
:100910008E810E94420361E08E810E94420360E06A
:100920008E810E9442038BE891E00197F1F7DF91FD
:10093000CF910895CF92DF92EF92FF920F931F9382
:10094000CF93DF936C017C0187E0E80EF11CD0E0CF
:10095000C0E0062F10E0B8010C2E02C07595679517
:100960000A94E2F76170F70181917F010E944203CE
:100970002196C430D10579F7C601DF91CF911F913F
:100980000F91FF90EF90DF90CF900C948404CF9262
:10099000DF92EF92FF920F931F93CF93DF93EC01BF
:1009A000F62E642F8C810E9442038D818F3F19F0B7
:1009B00060E00E9442030F2D10E08F8584FF25C068
:1009C0006E0187E0C80ED11CF12CE12CB8010E2C71
:1009D00002C0759567950A94E2F76170F6018191FE
:1009E0006F010E944203FFEFEF1AFF0A88E0E8164A
:1009F000F10461F7CE01DF91CF911F910F91FF902C
:100A0000EF90DF90CF900C948404B80184E075954A
:100A100067958A95E1F7CE010E949A046F2DCE0169
:100A2000DF91CF911F910F91FF90EF90DF90CF90CA
:100A30000C949A0440E0682F87EA94E00C94C70471
:100A4000CF93DF93823029F49091B604986090930D
:100A5000B6048093BA041092BB0480E48093BC0473
:100A600080E18093BD0480E58093BE0461E08091C5
:100A7000AB040E9470038091AC048F3F19F061E0D9
:100A80000E94700361E08091AD040E947003C7EA88
:100A9000D4E09E01275A34408091B60484FD0BC0F7
:100AA00084E090E021962817390744F461E08E81B4
:100AB0000E947003EECF88E090E0F4CF8BE39DE0DE
:100AC0000197F1F760E08091AB040E94420360E07F
:100AD0008091AD040E9442038091AC048F3F19F0D5
:100AE00060E00E9442038091B60484FD39C063E057
:100AF00087EA94E00E949A04CBE4D6E4CE01019701
:100B0000F1F763E087EA94E00E949A042197F1F7F5
:100B100063E087EA94E00E949A0483E592E00197FB
:100B2000F1F762E087EA94E00E949A048091B604AB
:100B300080620E941A0584E08093B7048CE00E94D2
:100B40001A0581E00E941A058BE39FE10197F1F7F6
:100B500082E08093B80486E0DF91CF910C941A056F
:100B600080620E941A058BE496E40197F1F7809168
:100B7000B60480620E941A0583E592E00197F1F7BE
:100B80008091B60480620E941A05D0CF9091BA0479
:100B9000891710F08FEF890FE82FF0E0E955FB4F30
:100BA00084898F5F80680C941A0560E082E00E945F
:100BB000420360E083E00E94420361E085E00E941E
:100BC000420380E00E94C60589E894E00E94C501C6
:100BD00081E00E94C60583E894E00E94C5010C9460
:100BE000F105CF93DF93E6E3F2E08491E0EFF1E0EB
:100BF000D491EAEAF1E0C491CC23E1F081110E94A2
:100C0000DB02EC2FF0E0EE0FFF1FE85AFE4FA5913C
:100C1000B491EC91ED2371F083E090E09093B402F5
:100C20008093B30260E089E00E944203DF91CF919C
:100C30000C94D505DF91CF91089541E00E94C7043F
:100C400081E090E00895CF93DF93FC0101900020B4
:100C5000E9F73197AF01481B590BBC0182E593E0DE
:100C60000E949801EC0142E050E064E272E082E50B
:100C700093E00E9498018C0F9D1FDF91CF91089502
:100C8000FC0180819181009711F00C94810E0895F0
:100C90000F931F9360E08CE00E9442038BE090E092
:100CA0000197F1F761E08CE00E94420383E290E05B
:100CB0000197F1F760E08CE00E944203E7EFF1E07A
:100CC0006491E1EBF1E0E491F0E0EE0FFF1FE85AF0
:100CD000FE4F8591949100E412E42FE030E0462F1E
:100CE0000E947308611571058105910529F06F5FF8
:100CF0007F4F8F4F9F4F9F700E943A0C2AE939E92E
:100D000049E652E40E94290D0E949B0D6093A002C7
:100D10007093A1028093A2029093A3020E94F10516
:100D20008091A0029091A102A091A202B091A30291
:100D30008D329140A105B1056CF487E292E00E94EA
:100D4000230681E090E09093B4028093B3021F9158
:100D50000F9108958AE392E00E94230682E090E0DA
:100D6000F2CF1F920F920FB60F9211240BB60F9273
:100D70002F933F934F935F936F937F938F939F93A3
:100D8000AF93BF93EF93FF9385EB92E00E941F0216
:100D9000FF91EF91BF91AF919F918F917F916F9153
:100DA0005F914F913F912F910F900BBE0F900FBE0F
:100DB0000F901F9018951F920F920FB60F9211244B
:100DC0000BB60F922F938F939F93EF93FF93E09126
:100DD000C502F091C6028081E091CB02F091CC0275
:100DE00082FD1DC090818091CE028F5F8F73209114
:100DF000CF02821741F0E091CE02F0E0EB54FD4FBC
:100E0000958F8093CE02FF91EF919F918F912F91BB
:100E10000F900BBE0F900FBE0F901F901895808102
:100E2000F2CF1F920F920FB60F9211240BB60F92B2
:100E30002F933F934F935F936F937F938F939F93E2
:100E4000AF93BF93EF93FF9382E593E00E941F025D
:100E5000FF91EF91BF91AF919F918F917F916F9192
:100E60005F914F913F912F910F900BBE0F900FBE4E
:100E70000F901F9018951F920F920FB60F9211248A
:100E80000BB60F922F938F939F93EF93FF93E09165
:100E90006203F09163038081E0916803F09169033C
:100EA00082FD1DC0908180916B038F5F8F732091B5
:100EB0006C03821741F0E0916B03F0E0EE5AFC4FB7
:100EC000958F80936B03FF91EF919F918F912F915D
:100ED0000F900BBE0F900FBE0F901F901895808142
:100EE000F2CF1F920F920FB60F9211242F933F93C0
:100EF0008F939F93AF93BF938091A9029091AA0281
:100F0000A091AB02B091AC023091A80223E0230F74
:100F10002D3758F50196A11DB11D2093A80280938D
:100F2000A9029093AA02A093AB02B093AC02809165
:100F3000AD029091AE02A091AF02B091B0020196C5
:100F4000A11DB11D8093AD029093AE02A093AF029C
:100F5000B093B002BF91AF919F918F913F912F912C
:100F60000F900FBE0F901F90189526E8230F029642
:100F7000A11DB11DD2CF1F920F920FB60F92112457
:100F80000BB60F922F933F934F935F936F937F9383
:100F90008F939F93AF93BF93EF93FF9348E251E0FA
:100FA00064E271E090E080E00E94CA03FF91EF915B
:100FB000BF91AF919F918F917F916F915F914F9171
:100FC0003F912F910F900BBE0F900FBE0F901F906F
:100FD00018951F920F920FB60F9211240BB60F9215
:100FE0002F933F934F935F936F937F938F939F9331
:100FF000AF93BF93EF93FF9348EA50E064EA70E049
:1010000083E090E00E94CA03FF91EF91BF91AF91FE
:101010009F918F917F916F915F914F913F912F9110
:101020000F900BBE0F900FBE0F901F9018951F9240
:101030000F920FB60F9211240BB60F922F933F937E
:101040004F935F936F937F938F939F93AF93BF93D0
:10105000EF93FF9348E950E064E970E082E090E0AC
:101060000E94CA03FF91EF91BF91AF919F918F9121
:101070007F916F915F914F913F912F910F900BBE98
:101080000F900FBE0F901F9018951F920F920FB6E2
:101090000F9211240BB60F922F933F934F935F93B0
:1010A0006F937F938F939F93AF93BF93EF93FF9330
:1010B00048E850E064E870E081E090E00E94CA03F4
:1010C000FF91EF91BF91AF919F918F917F916F9120
:1010D0005F914F913F912F910F900BBE0F900FBEDC
:1010E0000F901F901895CF92DF92EF92FF920F937F
:1010F0001F93E82FF92F05C001501109210931096B
:1011000061F1908196239417B9F305C0015011093C
:101110002109310911F1908196239413F7CFC12C45
:10112000D12CE12CF12C0AC08FEFC81AD80AE80A9A
:10113000F80A0C151D052E053F0579F080818623E0
:10114000841791F36C2D7D2D8E2D9F2D1F910F9166
:10115000FF90EF90DF90CF90089560E070E080E026
:1011600090E01F910F91FF90EF90DF90CF90089546
:10117000EF92FF920F931F93CF93DF93EC017B01CC
:10118000198218821B821A821D821C82FB01019027
:101190000020E9F731978F01061B170BB8016F5F2D
:1011A0007F4F90E080E00E940A0F0097B9F099838A
:1011B00088831B830A832C813D81232B11F4FC013E
:1011C00010821D830C83B70188819981DF91CF91B3
:1011D0001F910F91FF90EF900C94F40F88819981EB
:1011E000009711F00E94810E198218821D821C82C4
:1011F0001B821A82DF91CF911F910F91FF90EF9088
:101200000895CF931092B8021092B70248EE53E0BF
:1012100060E070E04093B9025093BA026093BB0261
:101220007093BC028AE092E09093B6028093B5027C
:1012300025E331E03093C2022093C10224E331E080
:101240003093C4022093C30220E331E03093C602FE
:101250002093C50221E331E03093C8022093C702F6
:1012600022E331E03093CA022093C90226E331E041
:101270003093CC022093CB021092CE021092CF0278
:101280001092D0021092D102109255031092540382
:101290004093560350935703609358037093590338
:1012A000909353038093520385EC90E090935F03F7
:1012B00080935E0384EC90E09093610380936003DD
:1012C00080EC90E0909363038093620381EC90E064
:1012D000909365038093640382EC90E0909367039E
:1012E0008093660386EC90E0909369038093680393
:1012F00010926B0310926C0310926D0310926E03A8
:101300001092AA041092A9048CE192E09093A80490
:101310008093A70486E18093AB04CFEFC093AC0425
:1013200087E18093AD0488E18093AE048BE18093E4
:10133000AF048DE18093B00481E28093B1041092F8
:10134000B2041092B3041092B4041092B504109237
:10135000B60481E00E9420056BE472E081EA94E02B
:101360000E94B8086CE572E08BE994E00E94B8082E
:101370006BE472E085E994E00E94B8086DE672E0E3
:101380008FE894E00E94B8086EE772E089E894E084
:101390000E94B8086FE872E083E894E00E94B80801
:1013A00080917F048033A0F491E0980F90937F04A4
:1013B0008093800490E0FC01EE0FFF1FE80FF91FFF
:1013C000E151FC4F88EB9BE092838183CF9108959C
:1013D000C0938004FBCF789484B5826084BD84B5CB
:1013E000816084BD85B5826085BD85B5816085BD20
:1013F00080916E00816080936E00109281008091D8
:10140000810082608093810080918100816080935F
:101410008100809180008160809380008091B10084
:1014200084608093B1008091B00081608093B000AF
:101430008091910082608093910080919100816001
:1014400080939100809190008160809390008091C2
:10145000A10082608093A1008091A10081608093AF
:10146000A1008091A00081608093A0008091210163
:10147000826080932101809121018160809321010C
:101480008091200181608093200180917A008460A6
:1014900080937A0080917A00826080937A008091B4
:1014A0007A00816080937A0080917A0080688093CE
:1014B0007A001092C10082E593E00E94710185EBF1
:1014C00092E00E94710161E082E00E94700361E09D
:1014D00083E00E94700361E085E00E94700361E098
:1014E00089E00E94700360E084E00E94700361E084
:1014F0008CE00E94700360E08BE00E94700382E049
:101500000E94200580E00E94C60585E994E00E94C3
:10151000C50181E00E94C6058FE894E00E94C501E4
:1015200080918004803308F051C061E08AE00E941D
:10153000700380918004282F30E0F901EE0FFF1F27
:10154000E20FF31FE151FC4F9081907C9A609083F1
:1015500010928104109282042CE0622F0E94D10D1F
:10156000829FB001112430E020E0AB01420F531FF5
:10157000FA01EE0FFF1FE40FF51FE151FC4F9081C0
:1015800096FD16C02F5F3F4F2C30310571F781302B
:10159000B9F51092800082E080938100109285005E
:1015A00010928400B19A80916F00826080936F00E6
:1015B000E09180048E2F90E0FC01EE0FFF1FE80FFA
:1015C000F91FE151FC4F808180648083AAE52A2EB7
:1015D000312C08E810E0C8E5D2E0B4EB4B2E512CDA
:1015E000612C712C8091B3029091B40281309105ED
:1015F00009F43EC08CF5892BC1F10E94AE02F2CFF6
:10160000823061F4109290008093910010929500C6
:101610001092940088BB80937100CACF833069F424
:101620001092A00082E08093A1001092A500109279
:10163000A40089BB80937200BBCF8111B9CF1092F7
:10164000200182E080932101109225011092240153
:101650008ABB80937300ACCF8230910509F4D5C06A
:10166000039759F60E94D505C8CF0E944806C5CFFA
:1016700060E082E00E94420361E083E00E94420356
:1016800060E085E00E94420380E00E94C60581EA96
:1016900094E00E94C50181E00E94C6058BE994E0B8
:1016A0000E94C5013092B2022092B102A091B10213
:1016B000B091B202B7FDA0C0A03222E0B2079CF503
:1016C000209181046801C21AD10827FDD394CC0C63
:1016D000DD1CCC0CDD1C0D2C000CEE08FF0820914D
:1016E0008204CE01821B910927FD93959C01220F54
:1016F000331F220F331F032E000C440B550B2C19E4
:101700003D094E095F09A53BB10514F0A4EBB0E01B
:101710000E94F00CA30192010E94C60CC20ED31EBF
:10172000E41EF51ED601E0918004E03388F5209197
:101730008104C801821B910927FD93959C01220F0A
:10174000331F220F331FA217B30784F020918204A6
:10175000CE01821B910927FD93959C01220F331F17
:10176000220F331FA217B3070CF49D012250310939
:10177000220F331F4FB7F8948E2F90E0FC01EE0F2D
:10178000FF1FE80FF91FE151FC4F328321834FBF48
:1017900061E089E00E9442030E94A1034B015C01C9
:1017A0008AE0C82ED12CE12CF12C0E94A1036819EB
:1017B00079098A099B09683E734081059105A8F360
:1017C00091E0C91AD108E108F10828EE820E23E061
:1017D000921EA11CB11CC114D104E104F10429F72B
:1017E0000E94F1058091B1029091B202019790930D
:1017F000B2028093B1025ACF60E089E00E944203B6
:101800000E9448060E94F105F8CE61E082E00E9445
:10181000420360E083E00E94420360E085E00E94B2
:10182000420380E00E94C60585E994E00E94C5015C
:1018300081E00E94C6058FE894E00E94C501E0CFD8
:1018400083E894E00E94400689E894E00E94400604
:101850008FE894E00E94400685E994E00E944006EB
:101860008BE994E00E94400681EA94E00C944006E3
:10187000E89409C097FB3EF490958095709561952A
:101880007F4F8F4F9F4F9923A9F0F92F96E9BB27E0
:101890009395F695879577956795B795F111F8CF5C
:1018A000FAF4BB0F11F460FF1BC06F5F7F4F8F4FC7
:1018B0009F4F16C0882311F096E911C0772321F0BD
:1018C0009EE8872F762F05C0662371F096E8862F55
:1018D00070E060E02AF09A95660F771F881FDAF7AC
:1018E000880F9695879597F9089597F99F6780E8EF
:1018F00070E060E008959FEF80EC089500240A9462
:101900001616170618060906089500240A941216DA
:101910001306140605060895092E0394000C11F40D
:10192000882352F0BB0F40F4BF2B11F460FF04C0BA
:101930006F5F7F4F8F4F9F4F089557FD9058440F13
:10194000551F59F05F3F71F04795880F97FB991F1E
:1019500061F09F3F79F087950895121613061406DB
:10196000551FF2CF4695F1DF08C016161706180668
:10197000991FF1CF86957105610508940895E89443
:10198000BB2766277727CB0197F90895052E97FB8C
:101990001EF400940E94DD0C57FD07D00E94F80C45
:1019A00007FC03D04EF40C94DD0C50954095309517
:1019B00021953F4F4F4F5F4F0895909580957095BB
:1019C00061957F4F8F4F9F4F08950E941A0DA59FDD
:1019D000900DB49F900DA49F800D911D112408952A
:1019E000B7FF0C94E50C0E94E50C821B930B089545
:1019F000A1E21A2EAA1BBB1BFD010DC0AA1FBB1F13
:101A0000EE1FFF1FA217B307E407F50720F0A21B84
:101A1000B30BE40BF50B661F771F881F991F1A94F1
:101A200069F760957095809590959B01AC01BD011B
:101A3000CF010895A29FB001B39FC001A39F700D75
:101A4000811D1124911DB29F700D811D1124911DC6
:101A500008950E943D0D0C948C0C0E94850C58F04A
:101A60000E947E0C40F029F45F3F29F00C94750C25
:101A700051110C94C00C0C947B0C0E949D0C68F3CB
:101A80009923B1F3552391F3951B550BBB27AA2737
:101A900062177307840738F09F5F5F4F220F331F71
:101AA000441FAA1FA9F335D00E2E3AF0E0E832D039
:101AB00091505040E695001CCAF72BD0FE2F29D03C
:101AC000660F771F881FBB1F261737074807AB070E
:101AD000B0E809F0BB0B802DBF01FF2793585F4F83
:101AE0003AF09E3F510578F00C94750C0C94C00CA4
:101AF0005F3FE4F3983ED4F3869577956795B79565
:101B0000F7959F5FC9F7880F911D9695879597F96F
:101B10000895E1E0660F771F881FBB1F62177307E8
:101B20008407BA0720F0621B730B840BBA0BEE1FFD
:101B300088F7E09508950E94A20D6894B1110C9465
:101B4000C00C08950E94A50C88F09F5798F0B92FFB
:101B50009927B751B0F0E1F0660F771F881F991FE2
:101B60001AF0BA95C9F714C0B13091F00E94BF0CB9
:101B7000B1E008950C94BF0C672F782F8827B85FC9
:101B800039F0B93FCCF3869577956795B395D9F73A
:101B90003EF490958095709561957F4F8F4F9F4F44
:101BA0000895991B79E004C0991F961708F0961BB9
:101BB000881F7A95C9F780950895EE0FFF1F881F3B
:101BC0008BBF0790F691E02D19940F931F93CF933D
:101BD000DF938230910510F482E090E0E091C1043F
:101BE000F091C20430E020E0B0E0A0E0309799F43A
:101BF0002115310509F44AC0281B390B2430310561
:101C0000D8F58A819B816115710589F1FB01938368
:101C10008283FE0111C040815181028113814817E6
:101C20005907E0F04817590799F4109761F0129698
:101C30000C93129713961C933296CF01DF91CF919C
:101C40001F910F9108950093C1041093C204F4CF23
:101C50002115310551F04217530738F0A901DB0176
:101C60009A01BD01DF01F801C1CFEF01F9CF9093D7
:101C7000C2048093C104CDCFFE01E20FF31F819314
:101C800091932250310939832883D7CF2091BF0403
:101C90003091C004232B41F42091020230910302C1
:101CA0003093C0042093BF042091000230910102C0
:101CB0002115310541F42DB73EB7409104025091F2
:101CC0000502241B350BE091BF04F091C004E2171C
:101CD000F307A0F42E1B3F0B2817390778F0AC014F
:101CE0004E5F5F4F2417350748F04E0F5F1F50932C
:101CF000C0044093BF04819391939FCFF0E0E0E054
:101D00009CCFCF93DF930097E9F0FC0132971382C9
:101D10001282A091C104B091C204ED0130E020E034
:101D20001097A1F420813181820F931F2091BF046D
:101D30003091C0042817390709F061C0F093C0043E
:101D4000E093BF04DF91CF910895EA01CE17DF073A
:101D5000E8F54A815B819E0141155105B1F7E90122
:101D6000FB83EA8349915991C40FD51FEC17FD07F6
:101D700061F4808191810296840F951FE901998316
:101D80008883828193819B838A83F0E0E0E01296CE
:101D90008D919C9113970097B9F52D913C911197D6
:101DA000CD010296820F931F2091BF043091C00491
:101DB0002817390739F6309751F51092C20410925E
:101DC000C104B093C004A093BF04BCCFD383C2832B
:101DD00040815181840F951FC817D90761F44E5F68
:101DE0005F4F88819981480F591F518340838A81B1
:101DF0009B81938382832115310509F0B0CFF09345
:101E0000C204E093C1049ECFFD01DC01C0CF138268
:101E10001282D7CF4F925F926F927F928F929F9252
:101E2000AF92BF92CF92DF92EF92FF920F931F93E8
:101E3000CF93DF938C01009799F4CB01DF91CF9181
:101E40001F910F91FF90EF90DF90CF90BF90AF90D8
:101E50009F908F907F906F905F904F900C94E50DC6
:101E6000FC01E60FF71F9C0122503109E217F3072E
:101E700008F4AEC0D901CD91DC911197C617D707F0
:101E800020F1C530D10578F0CE0104978617970769
:101E900050F0C61BD70B2297C193D1936D937C93BF
:101EA000CF010E94810EC801DF91CF911F910F9148
:101EB000FF90EF90DF90CF90BF90AF909F908F906A
:101EC0007F906F905F904F9008955B01AC1ABD0AB0
:101ED0004C018C0E9D1EA091C104B091C204512CE6
:101EE000412CF12CE12C109731F58091BF04909199
:101EF000C0048815990509F05CC04616570608F01D
:101F000058C08091000290910102009741F48DB772
:101F10009EB74091040250910502841B950BE8176F
:101F2000F90708F055C0F093C004E093BF04F9012D
:101F300071836083B8CF8D919C91119712966C90AC
:101F4000129713967C901397A815B90559F56C0153
:101F500042E0C40ED11CCA14DB0420F1AC014A19C2
:101F60005B09DA011296159780F0628273825183C1
:101F70004083D9016D937C93E114F10471F0D70192
:101F80001396FC93EE9312978ECF22968C0F9D1F83
:101F9000F90191838083F301EFCFF093C204E093C2
:101FA000C10481CF4816590608F42C017D01D301E4
:101FB0009ACFCB010E94E50D7C01009749F0AE015C
:101FC000B8010E94EB0FC8010E94810E87016BCF00
:101FD00010E000E068CFFB01DC0102C001900D922F
:101FE00041505040D8F70895FB01DC0101900D925B
:101FF0000020E1F7089511E0CDE3D1E000E006C054
:10200000802FFE010E94DD0D2196011DCE33D107E8
:0A20100080E00807A9F7F894FFCF5D
:10201A000000C30480000000000041029801CE01C4
:10202A008E02FF01DD01F101000000001D0698018A
:10203A00C703C6030D0A0041206D656E6F732064E5
:10204A00652033303020636D2E0041206D6173208E
:10205A0064652033303020636D2E0020202020203C
:10206A0042616E64612020202020200020656E20BD
:10207A006D6F76696D69656E746F2120002020206E
:10208A0020646574656E6964612120202000202027
:10209A0020456D657267656E6369612020200020A6
:1020AA00202020212121212121212120202020003E
:00000001FF
