:020000040000FA
:100000000C9435000C945D000C945D000C945D0024
:100010000C945D000C945D000C945D000C945D00EC
:100020000C945D000C945D000C945D000C945D00DC
:100030000C945D000C945D000C945D000C945D00CC
:100040000C943A020C945D000C9408020C94E201AA
:100050000C945D000C945D000C945D000C945D00AC
:100060000C945D000C945D005E0311241FBECFEF65
:10007000D8E0DEBFCDBF11E0A0E0B1E0EAE7F7E0F5
:1000800002C005900D92A437B107D9F722E0A4E78A
:10009000B1E001C01D92AA31B207E1F710E0C5E35B
:1000A000D0E004C02197FE010E94B503C433D107FC
:1000B000C9F70E9484020C94BB030C940000AF9219
:1000C000BF92CF92DF92EF92FF920F931F93CF9345
:1000D000DF936C017B018B01040F151FEB015E01A7
:1000E000AE18BF08C017D10759F06991D601ED913C
:1000F000FC910190F081E02DC6010995892B79F7DB
:10010000C501DF91CF911F910F91FF90EF90DF908C
:10011000CF90BF90AF900895FC01538D448D252F53
:1001200030E0842F90E0821B930B541710F0CF9691
:10013000089501970895FC01918D828D981761F0C3
:10014000A28DAE0FBF2FB11D5D968C91928D9F5FDA
:100150009F73928F90E008958FEF9FEF0895FC01B9
:10016000918D828D981731F0828DE80FF11D858D6C
:1001700090E008958FEF9FEF0895FC01918D228DFF
:10018000892F90E0805C9F4F821B91098F73992784
:1001900008958DE791E00E94BD0021E0892B09F4CC
:1001A00020E0822F089580E090E0892B29F00E94C2
:1001B000C90081110C9400000895FC01A48DA80FC2
:1001C000B92FB11DA35ABF4F2C91848D90E0019699
:1001D0008F739927848FA689B7892C93A089B189B9
:1001E0008C91837080648C93938D848D981306C05A
:1001F0000288F389E02D80818F7D80830895EF92BE
:10020000FF920F931F93CF93DF93EC0181E0888FD0
:100210009B8D8C8D98131AC0E889F989808185FFA0
:1002200015C09FB7F894EE89FF896083E889F98942
:1002300080818370806480839FBF81E090E0DF9144
:10024000CF911F910F91FF90EF900895F62E0B8D97
:1002500010E00F5F1F4F0F731127E02E8C8D8E1152
:100260000CC00FB607FCFACFE889F989808185FFB9
:10027000F5CFCE010E94DD00F1CFEB8DEC0FFD2F0D
:10028000F11DE35AFF4FF0829FB7F8940B8FEA8974
:10029000FB8980818062CFCFCF93DF93EC01888D83
:1002A0008823B9F0AA89BB89E889F9898C9185FDF1
:1002B00003C0808186FD0DC00FB607FCF7CF8C917F
:1002C00085FFF2CF808185FFEDCFCE010E94DD005A
:1002D000E9CFDF91CF9108953FB7F89480917901EC
:1002E00090917A01A0917B01B0917C0126B5A89BE9
:1002F00005C02F3F19F00196A11DB11D3FBFBA2FB8
:10030000A92F982F8827BC01CD01620F711D811D77
:10031000911D42E0660F771F881F991F4A95D1F7FC
:100320000895FC0101900020E9F73197AF01481BC7
:10033000590BBC018DE791E00C945F008F929F9266
:10034000AF92BF920F931F93CF93DF93CDB7DEB7DA
:10035000A1970FB6F894DEBF0FBECDBF19A24230F1
:1003600008F44AE08E010F5D1F4F842E912CB12CB2
:10037000A12CA50194010E949303E62FB901CA01A3
:10038000EA30F4F4E05DD801EE938D01232B242BA9
:10039000252B79F790E080E0109719F0CD010E94AD
:1003A0009101A1960FB6F894DEBF0FBECDBFDF91CD
:1003B000CF911F910F91BF90AF909F908F90089514
:1003C000E95CE1CF1F920F920FB60F9211242F9389
:1003D0003F934F935F936F937F938F939F93AF93CD
:1003E000BF93EF93FF938DE791E00E94DD00FF91B3
:1003F000EF91BF91AF919F918F917F916F915F919D
:100400004F913F912F910F900FBE0F901F90189515
:100410001F920F920FB60F9211242F938F939F93D9
:10042000EF93FF93E0918D01F0918E018081E09137
:100430009301F091940182FD1BC0908180919601FF
:100440008F5F8F7320919701821741F0E0919601A1
:10045000F0E0E358FE4F958F80939601FF91EF9166
:100460009F918F912F910F900FBE0F901F90189515
:100470008081F4CF1F920F920FB60F9211242F9309
:100480003F938F939F93AF93BF938091750190910A
:100490007601A0917701B09178013091740123E049
:1004A000230F2D3758F50196A11DB11D209374011E
:1004B0008093750190937601A0937701B0937801B2
:1004C0008091790190917A01A0917B01B0917C019A
:1004D0000196A11DB11D8093790190937A01A0939B
:1004E0007B01B0937C01BF91AF919F918F913F9120
:1004F0002F910F900FBE0F901F90189526E8230F95
:100500000296A11DB11DD2CF789484B5826084BDBE
:1005100084B5816084BD85B5826085BD85B5816007
:1005200085BD80916E00816080936E001092810085
:100530008091810082608093810080918100816040
:100540008093810080918000816080938000809101
:10055000B10084608093B1008091B000816080938D
:10056000B00080917A00846080937A0080917A0054
:10057000826080937A0080917A00816080937A0013
:1005800080917A00806880937A001092C100E09197
:100590008D01F0918E0182E08083E0918901F091DC
:1005A0008A011082E0918B01F0918C018FEC8083A5
:1005B00010929501E0919101F091920186E0808383
:1005C000E0918F01F0919001808180618083E091C2
:1005D0008F01F0919001808188608083E0918F018C
:1005E000F0919001808180688083E0918F01F0918B
:1005F000900180818F7D808390E080E00E948B035A
:100600008A3209F458C082E191E00E9491018EE2A1
:1006100091E00E949101C0E0D0E090E080E00E9473
:100620008B03F82E89E591E00E9491014AE060E099
:1006300070E0CB010E949E0180E791E00E94910151
:100640006F2D70E090E080E04AE00E949E018EE213
:1006500091E00E9491010E946C014B015C0188EEC7
:10066000C82E83E0D82EE12CF12C0E946C01681971
:1006700079098A099B09683E734081059105A8F3B1
:1006800021E0C21AD108E108F10888EE880E83E063
:10069000981EA11CB11CC114D104E104F10429F776
:1006A000209709F4BACF0E94C900882309F4B5CF76
:1006B0000E940000B2CF81E391E0A7CFEDE7F1E027
:1006C0001382128288EE93E0A0E0B0E084839583E9
:1006D000A683B78384E091E09183808385EC90E0EA
:1006E0009587848784EC90E09787868780EC90E0FC
:1006F000918B808B81EC90E0938B828B82EC90E0ED
:10070000958B848B86EC90E0978B868B118E128E66
:10071000138E148E0895F999FECF92BD81BDF89A7B
:10072000992780B50895A1E21A2EAA1BBB1BFD01D3
:100730000DC0AA1FBB1FEE1FFF1FA217B307E407C0
:10074000F50720F0A21BB30BE40BF50B661F771F18
:10075000881F991F1A9469F76095709580959095F8
:100760009B01AC01BD01CF010895EE0FFF1F059065
:10077000F491E02D0994F894FFCF00000000FF00F1
:100780005F008C004C01BD009B00AF00457363729D
:10079000696269656E646F20656E206C61204545F5
:1007A00050524F4D2E2E2E000D0A00456C207661C2
:1007B0006C6F7220796120657374C3A120657363C7
:1007C0007269746F20656E206C6120454550524FF0
:1007D0004D2E0056616C6F7220656E206C61206436
:0E07E0006972656363696F6E20003A20000045
:107E0000112484B714BE81FFF0D085E080938100F7
:107E100082E08093C00088E18093C10086E0809377
:107E2000C20080E18093C4008EE0C9D0259A86E02C
:107E300020E33CEF91E0309385002093840096BBD3
:107E4000B09BFECF1D9AA8958150A9F7CC24DD24C4
:107E500088248394B5E0AB2EA1E19A2EF3E0BF2EE7
:107E6000A2D0813461F49FD0082FAFD0023811F036
:107E7000013811F484E001C083E08DD089C08234E0
:107E800011F484E103C0853419F485E0A6D080C0E4
:107E9000853579F488D0E82EFF2485D0082F10E0AE
:107EA000102F00270E291F29000F111F8ED06801E7
:107EB0006FC0863521F484E090D080E0DECF843638
:107EC00009F040C070D06FD0082F6DD080E0C81688
:107ED00080E7D80618F4F601B7BEE895C0E0D1E017
:107EE00062D089930C17E1F7F0E0CF16F0E7DF06D8
:107EF00018F0F601B7BEE89568D007B600FCFDCFD4
:107F0000A601A0E0B1E02C9130E011968C91119780
:107F100090E0982F8827822B932B1296FA010C0160
:107F200087BEE89511244E5F5F4FF1E0A038BF0790
:107F300051F7F601A7BEE89507B600FCFDCF97BE46
:107F4000E89526C08437B1F42ED02DD0F82E2BD052
:107F50003CD0F601EF2C8F010F5F1F4F84911BD097
:107F6000EA94F801C1F70894C11CD11CFA94CF0C13
:107F7000D11C0EC0853739F428D08EE10CD085E9AC
:107F80000AD08FE07ACF813511F488E018D01DD067
:107F900080E101D065CF982F8091C00085FFFCCF94
:107FA0009093C60008958091C00087FFFCCF809118
:107FB000C00084FD01C0A8958091C6000895E0E648
:107FC000F0E098E1908380830895EDDF803219F02E
:107FD00088E0F5DFFFCF84E1DECF1F93182FE3DFCA
:107FE0001150E9F7F2DF1F91089580E0E8DFEE27F6
:047FF000FF270994CA
:027FFE00040479
:00000001FF
