:020000040000FA
:100000000C945D000C9485000C9485000C94850084
:100010000C9485000C9485000C9485000C9485004C
:100020000C9485000C9485000C9485000C9485003C
:100030000C9485000C9485000C9485000C9485002C
:100040000C9493060C9485000C9461060C943B066A
:100050000C9485000C9485000C9485000C9485000C
:100060000C94DD060C9485000000000800020100DD
:100070000003040700000000000000000000000072
:10008000250028002B0000000000240027002A0083
:10009000040404040404040402020202020203032E
:1000A0000303030301020408102040800102040836
:1000B0001020010204081020FC0711241FBECFEFFE
:1000C000D8E0DEBFCDBF11E0A0E0B1E0E0EEF3E1AB
:1000D00002C005900D92AA38B107D9F723E0AAE82B
:1000E000B1E001C01D92A431B207E1F710E0CDE507
:1000F000D0E004C02197FE010E94E809CC35D10769
:10010000C9F70E944F080C94EE090C94000090E08F
:10011000FC01EC55FF4F249180579F4FFC018491C7
:10012000882399F090E0880F991FFC01EA57FF4F50
:10013000A591B491FC01E458FF4F859194918FB73C
:10014000F894EC91E22BEC938FBF08950895CF9330
:10015000DF93AC01E0914102F09142023097F1F05F
:1001600090914A02809149029817C0F090E0292F9F
:1001700030E02617370754F4D901A657BE4F240F95
:10018000351FE90128812C939F5FF1CF10924A021D
:1001900060934902CB01DF91CF910994DF91CF9118
:1001A0000895AF92BF92CF92DF92EF92FF920F939A
:1001B0001F93CF93DF936C017B018B01040F151FFD
:1001C000EB015E01AE18BF08C017D10759F0699165
:1001D000D601ED91FC910190F081E02DC6010995C9
:1001E000892B79F7C501DF91CF911F910F91FF9076
:1001F000EF90DF90CF90BF90AF900895FC01538DAA
:10020000448D252F30E0842F90E0821B930B5417F0
:1002100010F0CF96089501970895FC01918D828D7D
:10022000981761F0A28DAE0FBF2FB11D5D968C9116
:10023000928D9F5F9F73928F90E008958FEF9FEF55
:100240000895FC01918D828D981731F0828DE80F11
:10025000F11D858D90E008958FEF9FEF0895FC01CB
:10026000918D228D892F90E0805C9F4F821B910998
:100270008F739927089583E592E00E942F0121E072
:10028000892B09F420E0822F089580E090E0892BEB
:1002900029F00E943B0181110C9400000895FC019B
:1002A000A48DA80FB92FB11DA35ABF4F2C91848DD7
:1002B00090E001968F739927848FA689B7892C9334
:1002C000A089B1898C91837080648C93938D848D87
:1002D000981306C00288F389E02D80818F7D80838A
:1002E0000895EF92FF920F931F93CF93DF93EC014A
:1002F00081E0888F9B8D8C8D98131AC0E889F989CD
:10030000808185FF15C09FB7F894EE89FF896083CF
:10031000E889F98980818370806480839FBF81E050
:1003200090E0DF91CF911F910F91FF90EF90089592
:10033000F62E0B8D10E00F5F1F4F0F731127E02E6D
:100340008C8D8E110CC00FB607FCFACFE889F989A5
:10035000808185FFF5CFCE010E944F01F1CFEB8D5B
:10036000EC0FFD2FF11DE35AFF4FF0829FB7F89479
:100370000B8FEA89FB8980818062CFCFCF93DF9397
:10038000EC01888D8823B9F0AA89BB89E889F989AD
:100390008C9185FD03C0808186FD0DC00FB607FCE2
:1003A000F7CF8C9185FFF2CF808185FFEDCFCE0115
:1003B0000E944F01E9CFDF91CF91089590E0FC01B9
:1003C000E859FF4F2491FC01EC55FF4F3491FC019B
:1003D000E057FF4FE491EE23C9F0222339F0233098
:1003E00001F1A8F4213019F1223029F1F0E0EE0FEB
:1003F000FF1FE458FF4FA591B4918FB7F894EC918B
:10040000611126C030953E233C938FBF089527305D
:10041000A9F02830C9F0243049F7809180008F7D01
:1004200003C0809180008F7780938000DFCF84B5F8
:100430008F7784BDDBCF84B58F7DFBCF8091B000FB
:100440008F778093B000D2CF8091B0008F7DF9CFAD
:100450003E2BDACF3FB7F89480913D0290913E0257
:10046000A0913F02B091400226B5A89B05C02F3F46
:1004700019F00196A11DB11D3FBFBA2FA92F982FCA
:100480008827BC01CD01620F711D811D911D42E0C5
:10049000660F771F881F991F4A95D1F708958F928D
:1004A0009F92AF92BF92CF92DF92EF92FF924B0159
:1004B0005C010E942A026B017C010E942A026C19D5
:1004C0007D098E099F09683E734081059105A8F357
:1004D00021E0821A9108A108B10888EEC80E83E0D5
:1004E000D81EE11CF11C81149104A104B10429F768
:1004F000FF90EF90DF90CF90BF90AF909F908F9044
:10050000089508952091CB01260F3327331F213200
:100510003105ECF420911402FC0190E080E02430DD
:1005200069F082E00895A091CB012191AC0145557D
:100530005E4FA40FB52FB11D2C930196861798F32B
:100540008091CB01680F6093CB0180E0089581E03A
:1005500008951092140281E0809313021092EE012C
:1005600061E082E10E94DE0161E083E10E94DE0140
:10057000E9EBF0E080818E7F808380818D7F8083B6
:1005800088E48093B80085E48093BC000895CF93FD
:10059000DF9391E09093AA018823B9F0C091B8004D
:1005A000D091BA008091BC008A7B8093BC0060E04F
:1005B00082E10E94DE0160E083E10E94DE010E9490
:1005C000A902D093BA00C093B800DF91CF910895EB
:1005D0000895E0914A0280914902E81730F4F0E072
:1005E000E657FE4F808190E008958FEF9FEF0895CA
:1005F00090914A02809149022FEF3FEF981748F4FB
:10060000E92FF0E0E657FE4F208130E09F5F9093A6
:100610004A02C90108958091490290914A02891BBA
:10062000990B0895CF92DF92EF92FF920F931F9351
:10063000CF93DF937C01CB018A0120911A02222300
:1006400089F0EB016B01C40ED51ECC15DD0569F0F8
:100650006991D701ED91FC910190F081E02DC701E6
:100660000995F3CF642F0E948202C801DF91CF91D8
:100670001F910F91FF90EF90DF90CF900895CF934F
:10068000DF931F92CDB7DEB7698320911A02222330
:10069000F9F020914702203258F021E030E0FC01CF
:1006A0003383228390E080E00F90DF91CF91089513
:1006B00080914802E82FF0E0E55EFD4F998190833C
:1006C0008F5F809348028093470281E090E0ECCFF7
:1006D00061E0CE0101960E948202F7CFCF92DF92B5
:1006E000EF92FF920F931F93CF93DF93FC01C4818E
:1006F00021E020931A02C0933B021092480210920C
:1007000047028385682B80EF92E00E943F03D091DF
:100710004702D13208F092C00E942A026B017C018C
:1007200080911402811165C082E08093140281E0FF
:10073000809313028FEF8093120210921102D093D4
:100740001002ABE1B2E0E0EFF1E080E0D81385C049
:100750001092EF018091EF01CC0FC82BC093EF01F5
:100760008091EE01813009F07CC01092EE010E9470
:100770002A026B017C018091EF018093BB00809184
:10078000160290911702A0911802B0911902892BBC
:100790008A2B8B2B99F00E942A020091160210914D
:1007A000170220911802309119026C197D098E09E7
:1007B0009F090617170728073907E0F18091BC0049
:1007C00083FDD9CF85EC8093BC000E942A026B0187
:1007D0007C0180911402823009F445C0809112029C
:1007E0008F3F61F180911202803241F180911202BB
:1007F00025C08091160290911702A0911802B09125
:100800001902892B8A2B8B2B09F48ACF0E942A028A
:1008100000911602109117022091180230911902CE
:100820006C197D098E099F090617170728073907D4
:1008300008F076CF809115020E94C70210924802FC
:100840001092470210921A02DF91CF911F910F91DF
:10085000FF90EF90DF90CF9008959D9191938F5FDF
:1008600075CF85EEB0CF8091160290911702A091BE
:100870001802B0911902892B8A2B8B2B09F4A9CF6E
:100880000E942A020091160210911702209118026C
:10089000309119026C197D098E099F0906171707F7
:1008A0002807390708F095CFC5CF90E080E008957C
:1008B0000F931F93CF938C01C62F0E946E036C2F52
:1008C0006460C8010E946E036C2F6B7FC8010E9498
:1008D0006E0383EC90E00197F1F7CF911F910F9198
:1008E00008950F931F93CF93DF938C01D62FC42FBE
:1008F000607F642B0E94580480E1D89FB0011124CE
:100900006C2BC801DF91CF911F910F910C9458046B
:10091000CF93DF93CDB7DEB728970FB6F894DEBF3D
:100920000FBECDBF28E0E0E0F1E0DE0111960190BE
:100930000D922A95E1F7FC012085261708F46FEF48
:1009400070E0660F771F21E030E02C0F3D1F620F33
:10095000731FFB016081606840E028960FB6F89431
:10096000DEBF0FBECDBFDF91CF910C94710441E08B
:100970000E94710481E090E008950F931F93CF933C
:10098000DF93EC0110924A02109249021092480241
:10099000109247020E94A90286EA90E090934602D4
:1009A0008093450287EA90E090934402809343024B
:1009B0001D828A85823010F098E09D83888762E3EB
:1009C00070E080E090E00E944F026B85CE010E94B3
:1009D0006E0368EE73E080E090E00E944F0260E3F7
:1009E000CE010E9458040BE416E4C8010197F1F708
:1009F00060E3CE010E945804C8010197F1F760E35B
:100A0000CE010E94580483E592E00197F1F760E27D
:100A1000CE010E9458046D81606240E0CE010E94C8
:100A2000710484E08E8340E06CE0CE010E9471048A
:100A300040E061E0CE010E9471040BE31FE1C801B8
:100A40000197F1F782E08F8340E066E0CE010E94DB
:100A5000710440E062E0CE010E947104C801019778
:100A6000F1F7DF91CF911F910F910895FB01019054
:100A70000020E9F73197AF01461B570BDC01ED91E0
:100A8000FC910280F381E02D09948F929F92AF92A6
:100A9000BF92EF92FF920F931F93CF93DF93CDB747
:100AA000DEB7A1970FB6F894DEBF0FBECDBF7C01B5
:100AB000FA01CB0119A2223008F42AE08E010F5D61
:100AC0001F4F822E912CB12CA12CBF01A5019401A6
:100AD0000E94C609F901CA016A300CF5605DD801AF
:100AE0006E938D01232B242B252B79F790E080E04A
:100AF000109721F0BD01C7010E943605A1960FB6DF
:100B0000F894DEBF0FBECDBFDF91CF911F910F9143
:100B1000FF90EF90BF90AF909F908F900895695C89
:100B2000DECFCF92DF92EF92FF92CF93DF936C01F3
:100B3000990FEE08FF08F7FE23C06DE283E592E00F
:100B40000E947101EC0144275527BA014C195D0937
:100B50006E097F092AE083E592E00E944505C80FEF
:100B6000D91F60E571E083E592E00E9436058C0FA5
:100B70009D1FDF91CF91FF90EF90DF90CF90089570
:100B80002AE0B701A60183E592E00E944505EC0149
:100B9000E8CF9091490280914A029817A1F080EF26
:100BA00092E00E94F802909352028093510263E512
:100BB00071E083E592E00E943605809151029091A8
:100BC00052020E9491059091490280914A02981721
:100BD000A1F080EF92E00E94F8029093500280937F
:100BE0004F0268E571E083E592E00E94360580914E
:100BF0004F02909150020E94910560914F028091A6
:100C000051020C94DE0185ED8093BC0080911602A8
:100C100090911702A0911802B09119020796A11D98
:100C2000B11D23E0B695A795979587952A95D1F79D
:100C30002091BC0024FD03C010921402089540913D
:100C40001602509117026091180270911902452BFB
:100C5000462B472B69F30097A105B10541F02AE225
:100C60002A95F1F700C00197A109B109E1CF809160
:100C700015020C94C7021F920F920FB60F92112407
:100C80002F933F934F935F936F937F938F939F9394
:100C9000AF93BF93EF93FF9383E592E00E944F01E0
:100CA000FF91EF91BF91AF919F918F917F916F9144
:100CB0005F914F913F912F910F900FBE0F901F901A
:100CC00018951F920F920FB60F9211242F938F93A6
:100CD0009F93EF93FF93E0916302F0916402808110
:100CE000E0916902F0916A0282FD1BC090818091BF
:100CF0006C028F5F8F7320916D02821741F0E0913B
:100D00006C02F0E0ED5AFD4F958F80936C02FF91DD
:100D1000EF919F918F912F910F900FBE0F901F9089
:100D200018958081F4CF1F920F920FB60F92112465
:100D30002F933F938F939F93AF93BF9380914B02D9
:100D400090914C02A0914D02B0914E0230913C0224
:100D500023E0230F2D3758F50196A11DB11D2093D7
:100D60003C0280934B0290934C02A0934D02B093AF
:100D70004E0280913D0290913E02A0913F02B091BF
:100D800040020196A11DB11D80933D0290933E0249
:100D9000A0933F02B0934002BF91AF919F918F917A
:100DA0003F912F910F900FBE0F901F90189526E83E
:100DB000230F0296A11DB11DD2CF1F920F920FB625
:100DC0000F9211242F933F934F935F936F937F93D1
:100DD0008F939F93AF93BF93EF93FF938091B9004D
:100DE000887F803609F44AC0F0F5883209F4A7C03C
:100DF00018F5803109F49BC0B8F4882309F4F9C0D0
:100E0000883009F494C0FF91EF91BF91AF919F9109
:100E10008F917F916F915F914F913F912F910F90A3
:100E20000FBE0F901F901895883109F488C080324A
:100E300051F78093120214C0803409F49DC040F42D
:100E40008033B9F38833F9F68093120285ECB0C091
:100E5000803509F485C0883509F496C0883499F640
:100E60000E940306D0CF883909F48CC038F5883742
:100E700029F050F4883611F0803729F683E080930A
:100E800014021092ED0157C0883809F47BC08039F4
:100E900019F0803809F0B7CF8091ED01803208F069
:100EA00071C0E091ED0181E08E0F8093ED018091A2
:100EB000BB00F0E0E353FE4F80833DC0803B39F040
:100EC000E0F4803A09F479C0883A09F09CCF84E0D4
:100ED000809314021092CC011092CB01E091450254
:100EE000F091460209958091CB0181110FC081E0FC
:100EF0008093CB011092AB0109C0803C09F4A6CFCE
:100F0000883C09F4A3CF883B09F07DCFE091CC0168
:100F100081E08E0F8093CC01F0E0E555FE4F80819B
:100F20008093BB009091CC018091CB0129C080912E
:100F3000EF018093BB0085EC8093BC0064CF90915F
:100F4000110280911002981758F5E091110281E08A
:100F50008E0F80931102F0E0E051FE4F8081E9CFC7
:100F6000E091110281E08E0F809311028091BB000D
:100F7000F0E0E051FE4F80839091110280911002C9
:100F80009817C8F285E8D8CFE091110281E08E0F62
:100F9000809311028091BB00F0E0E051FE4F80830E
:100FA0008091130281115CCF81E08093EE0184EA8D
:100FB0008093BC001092140226CF85EC8093BC0075
:100FC000109214028091ED01803230F4E091ED0135
:100FD000F0E0E353FE4F10826091ED0170E0E0918C
:100FE0004302F09144028DEC91E009951092ED01DD
:100FF0000ACF1092120234CFE3E5F2E0138212829C
:1010000088EE93E0A0E0B0E084839583A683B78365
:1010100024E231E03183208325EC30E035872487DA
:1010200024EC30E03787268720EC30E0318B208BB2
:1010300021EC30E0338B228B22EC30E0358B248B9B
:1010400026EC30E0378B268B118E128E138E148E89
:10105000E0EFF2E01382128284839583A683B78344
:1010600086E391E091838083E8E0F3E013821282CB
:1010700028E431E03183208380E2848390E191870A
:1010800082E082871386ECEFF2E0138212823183D2
:10109000208321E224839187828713860895CF934A
:1010A000DF93CDB7DEB768970FB6F894DEBF0FBEFB
:1010B000CDBF789484B5826084BD84B5816084BDE1
:1010C00085B5826085BD85B5816085BD80916E00E6
:1010D000816080936E001092810080918100826017
:1010E0008093810080918100816080938100809154
:1010F00080008160809380008091B1008460809343
:10110000B1008091B00081608093B00080917A003E
:10111000846080937A0080917A00826080937A0064
:1011200080917A00816080937A0080917A00806853
:1011300080937A001092C10088E093E00E94BD0481
:101140008CEF92E00E94BD0418E01093130360E05E
:1011500088E093E00E946E031093070360E08CEF39
:1011600092E00E946E0360E088E093E00E948804B1
:1011700060E08CEF92E00E94880460E671E088E015
:1011800093E00E94360560E771E08CEF92E00E94E8
:101190003605E0916302F091640212E01083E09161
:1011A0005F02F09160021082E0916102F0916202B0
:1011B0008FEC808310926B02E0916702F0916802DD
:1011C00086E08083E0916502F09166028081806113
:1011D0008083E0916502F09166028081886080835F
:1011E000E0916502F0916602808180688083E091E1
:1011F0006502F091660280818F7D808382E00E948B
:10120000870083E00E94870084E00E94870085E0D9
:101210000E94870086E00E94870060E082E00E94D2
:10122000DE0160E083E00E94DE0160E084E00E9475
:10123000DE0160E085E00E94DE0160E086E00E9461
:10124000DE0189EC95E09093420280934102109276
:101250004A021092490210924802109247020E94DC
:10126000A90286EA90E0909346028093450287EABD
:1012700090E090934402809343021093BA000BE3F2
:101280001FE183E0782E7E018AE0E80EF11C98EEE3
:10129000892E93E0992EA12CB12C20E0C22E20E0C3
:1012A000D22E40E061E08CEF92E00E947104C80110
:1012B0000197F1F760E08CEF92E00E9488048AE0E9
:1012C000E8E0F1E0DE011D9601900D928A95E1F7CC
:1012D000188E1F8A80915102805D8E8BBE01635FE4
:1012E0007F4F8CEF92E00E94360561E08CEF92E038
:1012F0000E94880489E0E4E1F1E0DE0111960190AA
:101300000D928A95E1F7F701872D11928A95E9F7F9
:1013100080914F02805D8987BE016F5F7F4F8CEFA8
:1013200092E00E94360561E088E093E00E94880424
:101330002FB7F89460914B0270914C0280914D024E
:1013400090914E022FBFA50194010E94C609BA01D7
:10135000A9012AE088E093E00E9445056FE771E06B
:1013600088E093E00E94360564EF71E080E090E051
:101370000E944F02C114D10409F493CF0E943B0193
:10138000882309F48ECF0E9400008BCFA1E21A2E91
:10139000AA1BBB1BFD010DC0AA1FBB1FEE1FFF1F19
:1013A000A217B307E407F50720F0A21BB30BE40B69
:1013B000F50B661F771F881F991F1A9469F76095B0
:1013C0007095809590959B01AC01BD01CF0108956A
:1013D000EE0FFF1F0590F491E02D0994F894FFCFD4
:1013E000000040001400540050494E204C45443A3F
:1013F0002000000045737461646F3A200000000013
:10140000000000007101D100FE00BE012F010D019E
:101410002101000000003F0312035504E8020B0302
:10142000F802E90200000000B704D100550481026F
:101430000D0A004C4544200045737461646F200020
:101440002054656D706F72697A61646F722120003B
:1014500020202020202020202020202020200020AC
:0A146000536567756E646F7300003A
:107E0000112484B714BE81FFF0D085E080938100F7
:107E100082E08093C00088E18093C10086E0809377
:107E2000C20080E18093C4008EE0C9D0259A86E02C
:107E300020E33CEF91E0309385002093840096BBD3
:107E4000B09BFECF1D9AA8958150A9F7CC24DD24C4
:107E500088248394B5E0AB2EA1E19A2EF3E0BF2EE7
:107E6000A2D0813461F49FD0082FAFD0023811F036
:107E7000013811F484E001C083E08DD089C08234E0
:107E800011F484E103C0853419F485E0A6D080C0E4
:107E9000853579F488D0E82EFF2485D0082F10E0AE
:107EA000102F00270E291F29000F111F8ED06801E7
:107EB0006FC0863521F484E090D080E0DECF843638
:107EC00009F040C070D06FD0082F6DD080E0C81688
:107ED00080E7D80618F4F601B7BEE895C0E0D1E017
:107EE00062D089930C17E1F7F0E0CF16F0E7DF06D8
:107EF00018F0F601B7BEE89568D007B600FCFDCFD4
:107F0000A601A0E0B1E02C9130E011968C91119780
:107F100090E0982F8827822B932B1296FA010C0160
:107F200087BEE89511244E5F5F4FF1E0A038BF0790
:107F300051F7F601A7BEE89507B600FCFDCF97BE46
:107F4000E89526C08437B1F42ED02DD0F82E2BD052
:107F50003CD0F601EF2C8F010F5F1F4F84911BD097
:107F6000EA94F801C1F70894C11CD11CFA94CF0C13
:107F7000D11C0EC0853739F428D08EE10CD085E9AC
:107F80000AD08FE07ACF813511F488E018D01DD067
:107F900080E101D065CF982F8091C00085FFFCCF94
:107FA0009093C60008958091C00087FFFCCF809118
:107FB000C00084FD01C0A8958091C6000895E0E648
:107FC000F0E098E1908380830895EDDF803219F02E
:107FD00088E0F5DFFFCF84E1DECF1F93182FE3DFCA
:107FE0001150E9F7F2DF1F91089580E0E8DFEE27F6
:047FF000FF270994CA
:027FFE00040479
:00000001FF
