:020000040000FA
:100000000C941F040C9450040C9450040C94500451
:100010000C9450040C9450040C9450040C94500410
:100020000C9450040C9450040C9450040C94500400
:100030000C9450040C9450040C9450040C945004F0
:100040000C9450040C9450040C9450040C945004E0
:100050000C9450040C9450040C9450040C9494256B
:100060000C9450040C9450040C9450040C945004C0
:100070000C9450040C9450040C9450040C945004B0
:100080000C9450040C9450040C9450040C945004A0
:100090000C945E250C9434250C9450040C9450045C
:1000A0000C9450040C9450040C9450040C94500480
:1000B0000C9450040C9450040C9450040C94500470
:1000C0000C9450040C9450040C9450040C94500460
:1000D0000C9450040C9450040C9450040C94500450
:1000E0000C9450040C94061E0C9463060C94900619
:1000F0000C94DE250C9466240C94FF080C942122A9
:100100000C949A240C9495060C94650E0C94E120A2
:100110000C94131E0C94DF1D0C945F060C94E608DF
:100120000C948D0D0C94091E0C9454200C94570DB6
:100130000C9488060C947B240C948C240C94A1249D
:100140000C94E6050C948C060C94C40D0C94692454
:100150000C9497240C9485240C94891F0C94101EE5
:100160000C94FA240C947E060C94050E0C94C62074
:100170000C9474060C945B060C943F110C949A0634
:100180000C94D61D0C9497210C9455060C946A0679
:100190000C945F240C94250D0C9475290C94300557
:1001A0000C947A060C9482060C9467060C949E2498
:1001B0000C9470060C94EA040C9496060C9470242B
:1001C0000C9482240C9499050C943F050C946105C1
:1001D0000C9472240C94A8240C9479240C948F24ED
:1001E0000C94450E0C9400090C94E2220C945305D7
:1001F00000002200250028002B002E0031003400D2
:1002000002010000050108010B010000210024008B
:1002100027002A002D0030003300010100000401F6
:1002200007010A014602000000FF0800053E5B4F7F
:100230005B3E053E6B4F6B3E051C3E7C3E1C05182D
:100240003C7E3C18051C577D571C051C5E7F5E1CC0
:100250000400183C1805FFE7C3E7FF040018241842
:1002600005FFE7DBE7FF0530483A060E052629794A
:10027000292605407F05050705407F05253F055ACE
:100280003CE73C5A057F3E1C1C0805081C1C3E7FB1
:100290000514227F221405FFFFFFFFFF05F0F0F099
:1002A000F0F003FFFFFF05000000FFFF050F0F0F39
:1002B0000F0F0508047E04080510207E2010050895
:1002C000082A1C0805081C2A080805AA005500AAC7
:1002D00005AA55AA55AA0530383E383005060E3E07
:1002E0000E06020000015F0307000705147F147F5C
:1002F0001405444AFF4A320563130864630536490E
:100300004936480107033E41410341413E05082A61
:100310001C2A080508083E08080260E004080808CE
:1003200008026060056010080403053E5149453E1F
:100330000304027F05714949494605414949493647
:10034000050F0808087F054F49494931053E4949CD
:10035000493005030101017F053649494936050643
:100360004949493E026C6C026CEC030814220414E7
:1003700014141403221408050159090906053E4105
:100380005D594E057E0909097E057F4949493605B3
:100390003E41414141057F4141413E057F49494937
:1003A00041057F09090901053E41414979057F0859
:1003B00008087F03417F4105304141413F057F08E7
:1003C000142241057F40404040057F020C027F051A
:1003D0007F0408107F053E4141413E057F09090920
:1003E00006053E4141617E057F09192946054649BA
:1003F0004949310501017F0101053F4040403F056A
:100400001F2040201F053F4038403F05631408145B
:1004100063050304780403056151494543037F41A3
:10042000410503040810600341417F0504020102F5
:1004300004048080808003010204043844447C0466
:100440007F4444380438444444043844447F0438E6
:1004500054545804047E05010418A4A47C047F04A9
:100460000478017D0384857C047F102844017F0586
:100470007C04780478047C04047804384444380408
:10048000FC24241804182424FC047C0404080458C4
:1004900054543403047F04043C40407C041C20403A
:1004A0007C053C4030403C046C10106C041CA0A047
:1004B0007C046454544C0408364141017F0441419A
:1004C00036080402010201057F4141417F053E5586
:1004D000555541053844443844057C2A2A3E1405C4
:1004E0007E0202060605027E027E02056355494130
:1004F00063053844443C0405407E201E2005060266
:100500007E0202086313086463006060052A2A2AD9
:100510002A2A03514A4403444A51050000FF0103BB
:1005200003E080FF05361236243603020502021866
:1005300018021010053040FF0101041F01011E00C8
:100540000000000901017F017F020C027F00000012
:100550000000000100017D0418247E2404447E452F
:100560004105221C141C2205012A7C2A0101770462
:100570004E55553903020002077E81BDA5A5817E37
:100580000326292F0508142A142204080808180332
:10059000080808077E81BD95A9817E05010101013A
:1005A000010302050203242E240319151203151555
:1005B0000A02020104F82040780506097F017F0243
:1005C0001818040080A0C003121F10032629260556
:1005D00022142A140808402F1008041E117C084019
:1005E0002F10080462554C0915553F1008041E11C0
:1005F0007C053048484D4005781516147805781468
:10060000161578057A1514157A05781615167905D4
:100610007815141578057814151478077E09097F64
:10062000494941059EA1612121057C545546440557
:100630007C54564544057E55544546057C555445E5
:100640004403457E4403447E4503467D4603457C82
:100650004505087F49413E057C0A11227D05384445
:10066000454638053844464538053A4544453A0537
:10067000384645463905384544453805221408149E
:1006800022057C625A463E053C4041423C053C40C6
:1006900042413C053C4241423C053C4140413C0515
:1006A00002047A0502043F12120C057E49494E30BD
:1006B000043845467C043844467D043846457E046B
:1006C0003A45467D043845447D04304A4D7A07203A
:1006D000545438545458049CA26222043855565835
:1006E0000438545659043856555A0438555459024A
:1006F000017A027A01030279020302780204304B84
:100700004B3C047A090A710430494A300430484AA3
:100710003104304A49320432494A310439444439B7
:100720000508082A08080438544C3804384142782F
:100730000438404279043842417A043A40407A040D
:1007400018A0A27904FC282810041AA0A07A00009E
:1007500020002300260029002C002F003200000179
:100760000000030106010901050505050705080844
:100770000808020202020A0A08080404040401012B
:100780000101010101010303030303030303040740
:1007900007070C0C0C0C0C0C0C0C020202020606D7
:1007A0000606060606060B0B0B0B0B0B0B0B0102CA
:1007B0001020200808102040102040800201020173
:1007C000080402010102040810204080804020102B
:1007D0000804020180040201804020100804020184
:1007E00008040201010204081020408001020408EC
:1007F0001020408000000A0B02090C0D0E080703B0
:1008000004010000000000000000000000000000E3
:1008100000000000000000000000000000000000D8
:100820001211100000000000000000000000000095
:1008300000000000000000000000DE2575291124E2
:100840001FBECFEFD1E2DEBFCDBF00E00CBF12E094
:10085000A0E0B2E0E4E9FAE500E00BBF02C00790D7
:100860000D92A239B107D9F723E0A2E9B2E001C0A5
:100870001D92A837B207E1F714E0CEE1D4E000E022
:1008800006C021970109802FFE010E94132BCD3154
:10089000D10780E00807A9F70E9428260C94382D7C
:1008A0000C940000CF92DF92EF92FF920F931F9370
:1008B000FC0180A5882331F0A5A1B6A19D967C936B
:1008C0006E939C9780A5882331F0A5A1B6A1579679
:1008D0005C934E93569780A5882371F0A5A1B6A18D
:1008E00018963C932E9317971A963C932E9319972C
:1008F0001C961C930E931B9780A5882379F005A066
:10090000F6A1E02DE114F10419F4EE24E394F12CA6
:10091000F18EE08ED38EC28E168615861F910F91B2
:10092000FF90EF90DF90CF900895829590E09C012A
:1009300035952795359527952373880F991F880F2F
:10094000991F8C7C282B30E0C9019595879585757A
:10095000220F331F2A7A822B0895CF93DF93262FFD
:100960002695382F70E0680F791FFC018E2F831BAE
:10097000821750F4819161507109DB019C91EF0164
:10098000219798838C93F2CFDF91CF910895482FD0
:10099000FC018E2F841B8617E0F4219130E0C90101
:1009A000959587958575220F331F2A7A822B90E0C3
:1009B0009C0135952795359527952373880F991FA9
:1009C000880F991F8C7C822B8295DF0111978C9365
:1009D000E0CF0895AF92BF92CF92DF92EF92FF9255
:1009E0000F931F93CF93DF936C017B018B01040F57
:1009F000151FEB015E01AE18BF08C017D10759F0F3
:100A00006991D601ED91FC910190F081E02DC60134
:100A10001995892B79F7C501DF91CF911F910F911E
:100A2000FF90EF90DF90CF90BF90AF900895CF935D
:100A3000DF93FC0144815581608171818DEA92E0F0
:100A40000E94EA04EC0142E050E06FE472E08DEABB
:100A500092E00E94EA048C0F9D1FDF91CF910895D0
:100A6000FC01538D448D252F30E0842F90E0821BB4
:100A7000930B541710F0CF96089501970895FC0139
:100A8000918D828D981761F0A28DAE0FBF2FB11D91
:100A90005D968C91928D9F5F9F73928F90E00895E9
:100AA0008FEF9FEF0895FC01918D828D981731F0A3
:100AB000828DE80FF11D858D90E008958FEF9FEFF7
:100AC0000895FC01918D228D892F90E0805C9F4FCD
:100AD000821B91098F73992708958DEA92E00E94F5
:100AE000610521E0892B09F420E0822F0895FC01A3
:100AF000A48DA80FB92FB11DA35ABF4F2C91848D7F
:100B000090E001968F739927848FA689B7892C93DB
:100B1000A089B1898C91837080648C93938D848D2E
:100B2000981306C00288F389E02D80818F7D808331
:100B30000895EF92FF920F931F93CF93DF93EC01F1
:100B400081E0888F9B8D8C8D98131AC0E889F98974
:100B5000808185FF15C09FB7F894EE89FF89608377
:100B6000E889F98980818370806480839FBF81E0F8
:100B700090E0DF91CF911F910F91FF90EF9008953A
:100B8000F62E0B8D10E00F5F1F4F0F731127E02E15
:100B90008C8D8E110CC00FB607FCFACFE889F9894D
:100BA000808185FFF5CFCE010E947705F1CFEB8DD7
:100BB000EC0FFD2FF11DE35AFF4FF0829FB7F89421
:100BC0000B8FEA89FB8980818062CFCFCF93DF933F
:100BD000EC01888D8823B9F0AA89BB89E889F98955
:100BE0008C9185FD03C0808186FD0DC00FB607FC8A
:100BF000F7CF8C9185FFF2CF808185FFEDCFCE01BD
:100C00000E947705E9CFDF91CF91089580E090E0D1
:100C1000892B49F080E090E0892B29F00E940000A8
:100C200081110E94000080E090E0892B29F00E9451
:100C30006D0581110E94000080E090E0892B49F051
:100C400080E090E0892B29F00E94000081110E9431
:100C5000000080E090E0892B49F080E090E0892B53
:100C600029F00E94000081110C9400000895815029
:100C7000823108F05AC0E82FF0E08827ED5BF94F89
:100C80008F4F0C94132B6306670655065B065F06B1
:100C900095066A06700674067A067E06820688063F
:100CA0008C069506900696069A06809180008F77AE
:100CB000809380000895809180008F7DF9CF80918E
:100CC0008000877FF5CF84B58F7784BD089584B584
:100CD0008F7DFBCF8091B0008F778093B000089517
:100CE0008091B0008F7DF9CF809190008F778093B5
:100CF00090000895809190008F7DF9CF80919000B1
:100D0000877FF5CF8091A0008F778093A000089512
:100D10008091A0008F7DF9CF8091A000877FF5CFD3
:100D2000809120018F778093200108958091200188
:100D30008F7DF9CF80912001877FF5CF1F93CF93CF
:100D4000DF93282F30E0F901EC50F84F8491F9013E
:100D5000E255F84FD491F901E859F84FC491CC23EA
:100D6000A9F0162F81110E943706EC2FF0E0EE0F4C
:100D7000FF1FE051FE4FA591B4918FB7F894EC910D
:100D8000111108C0D095DE23DC938FBFDF91CF9186
:100D90001F910895DE2BF8CFCF93DF9390E0FC01F5
:100DA000E255F84F24918859984FFC01849188238B
:100DB000D1F090E0880F991FFC01E65FFD4FA591EF
:100DC000B491FC01E051FE4FC591D49161110EC068
:100DD0009FB7F8948C91E22FE0958E238C93288115
:100DE000E223E8839FBFDF91CF9108958FB7F894F6
:100DF000EC91E22BEC938FBFF6CF3FB7F894809144
:100E0000A4029091A502A091A602B091A70226B5D6
:100E1000A89B05C02F3F19F00196A11DB11D3FBF32
:100E2000BA2FA92F982F8827BC01CD01620F711D01
:100E3000811D911D42E0660F771F881F991F4A95FB
:100E4000D1F708958F929F92AF92BF92CF92DF9287
:100E5000EF92FF924B015C010E94FD066B017C0149
:100E60000E94FD066C197D098E099F09683E73403A
:100E700081059105A8F321E0821A9108A108B10823
:100E800088EEC80E83E0D81EE11CF11C8114910489
:100E9000A104B10429F7FF90EF90DF90CF90BF90AD
:100EA000AF909F908F900895CF92DF92EF92FF9234
:100EB0001F93CF93DF93DC0158961C92589788E0DC
:100EC00059968C9359975A961C925A975C961C92F5
:100ED0001E925B978FEF90E05E969C938E935D974A
:100EE00090961C921E925F9756968D919C91579763
:100EF000009709F478C0FC012491263409F031C030
:100F00003196E491E13009F453C022E030E0E23060
:100F100021F5FC01329624913196E49130E0322F94
:100F200022272E0F311D5C963C932E935B97FC017C
:100F3000349624913196E49130E0322F22272E0FFF
:100F4000311D5E963C932E935D97FC013696E4919D
:100F50005996EC93599727E030E090963C932E9366
:100F60005F975F96CD90DC909097F12CE12C5B968B
:100F70002D913C915C975D96CD91DC915E9710E050
:100F8000C217D30770F1FC01EC0DFD1D449114173D
:100F900008F4142F50E070E060E04F5F5F4F6F4F38
:100FA0007F4FC40ED51EE61EF71E2F5F3F4FE8CFC2
:100FB000FC013296E491F0E05C96FC93EE935B9733
:100FC000FC013396E491F0E05E96FC93EE935D971E
:100FD000FC013496E4915996EC93599725E030E062
:100FE000BCCF5A961C93DF91CF911F91FF90EF9049
:100FF000DF90CF900895FC018385681738F524852C
:10100000358579E0679F200D311D1124848150E0E2
:101010009381992371F0882331F087E090E0FC01FF
:10102000E41BF50BAF01240F351FF90180810C94EF
:101030009504882331F087E090E0BC01641B750BB8
:10104000AB01240F351FF9018081089580E00895D8
:101050008F929F92AF92BF92CF92DF92EF92FF92C8
:10106000CF93DF93FC01242F30E08381882309F4A0
:1010700047C087E090E0821B930B91E001C0990F7D
:101080008A95EAF78385681708F040C0248535857E
:10109000A90189E0689F400D511D1124BA01E48126
:1010A00030E020E080E0A7E0B0E0C12CD12C760158
:1010B000C394F22FAD01421B530BE11101C0A901F2
:1010C000460F571FEA014881492351F04601570155
:1010D00004C0880C991CAA1CBB1CFA95D2F788295D
:1010E0002F5F3F4F2830310521F7DF91CF91FF90DF
:1010F000EF90DF90CF90BF90AF909F908F9008952A
:1011000091E001C0990F4A95EAF7BCCF80E0EDCF9E
:10111000FC01228121110C9428080C94FB07462F16
:1011200047706695669566950C948808FC01848DD9
:1011300090A1A6A5B7A591FD15C0882381F0808D4B
:10114000918D0597A9F481E024A535A52A173B07C1
:1011500009F080E080AB1197B7A7A6A70895828D0C
:10116000938DEFCF882379F0808D918D059759F776
:10117000CD01019697A786A781E011969C919111C8
:1011800080E080AB0895828D938DF0CFFC0186893D
:1011900097898230910591F42389348936A325A358
:1011A00031A720A78230910561F42189328933A7C4
:1011B00022A7029749F08FEF87A3089521893289EA
:1011C000EDCF23893489F3CF81E0F6CFCF93DF933E
:1011D0001F921F92CDB7DEB769831A82DC01ED91B1
:1011E000FC910084F185E02DBE016F5F7F4F199562
:1011F00081E090E00F900F90DF91CF9108950895D6
:1012000090E080E00895CF92DF92EF92FF920F93EB
:101210001F93CF93DF93EC0188858823A1F0809101
:101220009E02882361F08FB7F89490919E029130CE
:1012300041F59DB390939D029DB39DBB8FBF80E50B
:101240008CBD81E08DBD60E08F810E949E06888507
:101250008823D1F030E020E08B8590E0880F991F43
:1012600028173907C8F5EE85FF85E20FF31F808147
:101270008EBD00000DB407FEFDCF8EB52F5F3F4F32
:10128000EBCF80939D02DBCF10E000E08B8590E0F8
:10129000880F991F08171907F8F4EE85FF85E00FEE
:1012A000F11FE080DE80CD8088E0F82E6E2D661F75
:1012B0006627661F8C2D0E949E06EE0C61E08D2D28
:1012C0000E949E0660E08D2D0E949E06FA94F11009
:1012D000EDCF0F5F1F4FDACF61E08F810E949E0636
:1012E0008885882371F080919E02882351F09FB7F2
:1012F000F89420919E0280919D02213059F48DBB7B
:101300009FBFDF91CF911F910F91FF90EF90DF90E2
:10131000CF9008958FBFF5CFFC0180819181009718
:1013200011F00C94B72B08950F931F93CF93FC01EA
:10133000A081B1815A96CC9186A9C80F83A98C1738
:10134000A0F48F0184A995A9009711F00E94B72BF2
:10135000F801C3AB8C2F90E0009711F481E090E08E
:101360000E941B2BF80195AB84ABCF911F910F917D
:1013700008950F931F93CF93DF93EC018881998198
:10138000009759F02A813B812617370730F081E01A
:10139000DF91CF911F910F9108958B016F5F7F4F68
:1013A0000E94402C009759F0998388831B830A83FD
:1013B0002C813D81232B59F7FC011082E8CF80E07E
:1013C000E7CFEF92FF920F931F93CF93DF936115B7
:1013D000710541F480E0DF91CF911F910F91FF9053
:1013E000EF90089541155105B1F07B01EC010C819E
:1013F0001D81040F151FB8010E94B909882351F3FC
:10140000288139818C819D81B701820F931F0E94B1
:10141000312D1D830C8381E0DECFEF92FF920F937D
:101420001F93CF93DF93EC017B018A01BA010E94E5
:10143000B90928813981811114C02115310519F0AC
:10144000C9010E94B72B198218821D821C821B823F
:101450001A82CE01DF91CF911F910F91FF90EF90F3
:1014600008951D830C83B701C9010E94312DF1CF6E
:10147000EF92FF920F931F93CF93DF93CDB7DEB719
:1014800062970FB6F894DEBF0FBECDBF8C01CB01C3
:10149000F8011182108213821282158214824AE0AE
:1014A0009E012F5F3F4F7901B9010E947B2AF7010E
:1014B00001900020E9F73197AF014E195F09B7019C
:1014C000C8010E940D0A62960FB6F894DEBF0FBEE7
:1014D000CDBFDF91CF911F910F91FF90EF900895B5
:1014E000FC01438550E0440F551F70E060E08685A5
:1014F00097850C942A2DBF92CF92DF92EF92FF92A4
:101500000F931F93CF93DF93FC012385621708F09D
:101510004EC0EC01F9E06F9F70011124D12CC12C59
:10152000062F10E0BB24B394BC0CEC85FD85EE0DBA
:10153000FF1D808590E00C2C02C0959587950A943C
:10154000E2F780FF27C0CE010E94700A8B85815090
:10155000990B801B910B880F991F2E853F85820F59
:10156000931FFC01B082EC85FD85EE0DFF1DEC0D97
:10157000FD1D40818B858150990B801B910B880F3D
:10158000991F2E853F85820F931FFC014183CE0159
:101590000E940309FFEFCF1ADF0A88E0C816D104C2
:1015A00009F68C859D85E80EF91EF7011086DF91FE
:1015B000CF911F910F91FF90EF90DF90CF90BF9050
:1015C00008950F931F93CF93DF93EC01162F042FF1
:1015D000822F9B8191110E94950499E0199F90019F
:1015E0001124AC85BD85A20FB31F602F70E09C81D4
:1015F00047E050E0461B570B911101C0AB01A40F0F
:10160000B51F8C93EC85FD85E20FF31F20858C813F
:101610008823F1F047E050E0461B570B81E090E053
:10162000A0E0B0E004C0880F991FAA1FBB1F4A9515
:10163000D2F7822B80878C89882321F0612FCE01FD
:101640000E947B0A81E0DF91CF911F910F91089555
:1016500081E090E0A0E0B0E004C0880F991FAA1FCD
:10166000BB1F0A95D2F7E5CF9F92AF92BF92CF9260
:10167000DF92EF92FF920F931F93CF93DF93FC01C2
:1016800089E0689FE001112481E090E0A0E0B0E0F3
:101690006C017D01042E04C0CC0CDD1CEE1CFF1C73
:1016A0000A94D2F7BC2C7C2D709507E010E0041B47
:1016B000110904C0880F991FAA1FBB1F0A95D2F7F2
:1016C000A82E382F309590E080E0022F10E027E020
:1016D000E22EF12CAC01A485B585AC0FBD1F248191
:1016E00093806801082E02C0D594C7940A94E2F74B
:1016F000C0FE2AC0222319F0A701481B590BA40FD2
:10170000B51F2C914B2D91104A2D242B2C93019613
:1017100088309105F9F684859585C80FD91F8FEF1C
:1017200088878489882319F0CF010E947B0A81E091
:10173000DF91CF911F910F91FF90EF90DF90CF90AD
:10174000BF90AF909F900895222319F0A701481BE6
:10175000590BA40FB51F2C91472F9110432F242311
:10176000D5CFFC0152813385552321F0631730F426
:101770000C94340B631710F40C94E10A80E0089584
:10178000242F462F477033E0769567953A95E1F719
:101790000C94B10BFC0152813385552331F0631752
:1017A00050F4483041F00C94E10A631720F44830BB
:1017B00011F00C94340B80E00895CF92DF92EF92F9
:1017C000FF920F931F93CF93DF93FC01722F8281BF
:1017D0005385882309F45DC0651708F0BEC0283022
:1017E00009F4BBC009E0609F7001112484859585D0
:1017F0008E0D9F1D50E0A22FB0E024812223B9F16D
:1018000027E030E0E901C41BD50BAE012A1B3B0BDE
:10181000480F591FEA014881820F931FEC0148834A
:1018200084859585E701C80FD91F28858481882381
:1018300001F147E050E04A1B5B0B81E090E0A0E043
:10184000B0E004C0880F991FAA1FBB1F4A95D2F7AA
:10185000822B88878489811118C081E0DF91CF9124
:101860001F910F91FF90EF90DF90CF9008959D0111
:10187000CFCF81E090E0A0E0B0E004C0880F991FD6
:10188000AA1FBB1F7A95D2F7E3CFCF010E947B0A34
:10189000E4CFA42FB0E09381992309F44FC027E04F
:1018A00030E02A1B3B0B91E001C0990F2A95EAF723
:1018B0006517A0F6783091F2D9E06D9FA001112450
:1018C00001E010E020E030E068017901072E04C05B
:1018D000CC0CDD1CEE1CFF1C0A94D2F7DC2DCC2DA9
:1018E000C095A7E0B0E0A71BB10904C0000F111F0D
:1018F000221F331FAA95D2F7F02E009530E020E08A
:10190000A485B585A40FB51FA20FB31F8C91738159
:10191000182F1923D9F0711117C07D2F872B8C93A5
:101920002F5F3F4F2830310559F784859585480F43
:10193000591F8FEFDA0118968C938CCF91E001C07C
:10194000990F4A95EAF7B4CF7F2DE8CF711103C004
:101950007C2F8723E4CF702FFCCF80E07FCF8F9246
:101960009F92AF92BF92CF92DF92EF92FF920F932E
:101970001F93CF93DF9300D000D01F921F92CDB75B
:10198000DEB78C01D62E29E0629F70011124FA0186
:101990003197E730F10568F48827EE52F34F8F4F07
:1019A0000C94132B250D570D8D0DC40D050E450EF2
:1019B000650EDC0112968C918823C1F130E020E0A5
:1019C000D8011C96ED91FC911D97EE0DFF1DE20FC5
:1019D000F31F808113969C91992331F190E09595A6
:1019E000879580832F5F3F4F2830310549F7F801F5
:1019F00084859585E80EF91E8FEFD70118968C9394
:101A000081E028960FB6F894DEBF0FBECDBFDF9100
:101A1000CF911F910F91FF90EF90DF90CF90BF90EB
:101A2000AF909F908F900895880FDBCF87E090E074
:101A3000D8011C96ED91FC91EE0DFF1DE80FF91FEA
:101A4000208121830197A0F7D2CFF80182818823DA
:101A5000E1F030E020E0D8011C96ED91FC911D975B
:101A6000EE0DFF1DE20FF31F808113969C919923C9
:101A700041F0880F80832F5F3F4F2830310559F7A1
:101A8000B6CF90E095958795F5CF81E090E0D801AD
:101A90001C96ED91FC91EE0DFF1DE80FF91F2081C2
:101AA0003197208301968830910589F7A0CFF801FE
:101AB000C28085898823F9F040E0C801CC20C1F0BC
:101AC0000E94FB078983CC20C1F020E0CC24C39482
:101AD000C20E4C2D6D2DC8010E94DD0B2C2D273020
:101AE000A9F7298147E06D2DC8010E94CA0B7FCF5D
:101AF0000E942808E7CF1982E6CF87E090E0D8015E
:101B00001C96ED91FC91EE0DFF1DE80FF91F208151
:101B1000220F2083019798F7E4CFF801C2808589CE
:101B20008823D9F047E0C801CC20A1F00E94FB0730
:101B30008983CC20A1F028E0CC24CA94C20E4C2D7D
:101B40006D2DC8010E94DD0B2C2DC110F5CF298110
:101B500040E0C9CF0E942808EBCF1982EACF30E0DD
:101B600020E0D8011C96ED91FC91EE0DFF1DE20FD7
:101B7000F31F808190E09595879580832F5F3F4F7D
:101B80002830310571F7E3CFF80182818823C1F055
:101B9000B12CA12CD8011C96CD90DC90CE0CDF1C72
:101BA000CA0CDB1CF60180810E949504D6018C933F
:101BB000BFEFAB1ABB0AE8E0AE16B10459F717CF76
:101BC00030E020E047E050E0D8011C968D919C91D8
:101BD0008E0D9F1DFC01E20FF31FD080BA01621B26
:101BE000730B860F971FDC018C918083D8011C96A4
:101BF000ED91FC91EE0DFF1DE60FF71FD0822F5FD8
:101C00003F4F2430310501F7F2CEF801828188235D
:101C100029F130E020E047E050E0D8011C968D919A
:101C20009C918E0D9F1DFC01E20FF31FD080BA0125
:101C3000621B730B860F971FDC018C918083D80188
:101C40001C96ED91FC91EE0DFF1DE60FF71FD08263
:101C50002F5F3F4F2430310501F7C9CEB12CA12CA5
:101C6000F801C484D584CE0CDF1CCA0CDB1CD60161
:101C70008C910E949504F6018083FFEFAF1ABF0A92
:101C800028E0A216B10461F7B2CECE0101965C0144
:101C90004C0187E0C82E4C2D6D2DC8010E9488088C
:101CA000D4018D934D01CA94BFEFCB12F4CFC12C58
:101CB000F50121915F014C2D6D2DC8010E94CA0BC9
:101CC000C394F8E0CF12F4CF92CE90E080E0D80138
:101CD0001C96ED91FC91EE0DFF1DE80FF91F208180
:101CE0002095208301968830910589F780CECF9288
:101CF000DF92EF92FF920F931F93CF93DF93EC014C
:101D0000DD24D394F12CE12C01E010E0B9E0CB2EDE
:101D1000CE010E94700A98010E2C02C0220F331FC0
:101D20000A94E2F7E0E090E08B85E81798F5EC9DE7
:101D3000A0011124AC85BD85A40FB51F18966C9128
:101D400070E062237323672B19F16E2F70E08150CE
:101D5000990B861B970B880F991FAE85BF85A80F1F
:101D6000B91FDC92AC85BD85A40FB51FAE0DBF1D9C
:101D7000FC918B858150990B861B970B880F991FBF
:101D80004E855F85840F951FDC011196FC9391E0D1
:101D9000EF5FCACF992319F0CE010E940309BFEF6C
:101DA000EB1AFB0AD39488E0E816F10409F0B0CFEF
:101DB00080E099E02B85821748F4EC85FD85899FAA
:101DC000E00DF11D112410868F5FF4CFDF91CF91CC
:101DD0001F910F91FF90EF90DF90CF900895CF93D8
:101DE000DF93C9E078E05FEF4617B0F06C9F900199
:101DF0001124FC01A485B585A20FB31FFD01D72FC7
:101E00001192DA95E9F7DC011C96ED91FC91E20F55
:101E1000F31F50876F5FE8CFFC012489222321F054
:101E2000DF91CF910C94770EDF91CF9108956F924F
:101E30007F928F929F92AF92BF92CF92DF92EF925A
:101E4000FF920F931F93CF93DF9300D000D000D069
:101E5000CDB7DEB78C01E62EF42E5901D12C4617F2
:101E600008F4D5C0DC015496DC90549754961C922B
:101E700024303105B0F522303105C8F52130310567
:101E800009F4DBC0D80155968C91882309F486C0EB
:101E90006F2D660F660F660F695FC8010E948F087D
:101EA000C82EAE2CB12C8F2D0F2C000C990B8A153F
:101EB0009B050CF489C050E040E06F2DC8010E94E2
:101EC000AF0C99249A949F0C47E0692DC8010E9499
:101ED0008808282F40E06F2DC8010E94B10BF92C13
:101EE000E2CF2430310561F02830310558F6A501E4
:101EF0006E2DC8010E94AF0CE394FE14C0F77EC0A3
:101F0000642F70E0AE2CB12C4B018A189B08BFEFF8
:101F10008B1A9B0A97FE03C0EFEF8E1A9E0A9594C8
:101F20008794712C29E0C22E472D50E048155905A1
:101F30000CF0CFC0F80124853585FA01EA0DFB1DB0
:101F4000CE9EC001CF9E900D1124820F931FFC01E5
:101F5000DE0111966C2C01900D926A94E1F7FB0161
:101F6000E41BF50BCE9EA001CF9E500D1124F9016C
:101F7000E40FF51FDC018C2D01900D928A95E1F79D
:101F8000F801A485B585A40FB51FFE0131968C2DEF
:101F900001900D928A95E1F77394C6CFF801A2885B
:101FA000B388A114B10471F06F2D660F660F660F30
:101FB000695FC8010E948F08482F70E060E08F2D94
:101FC000F5011995C12C6DCFD8015096ED91FC917A
:101FD0005197309749F055968C91811105C070E06A
:101FE00060E08E2D1995C82EB50183E0660F771F2E
:101FF0008A95E1F74C2DC8010E94C00BD801549678
:10200000DC92DD2009F46FC0C8010E94770E8D2D8F
:1020100029960FB6F894DEBF0FBECDBFDF91CF91EA
:102020001F910F91FF90EF90DF90CF90BF90AF90F6
:102030009F908F907F906F900895FC0185898823F1
:10204000A9F1660F660F660FC8010E948F08C82E9F
:1020500041E050E06E2DC8010E94AF0CBB24B39448
:10206000BE0C40E06B2DC8010E948808282F47E075
:102070006E2DC8010E94B10BEB2CFB1448F7D80160
:102080005096ED91FC915197309749F055968C916F
:10209000811105C061E070E08F2D1995C82EB8E060
:1020A000FB9EB0011124695F7F4FA4CFA288B38843
:1020B000A114B10461F0660F660F660FC8010E949B
:1020C0008F08482F61E070E08E2DF5011995C12C25
:1020D000BFCF44E050E06E2DC8010E94AF0CE394E6
:1020E000FE14B8F78BCFDD24D39491CFCF93DF9339
:1020F000EC014CA16BA1461720F0888199810E94C8
:10210000EF0E8D8D882351F027E030E04CA16BA1BC
:1021100088819981DF91CF910C94170FDF91CF9136
:102120000895CF92DF92EF92FF920F931F93CF9378
:10213000DF93EC01D62EC42E790180E04617E0F043
:102140002A30310508F069C0CE010E94700A92E081
:10215000E916F10409F453C0C0F4E114F10429F1C3
:10216000F1E0EF16F10409F443C0D394CD1478F7ED
:10217000CE010E94030981E0DF91CF911F910F9161
:10218000FF90EF90DF90CF90089583E0E816F10480
:10219000E9F194E0E916F10441F781E00115110538
:1021A00009F480E0819599E006C081E001151105F0
:1021B00009F080E09CE04D2D50E02B852150330B41
:1021C000241B350B220F331F6E857F85260F371F8B
:1021D000F90190832B852150330B241B350B220FE3
:1021E000331F4E855F85240F351FF9018183BDCFD5
:1021F000802F083011050CF087E09BE0DCCF802FAA
:10220000003111050CF08FE09AE0D5CF81E0011587
:10221000110509F480E09FE0CECF81E00130110587
:1022200009F080E0FBE0EF16F10449F08C8B0130FF
:10223000110509F0A0CFCE010E94770E9CCF8D8BA7
:102240009ACF0F931F93FC0161A3062F10E022E0A9
:1022500030E044A163A1808191810E9491101F917F
:102260000F9108950F931F939B018A01FC014385F1
:10227000415060E00E9491101F910F910895CF92FC
:10228000DF92EF92FF920F931F93CF93DF937C0126
:102290006B01EA01CA0101960E941B2B8C01009779
:1022A000F1F0AE01B6010E94212DF801EC0FFD1FE7
:1022B0001082D701ED91FC910084F185E02DB801E9
:1022C000C7011995C8010E94B72BCE01DF91CF91AC
:1022D0001F910F91FF90EF90DF90CF900895D0E085
:1022E000C0E0F3CFCF92DF92EF92FF920F931F9354
:1022F000CF936C017B01C42F8901DC01D196ED9154
:10230000FC91309709F1808191818E159F05C1F470
:102310000280F381E02D80818C1708F4C82F4C2FA8
:1023200050E0BF016F5F7F4FC8010E94212D8C2FAD
:10233000CF911F910F91FF90EF90DF90CF90089574
:102340000480F581E02DDDCFF6018081918122AD01
:1023500033ADDC0156964D915C912417350751F051
:102360002115310511F424E232E0FC01378B268B74
:102370000E9454070115110509F448C0D6012D919A
:102380003C91F901878D90A1B0E0A0E0438D548D80
:10239000E416F506A0F1658D768D6E157F0578F152
:1023A00066897789FB01E80FF91FE416F50659F0F5
:1023B000E4918E0F911DA11DB11D0196A11DB11DAE
:1023C0004F5F5F4FEFCF4491C41710F50196A11DE9
:1023D000B11DA801801B910B642F601B6C1708F0C6
:1023E000A6CFBC01640F751FD9015696ED91FC91E3
:1023F000E60FF71FE491DA01ED93AD01EDCF4C2F1D
:1024000050E070E060E0C8010E942A2DC0E08FCF4C
:10241000C491DCCF1F93CF93DF93EC01142F2CA931
:102420003DA94BA90E947211112389F0882379F0EC
:1024300090E02EA9921758F42BA9821730F4ECA93A
:10244000FDA9E80FF11D10828F5F9F5FF2CFDF9132
:10245000CF911F9108950F931F93CF93DF93EC01BA
:102460008B01EEA5FFA541E08181811101C040E013
:10247000608170E0CE010E940A12F801808328A1D9
:102480009C8D21FD10C0992359F0288D398D253060
:10249000310581F4682F8CA99DA90E94AD040AC062
:1024A0002A8D3B8DF4CF9923B9F0288D398D2530B5
:1024B000310581F788A180FF06C0F80160818CA9F1
:1024C0009DA90E94C704CE010E94960881E0DF9179
:1024D000CF911F910F9108952A8D3B8DE8CF0F93D7
:1024E0001F93CF93DF93EC01FB011082ACA5BDA538
:1024F000BFA7AEA7109719F08C91811108C081E099
:1025000088AB80E0DF91CF911F910F91089518AAB9
:102510008C8D98A191FD10C0882359F0888D998DDC
:10252000059781F40D900020E9F71297BFA7AEA799
:1025300009C08A8D9B8DF4CF882331F1888D998DC8
:10254000059781F7AEA5BFA541E011968C91119733
:10255000811101C040E08B016C9170E0CE010E94BE
:102560000A12F801808328A19C8D21FD13C09923B4
:1025700071F0288D398D2530310599F4682F8CA99B
:102580009DA90E94AD040DC08A8D9B8DD9CF2A8D47
:102590003B8DF1CF992399F0288D398D2530310568
:1025A00069F788A180FF06C0F80160818CA99DA908
:1025B0000E94C704CE010E94960881E0A3CF2A8D15
:1025C0003B8DECCFCF92DF92EF92FF920F931F9350
:1025D000CF93DF93EC010E947610C988DA887E01E0
:1025E00087E3E80EF11CB701CE010E946F1219AE0D
:1025F00018AE86018B899C89081719077CF18FA971
:1026000028AD39AD8217130611F081110AC01FAA37
:1026100088A9811104C0B701CE010E942B1219AE06
:1026200018AE8FA9882331F38881998148AD59ADBF
:102630009A012F5F3F4FECA9FDA9E40FF51F4D8DC7
:1026400039AF28AF442341F040814095B8010E9442
:10265000C00B01501109CECF4081F8CFDF91CF914F
:102660001F910F91FF90EF90DF90CF900895FF9210
:102670000F931F93CF93DF93EC01F62E8D859E85EC
:10268000442309F462C08430910530F5019758F174
:102690008D859E85059721F483E090E09E878D8748
:1026A000CE010E94E2120DA11EA12FA18AA59BA519
:1026B000820F911D27FD9A9580179107E1F04D8DAE
:1026C0004195B801888199810E94C00B8FA1080FA4
:1026D000111D87FD1A95E9CF0597D1F285E090E0AD
:1026E0009E878D872CC0CE010E94C60883E090E0B3
:1026F0009E878D87CDCFFF2069F06DA17EA1061743
:10270000170741F04D8D81E04827419588819981D7
:102710000E94C00B8DA19EA12FA1022E000C330B95
:102720004AA55BA5420F531F8417950721F445E086
:1027300050E05E874D87820F931F9EA38DA3DF918C
:10274000CF911F910F91FF9008958430910500F56E
:10275000019700F1CE010E94E21208A519A56DA112
:102760007EA18FA1082E000C990B9B01280F391F09
:1027700020173107B9F04D8D4195B80188819981B5
:102780000E94C00B8FA1080F111D87FD1A95E7CF7E
:10279000059751F5CE010E94C60883E090E09E8720
:1027A0008D87D8CFFF2079F02AA53BA5820F931FF4
:1027B0006817790741F04D8D81E048274195888160
:1027C00099810E94C00B8DA19EA12FA1022E000C09
:1027D000330B4AA55BA5420F531F8417950709F0D9
:1027E000AACF46E050E0A5CF86E090E079CFAF9247
:1027F000BF92CF92DF92EF92FF920F931F93CF93EE
:10280000DF93EC01F62E8D859E85442309F46EC07E
:102810008430910580F50197A8F1CE010E947610D1
:10282000CE010E94E212CBA088E0C89E6001112474
:10283000EE24E394F11002C050E8E52E0DA11EA194
:102840008CA190E0019643E0880F991F4A95E1F72B
:10285000C816D906ACF5A880B9806C2DC5010E94B8
:102860008F08101624F5FF2001F1880F9D8D91111E
:102870008E290150F6CF059781F285E090E09E8782
:102880008D8729C087E090E09EA38DA310E000E033
:102890002BE030E04CA16BA1888199810E949110BE
:1028A00083E090E09E878D87B8CF8695DFCF482F55
:1028B000B601C5010E94C00B8FEFC81AD80ABECF5F
:1028C0000115110521F485E090E09E878D87015068
:1028D00011091EA30DA3DF91CF911F910F91FF90BE
:1028E000EF90DF90CF90BF90AF9008958430910526
:1028F00060F5019760F10BA188E0089F8001112429
:1029000030E8E32EF11002C0EE24E3948CA190E0B5
:10291000019623E0880F991F2A95E1F708171907F8
:10292000FCF4C880D980602FC6010E948F08482F10
:10293000FF20A1F046958D8D81114E29B801C60169
:102940000E94C00B0F5F1F4FE1CF0597B1F41EA28D
:102950001DA283E090E09E878D87CDCF440FEBCF03
:102960008DA19EA18730910521F426E030E03E87BD
:102970002D8701969EA38DA3AECF86E090E07FCFFA
:10298000CF92DF92EF92FF921F93CF93DF93EC01F0
:10299000D42E8D859E85662309F458C08430910518
:1029A000A8F50197D0F1CE010E94E2122DA13EA11F
:1029B0002830310569F1E8A4F9A481E090E001C074
:1029C000880F2A95EAF7182FD11010952FA18AA504
:1029D0009BA5820F911D27FD9A958E159F0549F1A4
:1029E000C880D9806E2DC6010E948F089D8D412F11
:1029F0009923E9F04095482BB701C6010E94C00B0E
:102A00008FA1E80EF11C87FDFA94E0CF059759F2EB
:102A100085E090E09E878D8711C0CE010E94C60898
:102A20001EA21DA283E090E09E878D87BCCF482325
:102A3000E3CF8DA19EA101969EA38DA3DF91CF919F
:102A40001F91FF90EF90DF90CF9008958430910513
:102A500098F5019798F1CE010E94E2128DA19EA1F6
:102A600010E097FD05C011E001C0110F8A95EAF74B
:102A7000E8A4F9A4D11010952FA18AA59BA5820FD7
:102A8000911D27FD9A958E159F0531F1C880D9803B
:102A90006E2DC6010E948F089D8D412F9923D1F084
:102AA0004095482BB701C6010E94C00B8FA1E80ECC
:102AB000F11C87FDFA94E0CF0597C1F4CE010E9486
:102AC000C60887E090E09EA38DA383E090E09E87F8
:102AD0008D87C1CF4823E6CF8DA19EA197FF04C06B
:102AE00026E030E03E872D870197A6CF86E090E074
:102AF00091CFFF920F931F93CF93DF93EC01F42EAE
:102B00008D859E85662309F444C08430910538F58F
:102B1000019760F1CE010E94E2122DA13EA18AA58B
:102B20009BA528173907E9F008A519A58FA1082E3C
:102B3000000C990B2DA13EA14AA55BA5480F591F7A
:102B40004017510709F464C0F11018C002171307A9
:102B5000C1F48FA1080F111D87FD1A95E7CF0597C6
:102B6000C9F285E090E09E878D8756C0CE010E9415
:102B7000C60883E090E09E878D87CCCF02171307AD
:102B800041F74D8D4195B801888199810E94C00B14
:102B9000E0CF8430910500F5019700F1CE010E944D
:102BA000E21208A519A54AA55BA58FA1082E000C65
:102BB000990B2DA13EA1BA01680F791F601771070B
:102BC00001F1F11013C00217130799F48FA1080F38
:102BD000111D87FD1A95E7CF059721F5CE010E94BB
:102BE000C60883E090E09E878D87D8CF0217130731
:102BF00069F74D8D4195B801888199810E94C00B7C
:102C0000E5CF2417350724F446E050E05E874D8772
:102C1000820F931F9EA38DA3DF91CF911F910F91E0
:102C2000FF90089586E090E09ECFEF92FF920F9381
:102C30001F93CF93DF93EC01162F8D859E85442340
:102C400009F488C08330910528F00397B1F185E03D
:102C500090E02AC069897A898B899C899B01281B0D
:102C6000390BC90137FD01969595879501969EA36D
:102C70008DA31123B9F04D8D11E041274195681BBB
:102C8000790B888199810E94C00B4D8D4127419518
:102C90006B897C898DA19EA1680F791F888199819C
:102CA0000E94C00B83E090E09E878D87DF91CF91DB
:102CB0001F910F91FF90EF9008958DA19EA197FD18
:102CC000C6CFCE010E94E212F12CE12C6DA17EA1B3
:102CD000E616F706C4F44D8D41956B897C896E0D1F
:102CE0007F1D888199810E94C00B4D8D4195698916
:102CF0007A896E197F09888199810E94C00B3FEF04
:102D0000E31AF30AE3CF615071097EA36DA3112387
:102D100069F277FDCBCF4D8D11E0412741958B892D
:102D20009C89680F791F888199810E94C00B4D8D05
:102D30004127419569897A898DA19EA1681B790BEC
:102D400088819981DF91CF911F910F91FF90EF9032
:102D50000C94C00B8330910531F108F077C00197D6
:102D600008F477C0CE010E947610CE010E94E212D4
:102D70001EA21DA2112399F04D8D01E0402741951F
:102D800069897A89888199810E94C00B4D8D40277D
:102D900041956B897C89888199810E94C00B83E071
:102DA00090E09E878D872DA13EA169897A898B89C4
:102DB0009C89AB01481B590BCA0157FD019695959B
:102DC0008795821793070CF444C04D8D4195621B83
:102DD000730B888199810E94C00B4D8D41956B8941
:102DE0007C898DA19EA1680F791F888199810E949D
:102DF000C00B2DA13EA12F5F3F4F3EA32DA311235A
:102E000009F454CF69897A898B899C89AB01481B65
:102E1000590BCA0157FD019695958795821793071F
:102E20000CF444CF4D8D11E041274195621B730B8B
:102E3000888199810E94C00B4D8D412741956B89F6
:102E40007C898DA19EA1680F791F7ACF059709F41F
:102E500089CF86E090E028CFCF92DF92EF92FF9269
:102E60000F931F93CF93DF93EC01162F8D859E85D3
:102E7000442309F458C084309105B0F5019708F453
:102E80003AC0CE010E94E2122DA13EA190E080E066
:102E9000111102C08FEF90E02817390739F1E8A42B
:102EA000F9A42FA18AA59BA5820F911D27FD9A95B4
:102EB0008E159F0581F10D8DC880D9806E2DC601BC
:102EC0000E948F08011180954DA111114095482352
:102ED00001114095B701C6010E94C00B8FA1E80EF9
:102EE000F11C87FDFA94DDCF059759F285E090E05B
:102EF0009E878D8771C0CE010E94C6088FEF90E03B
:102F0000111102C081E090E09EA38DA383E090E0C8
:102F10009E878D87B6CF8DA19EA1112309F457C03E
:102F20009595879557C08430910550F5019750F1DC
:102F3000CE010E94E212E8A4F9A42FA18AA59BA5C4
:102F4000820F911D27FD9A958E159F0559F10D8DC4
:102F5000C880D9806E2DC6010E948F08011180950E
:102F60004DA111114095482301114095B701C601AB
:102F70000E94C00B8FA1E80EF11C87FDFA94DDCFF3
:102F80000597C1F4CE010E94C60881E090E01111BE
:102F900002C08FEF90E09EA38DA383E090E09E8718
:102FA0008D87C6CF8DA19EA1111107C0009709F092
:102FB000B7CF06C086E090E09BCF8F3F910539F4F4
:102FC00026E030E03E872D87112309F4A9CF880F32
:102FD000991F81609EA38DA3DF91CF911F910F91C7
:102FE000FF90EF90DF90CF900895AF92BF92CF9275
:102FF000DF92EF92FF920F931F93CF93DF93EC0139
:10300000F62EE42E8D859E85222309F4D9C08430C6
:10301000910588F50197B0F1CE010E947610CE019E
:103020000E94E2120DA11EA1EE2009F464C0EE245C
:10303000E394F11002C070E8E72ECDA0DEA08CA1D1
:1030400090E0019663E0880F991F6A95E1F70817F1
:103050001907BCF5A880B980602FC5010E948F08B0
:103060009C2D191624F5FF2001F1880F2D8D2111BB
:103070008E299150F6CF059779F285E090E09E87F2
:103080008D8793C087E090E09EA38DA310E000E0C1
:103090002BE030E04CA16BA1888199810E949110B6
:1030A00083E090E09E878D87B7CF8695DFCFB8010C
:1030B0006C197D09482FC5010E94C00B0F5F1F4F7F
:1030C000BCCF10E000E08DA19EA1081719070CF0FD
:1030D00061C04D8D41956CA128E0629FB001112423
:1030E000695F7F4F601B710B888199810E94C00BC3
:1030F0000F5F1F4FE8CF8CA138E0839FC0011124E0
:103100009C01201B310B8901085F1F4FEE24E394C3
:10311000F11002C050E8E52ECDA0DEA08BA138E072
:10312000839FC001112408171907ECF0A880B9800B
:10313000602FC5010E948F089C2D191654F4FF20A2
:1031400031F0880F2D8D21118E299150F6CF869563
:10315000F9CFB8016C0D7D1D482FC5010E94C00B31
:1031600001501109D9CF10E000E08DA19EA10817F0
:10317000190784F44D8D41956BA188E0689FB001DB
:103180001124600F711F888199810E94C00B0F5F0D
:103190001F4FEBCF8DA19EA1009721F425E030E0D9
:1031A0003E872D8701979EA38DA3DF91CF911F911D
:1031B0000F91FF90EF90DF90CF90BF90AF90089568
:1031C0008430910580F5019788F1EE20C1F10CA1C2
:1031D00028E0029F800111240A5F1F4F40E8B42EAF
:1031E000F11002C0BB24B394C880D9808BA138E011
:1031F000839FC0011124081719070CF450C0602FD9
:10320000C6010E948F08482FFF20B9F046958D8D8A
:1032100081114B29B8016F5F7F4FC6010E94C00B1F
:1032200001501109E1CF059709F059C01EA21DA256
:1032300083E090E09E878D87C8CF440FE8CF0BA135
:1032400088E0089F800111240F5F1F4F30E8B32EE4
:10325000F11002C0BB24B394C880D9808CA190E047
:10326000019623E0880F991F2A95E1F7081719079F
:10327000B4F4602FC6010E948F08482FFF2069F028
:1032800046958D8D81114B29B80161507109C60198
:103290000E94C00B0F5F1F4FDFCF440FF2CF88811A
:1032A00099814D8D4195EE2091F06BA128E0629FB0
:1032B000B00111240E94C00B8DA19EA18730910501
:1032C00021F426E030E03E872D8701966CCF6CA17B
:1032D00038E0639FB0011124695F7F4FEBCF86E038
:1032E00090E0CDCECF92DF92FF920F931F93CF93BA
:1032F000DF93EC01F62E8D859E85442309F484C06E
:103300008330910570F0039751F185E090E09E873E
:103310008D87DF91CF911F910F91FF90DF90CF901C
:1033200008951EA21DA2CE010E947610FF2099F0E2
:103330004D8D11E04127419569897A89888199816C
:103340000E94C00B4D8D412741956B897C898881F6
:1033500099810E94C00B83E090E09E878D87CE010B
:103360000E947610CE010E94E2120B891C89898985
:103370009A89801B910B97FD01966C01D594C79497
:103380008DA19EA1080F191FC816D9060CF4BDCF38
:103390000F5F1F4F69897A898DA19EA19B01281B10
:1033A000390B0217130744F44D8D4195B8018881FC
:1033B00099810E94C00BECCF01969EA38DA3FF20A4
:1033C00009F4A7CFC816D9060CF4A3CF4D8D11E090
:1033D00041274195681B790B888199810E94C00B18
:1033E0004D8D412741956B897C898DA19EA1680FE8
:1033F000791F88819981DF91CF911F910F91FF9063
:10340000DF90CF900C94C00B83309105D1F1A0F5E3
:103410000197A0F189899A892B893C89821B930B9A
:1034200097FD0196959587959EA38DA3CE010E9449
:103430007610CE010E94E212FF20D9F04D8D11E0EE
:103440004127419569897A898DA19EA1681B790BD5
:10345000888199810E94C00B4D8D412741956B89D0
:103460007C898DA19EA1680F791F888199810E9416
:10347000C00B83E090E04BCF059761F286E090E0CF
:1034800046CF8DA19EA197FDF9CF4D8D41956989BC
:103490007A89681B790B888199810E94C00B4D8DB8
:1034A00041956B897C898DA19EA1680F791F8881C8
:1034B00099810E94C00B8DA19EA101979EA38DA30F
:1034C000FF2009F426CF97FD24CF4D8D11E0412731
:1034D000419569897A897ECF8F929F92AF92BF92F0
:1034E000CF92DF92EF92FF920F931F93CF93DF93D0
:1034F000EC01F62E8D859E85442309F4E0C08E01F3
:10350000095C1F4F35E0C32ED12C82309105E9F0C4
:1035100050F08330910509F441C0049709F4A8C024
:1035200085E090E00FC0BE01695C7F4FCE010E9434
:103530006F12811103C086E090E004C019AE18AE8E
:1035400083E090E09E878D870DC01FAA88A98823FD
:10355000B1F0DE86CD868D859E852FA9211116C0FE
:10356000059799F7DF91CF911F910F91FF90EF9001
:10357000DF90CF90BF90AF909F908F900895B8014B
:10358000CE010E942B128111E6CFE3CF059751F3B4
:1035900019AE18AE83E090E09E878D878FA98823AF
:1035A00029F121E02F2530E04CA16BA18881998180
:1035B0000E94170F888199816D8D2CA93DA948AD76
:1035C00059AD662301F1BA016F5F7F4F79AF68AFE4
:1035D000240F351FF90140814095FF20F1F06BA1C8
:1035E000F8E06F9FB00111240E94C00B2FA988AD95
:1035F00099AD2817190609F0B5CF88A9811115C012
:1036000082E090E09FCFBA016F5F7F4F79AF68AFE4
:10361000240F351FF9014081E0CF6CA128E0629FA3
:10362000B0011124695F7F4FDFCF29893A89FF20DC
:10363000B1F08F859889A901481B590BCA010196E1
:103640002BA158E0259F80199109112499AF88AFCB
:10365000181619060CF064CF84E090E073CF8CA1AB
:10366000E8E08E9FC00111240796821B930BEECFDA
:1036700021E0262730E04CA16BA1888199810E942E
:10368000170F888199814D8D4195FF2081F06BA1A5
:10369000F8E06F9FB00111240E94C00B88AD99AD76
:1036A000019799AF88AF892B09F05CCF39CF6CA116
:1036B00028E0629FB0011124695F7F4FEDCF843015
:1036C000910539F0059709F036CF84E090E09E87A8
:1036D0008D8721E02F2530E04CA16BA18881998155
:1036E0000E94170F888199814D8D4195FF2009F423
:1036F00045C06BA138E0639FB00111240E94C00B4C
:103700000CA110E0ABA0B12C6801CA18DB088FEF48
:10371000C81AD80A23E0CC0CDD1C2A95E1F78E8D5F
:103720009F8D009721F08C159D0508F46C010F5FAB
:103730001F4F83E0000F111F8A95E1F793E0AA0C59
:10374000BB1C9A95E1F7FF2021F145017401EA18AD
:10375000FB0880169106DCF5682D888199810E940E
:103760008F0890E02D8D222389F02FEF30E0821713
:10377000930769F5EFEF8E1A9E0AE8CF6CA158E027
:10378000659FB0011124695F7F4FB8CF30E020E022
:10379000EECF01501109F12CE12C0A151B05BCF0EC
:1037A000602F888199810E948F0890E02D8D2223BF
:1037B00059F02FEF30E08217930749F401501109B7
:1037C000FFEFEF1AFF0AE9CF30E020E0F4CFEC146E
:1037D000FD0408F0B0CEC6CE2F923F924F925F927A
:1037E0006F927F928F929F92AF92BF92CF92DF9211
:1037F000EF92FF920F931F93CF93DF9300D000D0EF
:1038000000D01F921F92CDB7DEB79B838A830496A8
:103810009D838C8350E040E06AE070E00E943211AA
:10382000212C198206E010E0E5E04E2E512CF3E049
:103830006F2E712CAA81BB8198968C91989728162F
:1038400010F00C94D8249596ED91FC9124E4229EDE
:10385000E00DF11D1124FB87EA8712A2258536852C
:1038600081E02630310509F4CCC1848D882319F11B
:1038700087819085B0E0A0E02530310511F12FB7A8
:10388000F8944091A0025091A1026091A20270911F
:10389000A3022FBFEA85FB85C380D480E580F68034
:1038A0004C195D096E097F09481759076A077B079C
:1038B00040F580E0A6C1AA85BB8519968D919C91A3
:1038C000D9CF2FB7F8944091A0025091A1026091F6
:1038D000A2027091A3022FBFEA85FB85C380D4802A
:1038E000E580F6804C195D096E097F09C384D48494
:1038F000F12CE12C4C155D056E057F0508F0BFCF5E
:10390000D8CFAA85BB8512969C909110D2CF2FB7A5
:10391000F8948091A0029091A102A091A202B0918E
:10392000A3022FBFEA85FB8583839483A583B68397
:1039300081E082A3A4A4B5A4A114B10409F457C1E1
:1039400085859685009709F435C0069709F44FC11F
:10395000AA85BB855C963C905C97332009F4FAC03D
:103960005896ED91FC913197EC31F10508F099C32F
:103970008827E254F34E8F4F0C94132BD61DDF1D76
:10398000061E091E101EE222131E891F54209721B5
:10399000E12021225F246624702469247924722482
:1039A0007B24822485248C248F2497249A249E248B
:1039B000A124A824AA85BB859F96BC92AE929E970F
:1039C0009496EC90B8E0EB9E70011124F7013796C5
:1039D0007F01AA85BB8593968C91B8E08B9FE018F8
:1039E000F1081124EFEFEE1AFE0AD12CC12CD501FB
:1039F0006D915D016623C1F0EA85FB8524A935A997
:103A000070E043A9CF010E94721190E0C80ED91E48
:103A1000892B69F3D5018C91882349F3EA85FB85CD
:103A200086A9C80ED11CE3CFAA85BB855096DC922F
:103A3000CE921F9756968D919C918130910509F4F5
:103A400055C028F0029771F1992493941DC0EA851E
:103A5000FB8584A190E0019673E0880F991F7A9509
:103A6000E1F79C0121503109328B218BEC14FD04CC
:103A700090F483A1F8E08F9FC0011124AA85BB8533
:103A800054969C938E93539781E09826EA85FB8504
:103A9000958A848F5DCF8C199D09EA85FB85948B6F
:103AA000838BD2CFAA85BB8593968C91B8E08B9FF0
:103AB000C0011124EA85FB85948B838BEC14FD04F3
:103AC00068F484A1F8E08F9FC00111240796AA85AD
:103AD000BB8552969C938E935197D6CF0197C80E73
:103AE000D91EEA85FB85D28AC18AAECFAA85BB855D
:103AF00093962C91B8E02B9F90011124EC14FD04B7
:103B000098F4EA85FB8584A1F8E08F9FC001112419
:103B10000796AA85BB8552969C938E93519754968F
:103B20003C932E935397B0CFEC18FD08F694E7948E
:103B3000E20EF31EEA85FB85F48AE38AF1E0CF1AF0
:103B4000D108CE0CDF1CAA85BB855296DC92CE92A2
:103B500051977ACFAA85BB855A96ED91FC91319702
:103B6000EC31F10508F09DC28827E654F24E8F4FE4
:103B70000C94132BC620DF1D061E091E101EE22208
:103B8000131E891F54209721E12021225F246624DF
:103B900070246924792472247B24822485248C2433
:103BA0008F2497249A249E24A124A8248A859B8567
:103BB0000E94E212EA85FB855686458606C0432DA3
:103BC00061E08A859B850E94F713AA85BB855C9678
:103BD0008C915C971D962D913C91882329F081E072
:103BE0002530310509F480E0EA85FB85848F81E08A
:103BF000AA85BB851D962D913C912630310509F093
:103C000058CEB981B82BB983239414CE432D60E0EC
:103C1000D8CF432D61E08A859B850E946C1AD5CF51
:103C2000432D60E0F8CFEA85FB85858596853320B6
:103C300009F4EAC07F01F7E3EF0EF11C8230910531
:103C4000A1F130F0039709F45BC0AA85BB8566C279
:103C50006A857B85695C7F4F8A859B850E946F1290
:103C6000811103C0AA85BB859AC68A859B850E945F
:103C70007610EA85FB8511AE10AE83A1F8E08F9F28
:103C8000C0011124AA85BB8596969C938E93959727
:103C900051968D919C9152979B969C938E939A9757
:103CA0001E967C926E921D9790CFEA85FB8517AA8F
:103CB00080A9882381F0AA85BB851E965C924E92CE
:103CC0001D97EA85FB858585968527A921110BC05F
:103CD000059759F77ACFB7018A859B850E942B12E9
:103CE0008111EFCFE8CF059709F46FCFAA85BB8587
:103CF000D9961C921E92D8971E967C926E921D9712
:103D0000EA85FB8565A176A182A593A504A8F5A9FE
:103D1000E02DAA85BB85D8962D913C91D997E20FCD
:103D2000F31F40816817790751F48D919C91119789
:103D30005D962C91211140950E94C00B3BCF411103
:103D400035C0AA85BB8596969C938E939597EA85F8
:103D5000FB8585A196A122A533A582179307C1F4FF
:103D600020AD31AD43A1F8E04F9FA0011124AA85F9
:103D7000BB8596965C934E9395972F5F3F4FD99650
:103D80003C932E93D89701979B969C938E939A97EA
:103D9000EA85FB8527A980AD91AD2817190609F0A2
:103DA00014CF82E090E0968785870FCFEA85FB8568
:103DB000458D4195808191810E94C00BAA85BB856C
:103DC00095966D917C9196976F5F7F4F96967C93B9
:103DD0006E9395978D919C9111975D96EC915D975F
:103DE000D4962D913C91D597D8964D915C91240F06
:103DF000351FEE2331F0F901408140950E94C00B40
:103E0000A6CFD9014C91FACF8130910508F42ACF81
:103E10008430910568F0059709F024CFEA85FB8589
:103E20008189928993A782A796A385A376866586C2
:103E3000AA85BB85CD90DC9011975D968C918824E6
:103E40008A94912C811102C0912C812CEA85FB85EA
:103E5000A388B488AA85BB859596ED90FC906E2DBD
:103E6000C6010E948F08EA85FB8522A533A5881527
:103E7000190451F42A153B053CF0C901019793A799
:103E800082A736A325A3E6CF2F5F3F4F2A153B0518
:103E90000CF4E8CEEA85FB8524A1F8E02F9F900181
:103EA0001124295F3F4FE216F3063CF4B7016F5F20
:103EB0007F4F482FC6010E94C00BAA85BB855D9627
:103EC0004C915D97419595966D917C9196978D91CA
:103ED0009C910E94C00BEA85FB8525A136A12F5F2E
:103EE0003F4F36A325A384A190E0019643E0880FBD
:103EF000991F4A95E1F72817390709F066CE82A580
:103F000093A59C012150310933A722A796A385A32D
:103F10005CCEEA85FB8585859685332009F467C0EC
:103F20008430910508F042C0019708F443C08A85A7
:103F30009B850E9476108A859B850E94E212EA8505
:103F4000FB8593A0990C990C990C88248394AA85DD
:103F5000BB859596ED90FC90969794968C9194974E
:103F600090E0019623E0880F991F2A95E1F7A92C8C
:103F7000B12CA816B90674F5CD90DC90692DC60158
:103F80000E948F08482F50E087E090E08E199F092B
:103F90003320D9F002C0559547958A95E2F7B501CF
:103FA000C6010E94C00B38249394D1CF059709F421
:103FB000BECF00CEAA85BB8596961C921E92959781
:103FC0001E967C926E921D97B2CF01C0440F8A95C7
:103FD000EAF7E5CFBFEFEB1AFB0AEA85FB85F6A20D
:103FE000E5A2F8E0EF16F10409F0EFCD2ECE843013
:103FF000910598F50197A0F1AA85BB8593969C90B1
:10400000990C990C990C8824839433243394EA8571
:10401000FB85E5A0F6A084A190E00196B3E0880FAF
:10402000991FBA95E1F7A92CB12CA816B9065CF531
:10403000C080D180692DC6010E948F08482F50E0B2
:104040008820D9F001C0440FEA94EAF7B501C6010F
:104050000E94C00B83249394DACF059709F002CE17
:10406000E1E0F0E0AA85BB859696FC93EE939597E8
:104070001E967C926E921D97BFCF02C055954795B4
:10408000EA94E2F7E3CFFFEFEF1AFF0AAA85BB85B8
:104090009696FC92EE929597B8E0EB16F10409F033
:1040A00094CDEA85FB8508C4EA85FB8585859685E0
:1040B000332009F45AC08430910500F5823091050F
:1040C00000F5009781F1019709F0BFCDAA85BB8566
:1040D00095966D917C919697CB01019696969C93BF
:1040E0008E939597CD010E9421118A859B850E9410
:1040F000E212EA85FB857686658667CD059709F02D
:10410000A4CDAA85BB8595966D917C9196979A963C
:104110008D919C919B9786179707ECF41E965C9265
:104120004E921D9752CDAA85BB8596961C921E92E3
:10413000959791968C91919790E09B969C938E93F6
:104140009A97CD010E94761021E030E0EA85FB8548
:10415000368725873ACDCB010196EA85FB8596A364
:1041600085A3CF010E94211130CD8430910598F4B0
:104170000197A0F0EA85FB8565A176A1CB010197A7
:1041800077FFEBCF62A5CF010E9421118A859B8525
:104190000E94761067CD059709F064CDEA85FB850E
:1041A00061A1862F90E093A782A796A385A3CF0154
:1041B0000E9421118A859B850E94E212AA85BB85F7
:1041C0006FCDEA85FB85858596858230910509F45A
:1041D0005DC048F4009769F00197B9F031102EC125
:1041E00086E090E0E6C08330910509F492C005971F
:1041F000A9F7AA85BB8596961C921E929597E1E039
:10420000F0E01E96FC93EE931D97AA85BB859596CC
:104210008D919C919697019696969C938E939597E7
:104220009396EC90B8E0EB9E70011124DD24D394BA
:10423000EA85FB8525A136A184A190E00196A3E043
:10424000880F991FAA95E1F7E816F90694F4C701BB
:10425000837099278217930744F4458D4D25419526
:10426000B701808191810E94C00BFFEFEF1AFF0A16
:10427000DFCF82E090E02430310509F0A6CCAA859A
:10428000BB851E969C938E931D979FCC8A859B859C
:104290000E947610332021F08A859B850E94E212CD
:1042A000EA85FB8585A196A1019796A385A3E3A046
:1042B000F8E0EF9E70011124DD24D394AA85BB851C
:1042C00095962D913C91969794968C91949790E029
:1042D0000196F3E0880F991FFA95E1F7E816F906C1
:1042E000A4F4C701837099278217930754F45D964D
:1042F0004C915D974D254195B7018D919C910E9400
:10430000C00BBFEFEB1AFB0AD9CF232B09F05DCC12
:10431000F0CE8A859B850E947610332009F412C165
:104320008A859B850E94E21285E090E0A8CFAA854D
:10433000BB851D968D919C918230910509F43CC0FE
:1043400038F08330910509F46EC0059709F0F8C084
:10435000EA85FB85E3A0F8E0EF9E70011124AA85B1
:10436000BB8594968C91949790E00196E3E0880F3A
:10437000991FEA95E1F7E816F906CCF45D96BC9032
:104380005D97CD90DC906E2DC6010E948F08B11014
:10439000809545E5E0FE4AEA482BB1104095B7010B
:1043A000C6010E94C00BBFEFEB1AFB0AD8CF82E018
:1043B00090E0EA85FB85F7CC8A859B850E94761084
:1043C000332021F08A859B850E94E212AA85BB8555
:1043D0009396EC90B8E0EB9E70011124EA85FB8582
:1043E00084A190E0019673E0880F991F7A95E1F718
:1043F000E816F9060CF0E2CEB58CC080D1806E2DA7
:10440000C6010E948F08B11080954AEAE0FE45E59A
:10441000482BB1104095B701C6010E94C00BFFEFB9
:10442000EF1AFF0ADBCF8A859B850E947610332026
:1044300009F4D6CE8A859B850E94E21285E090E041
:10444000B8CFEA85FB85858596858430910508F08F
:104450007CC0019708F47CC0EA85FB8516A215A2F2
:104460000E94232A4B015C010E94232A6E837F83D2
:1044700088879987AA85BB859596CD90DC90BFEFFC
:10448000CB1ADB0AEA85FB85D6A2C5A2C501B40119
:104490002BE030E040E050E00E94B02A70E09B0149
:1044A0002E563D4F7901D901BC906E817F81888560
:1044B000998528E030E040E050E00E94B02A8B2D42
:1044C00090E0062E02C0959587950A94E2F780FF4A
:1044D00005C0B8E8CB16B3E1DB0614F281E090E04A
:1044E00001C0880F6A95EAF7B82AF701B0828A8579
:1044F0009B850E94E212AA85BB8596961C921E920D
:1045000095979396BC90BB0CBB0CBB0CEA85FB85C6
:1045100084A190E0019663E0880F991F6A95E1F706
:10452000CB2CD12CC816D90614F1E2E9F2E0819126
:104530008F3F09F04ACB2AE932E02E173F07B9F73F
:104540003110F2CE86E090E09ACE059709F046CE83
:10455000E2E9F2E011922DE932E02E173F07D1F7A0
:10456000AA85BB851E967C926E921D9775CFAA85F3
:10457000BB85ED90FC906B2DC7010E948F08AA852A
:10458000BB859596ED91FC91EE56FD4F4081311023
:1045900001C040954823B601C7010E94C00BEA85BF
:1045A000FB8585A196A101968B30910521F096A3FC
:1045B00085A3B394ABCFAA85BB8596961C921E9219
:1045C0009597F7CFAA85BB851D968D919C9131104B
:1045D000C6C18430910508F0BEC1019778F58A857F
:1045E0009B850E94C608EA85FB8580A591A522A52A
:1045F00033A58217930724F431A720A793A782A796
:10460000AA85BB85DE968D919C91DF97892B09F455
:10461000C6C1EA85FB8583A1F8E08F9FC001112404
:104620000197AA85BB8596969C938E9395979796AE
:104630001C9297971E967C926E921D978A859B85F9
:104640000E94E212EA85FB8585A196A1019696A3B8
:1046500085A3F12C6F01F1E4CF0ED11CD6012C9172
:10466000EA85FB8565A176A1822F90E0F21608F01D
:10467000E1C04F2D50E0641B750B84A190E00196C2
:1046800033E0880F991F3A95E1F7681779072CF501
:1046900083A1F8E08F9FC001112468177907ECF01F
:1046A000AA85BB858D919C91119797963C91979780
:1046B000320390011124420F531FDE96ED91FC91BD
:1046C000DF97E40FF51F5D962C91222309F4B0C00B
:1046D000E4914E2F40950E94C00BF394BFCFEA8522
:1046E000FB8517A284A190E0019653E0880F991FE3
:1046F0005A95E1F796A385A3768665868A859B857C
:104700000E94E212AA85BB8595968D919C91969701
:10471000019796969C938E939597F12C6D01B0E43A
:10472000CB0ED11CF6012081AA85BB8595966D9193
:104730007C919697F21608F03AC0EF2DF0E06E0FDC
:104740007F1F94968C91949790E0019643E0880F98
:10475000991F4A95E1F7681779072CF593968C9184
:10476000B8E08B9FC001112468177907E4F0AA858F
:10477000BB858D919C91119797964C919797420389
:10478000A00111244E0F5F1FDC96ED91FC91DD9787
:10479000E40FF51F5D962C91222339F0E4914E2F02
:1047A00040950E94C00BF394BDCF4491FACF7B019A
:1047B000B1E0EB1AF108EA85FB8582A593A5E8161E
:1047C000F9065CF0458D4195B701808191810E9489
:1047D000C00BF1E0EF1AF108EECFAA85BB859796E2
:1047E0008C9197978F5F97968C939797082E000CD4
:1047F000990BFD01EE5BFF4F20812817190609F088
:1048000014F497961C92EA85FB8583A1F8E08F9FAC
:10481000C0011124D6012C91821B91090197EA85D0
:10482000FB8525A136A12817390709F0CEC9C4C9CF
:10483000449151CF7B01E81AF90AEA85FB8582A5EC
:1048400093A5E816F9065CF0458D4195B701808186
:1048500091810E94C00BF1E0EF1AF108EECFAA851A
:10486000BB8597968C9197978F5F97968C93979728
:10487000082E000C990BFD01ED5BFF4F20812817DE
:10488000190609F014F497961C92EA85FB8584A119
:10489000F8E08F9F90011124295F3F4FD6018C9142
:1048A000820F932F911D0196EA85FB8525A136A1E4
:1048B0002817390709F089C91687058786C9432D46
:1048C00060E08A859B850E9437137FC9432D61E094
:1048D000F8CF41E0632D8A859B850E94791575C9C3
:1048E00040E0F8CF41E0632D8A859B850E94C0148B
:1048F0006CC940E0F8CF432D60E08A859B850E941B
:10490000151663C9432D61E0F8CF432D60E08A8519
:104910009B850E94721959C9432D61E0F8CF232D60
:1049200041E061E08A859B850E94F5174EC9232DE1
:1049300040E0F7CF232D41E060E0F4CF232D40E0AD
:10494000FBCF432D61E08A859B850E942C173DC9D2
:10495000432D60E0F8CF059709F441CE83C9843038
:10496000910510F5019708F0C9CE8A859B850E94B4
:10497000C608EA85FB8580A591A522A533A58217E7
:10498000930724F431A720A793A782A7AA85BB8504
:10499000DC968D919C91DD97892B09F0A0CE1E9617
:1049A0001C930E931D9711C9059709F4A7CE4DC905
:1049B00041E050E06AE070E08C819D810E943211FC
:1049C00089812B960FB6F894DEBF0FBECDBFDF9165
:1049D000CF911F910F91FF90EF90DF90CF90BF90FC
:1049E000AF909F908F907F906F905F904F903F908F
:1049F0002F900895AF92BF92CF92DF92EF92FF92E5
:104A00000F931F93CF93DF93EC015B0188A541E0E7
:104A100050E0882321F0EDA1FEA146895789D12CD1
:104A2000C12CEE24E394F12C10E000E030E020E013
:104A3000B501CE010E945204CE010E94EC1B8111EF
:104A4000FBCFF50101900020E9F7CF0101978A190A
:104A50009B09DF91CF911F910F91FF90EF90DF9015
:104A6000CF90BF90AF9008951F920F920FB60F9204
:104A700011240BB60F922F933F934F935F936F9335
:104A80007F938F939F93AF93BF93EF93FF938DEAA1
:104A900092E00E947705FF91EF91BF91AF919F91B6
:104AA0008F917F916F915F914F913F912F910F90D7
:104AB0000BBE0F900FBE0F901F9018951F920F9274
:104AC0000FB60F9211240BB60F922F938F939F93D3
:104AD000EF93FF93E091BD02F091BE028081E091DF
:104AE000C302F091C40282FD1DC090818091C60274
:104AF0008F5F8F732091C702821741F0E091C60249
:104B0000F0E0E355FD4F958F8093C602FF91EF9142
:104B10009F918F912F910F900BBE0F900FBE0F9012
:104B20001F9018958081F2CF1F920F920FB60F92AF
:104B300011242F933F938F939F93AF93BF938091B3
:104B4000A0029091A102A091A202B091A302309183
:104B50009F0223E0230F2D3758F50196A11DB11DAB
:104B600020939F028093A0029093A102A093A2029F
:104B7000B093A3028091A4029091A502A091A602F5
:104B8000B091A7020196A11DB11D8093A40290933C
:104B9000A502A093A602B093A702BF91AF919F91E7
:104BA0008F913F912F910F900FBE0F901F901895EE
:104BB00026E8230F0296A11DB11DD2CFEDEAF2E047
:104BC0001382128288EE93E0A0E0B0E084839583A4
:104BD000A683B78383E392E0918380838DEC90E09A
:104BE000958784878CEC90E09787868788EC90E0A7
:104BF000918B808B89EC90E0938B828B8AEC90E098
:104C0000958B848B8EEC90E0978B868B118E128E19
:104C1000138E148EEBE4F3E01382128285E492E0AB
:104C200091838083118612868AE0838781E084875E
:104C30002AE433E03687258792E09787808F21E04A
:104C400030E03583248386831782108697A30895E6
:104C5000CF93DF93CDB7DEB72C970FB6F894DEBFB6
:104C60000FBECDBF789484B5826084BD84B5816069
:104C700084BD85B5826085BD85B5816085BD809127
:104C80006E00816080936E0010928100809181009F
:104C90008260809381008091810081608093810097
:104CA000809180008160809380008091B100846059
:104CB0008093B1008091B00081608093B0008091BA
:104CC0009100826080939100809191008160809337
:104CD0009100809190008160809390008091A1006C
:104CE00082608093A1008091A10081608093A100E7
:104CF0008091A00081608093A0008091210182605A
:104D00008093210180912101816080932101809114
:104D1000200181608093200180917A0084608093DB
:104D20007A0080917A00826080937A0080917A0084
:104D3000816080937A0080917A00806880937A0005
:104D40001092C10080915703882309F4E6C01FB771
:104D5000F8948091A802811127C0EDE9F7E08491D1
:104D6000E3EEF7E09491E82FF0E0EE0FFF1FE65F2F
:104D7000FD4FA591B491EC91E92321F461E085E325
:104D80000E949E0661E085E30E94CC068CB580619E
:104D90008CBD8CB580648CBD61E084E30E94CC0640
:104DA00061E083E30E94CC068091A8028F5F80932C
:104DB000A8021FBF61E0809156030E94CC0661E00B
:104DC000809156030E949E061092600310925F032A
:104DD000109262031092610310915A0329E0129F0E
:104DE000C00111240E941B2B90935C0380935B03F2
:104DF000812F90E0880F991F0E941B2B90935E03D8
:104E000080935D0380916503909166038452924084
:104E100051F084E292E090936603809365038FE4FF
:104E200093E00E94540750E040E063E070E08FE4BC
:104E300093E00E94321147E050E061E070E08FE4BF
:104E400093E00E94321147E050E062E070E08FE4AE
:104E500093E00E94321150E040E064E070E08FE4A3
:104E600093E00E94321140915A03415060E08FE478
:104E700093E00E94EF0E50E040E070E060E08FE4CD
:104E800093E00E94321111E01093730386E490E0E6
:104E90000E941B2BFC0181E090E0918380831382B0
:104EA00012821482158216821782108686E090E0A4
:104EB000908B878711A210A212A217A616A614AA79
:104EC00013AA15AA17AA16AA10AF15AE14AE17AEDC
:104ED00016AEDF01A05CBF4F1D921C923296F0937C
:104EE0007103E093700310E004E46FE4E62E63E0E6
:104EF000F62E80917303E0917003F09171031817FF
:104F0000B8F4CF01109F800D911D1124FC01F18296
:104F1000E0820E9494091F5FECCF61E0809154030E
:104F20000E94CC0661E0809155030E94CC0642CFDE
:104F3000813041F4209172039FEF920F921710F489
:104F400013A294A3DF0190E02AE030E0891761F01A
:104F500018963C932E9317971A963C932E93199775
:104F60009F5FAC5BBF4FF2CF8823C9F087819085EC
:104F70004AE0489F9001499F300D112480E094E45D
:104F800040917303841770F4DF01899FA00DB11D58
:104F900011241C963C932E931B978F5FF1CF90E0CA
:104FA00080E0E6CF10E054E4F52E01E0409170037C
:104FB0005091710380917303181760F4CA011F9D0B
:104FC000800D911D1124DC01D6960C930E9494094A
:104FD0001F5FECCF90E084E420917303921748F4B4
:104FE000FA01989FE00DF11D1124178E168E9F5F18
:104FF000F3CF90E084E420917303FA01921768F0F4
:1050000090E061E070E0921781F0718F608F138EF5
:10501000128E9F5FEC5BFF4FF6CF989FE00DF11D66
:105020001124178A168A9F5FE6CF90E084E42091CE
:105030007303921740F4FA01989FE00DF11D1124BB
:10504000158E9F5FF4CFE091BD02F091BE0282E029
:105050008083E091B902F091BA021082E091BB0224
:10506000F091BC028FEC80831092C502E091C102E6
:10507000F091C20286E08083E091BF02F091C0020D
:10508000808180618083E091BF02F091C0028081C5
:1050900088608083E091BF02F091C00280818068C7
:1050A0008083E091BF02F091C00280818F7D808378
:1050B00060E082E00E94CC06F090730300917003E0
:1050C00010917103E0E0F2E028EE33E0B2E0E43268
:1050D000FB0709F0EAC096EF492E97E0592E20EB26
:1050E000822E27E0922E3AE6632E37E0732E332489
:1050F00033944CE0242EF2018491F401B490F30136
:10510000A490AA2009F455C081110E943706EA2D07
:10511000F0E0EE0FFF1FE25BF84FA591B4918C9188
:10512000B82209F446C080912402882309F441C0C2
:105130006091AB027091AC02CE0101960E94380AD8
:1051400018861F821A8619861C861B8643E150E04A
:1051500062E572E0CE0107960E940D0A4D815E81E4
:1051600069817A81CE0107960E94E10981110CC004
:105170008F819885009711F00E94B72B18861F82A7
:105180001C861B861A861986CE0107960E94170573
:10519000CE0107960E948C09CE0101960E948C09CF
:1051A0008091AB029091AC0201969093AC028093F7
:1051B000AB023092240264E670E080E090E00E944E
:1051C00022078BE493E00E94EC1B882309F46AC059
:1051D0006091A9027091AA02CE0101960E94380A3C
:1051E00018861F821A8619861C861B8648E050E0A6
:1051F00066E672E0CE0107960E940D0A4D815E813F
:1052000069817A81CE0107960E94E10981110CC063
:105210008F819885009711F00E94B72B18861F8206
:105220001C861B861A861986CE0107960E941705D2
:10523000CE0107960E948C09CE0101960E948C092E
:105240008091A9029091AA02039721F41092AA02D8
:105250001092A902A090A902B090AA022A9CF00183
:105260002B9CF00D1124E050FE4FC280D380E080D3
:10527000F1800085118526813781428553856481BF
:1052800075818BE493E00E94520460ED77E080E04A
:1052900090E00E942207FFEFAF1ABF0AB092AA0265
:1052A000A092A9020E94060626CF90E080E0FF208F
:1052B00021F0D80117968D919C9166817781689F26
:1052C000A001699F500D789F500D1124578346838C
:1052D00040855185429FC001439F900D529F900D84
:1052E0001124918780873C96F1CE0F931F93CF9323
:1052F000DF9385E492E090934C0380934B03C0913D
:105300007003D0917103209759F1FE0132972081EB
:10531000318144E4429FC001439F900D1124C80F86
:10532000D91F80917003909171038C179D07A1F094
:10533000C454D10989A99AA9009739F0FC010481C4
:1053400015810E94B72BC801F7CF8CA99DA90097A2
:1053500041F30E94B72BE5CFCE0102970E94B72BF5
:1053600080915703882399F09FB7F8948091A80201
:10537000882319F081508093A8028091A80281119E
:1053800005C08CB58F7B8CBD10929E029FBF809113
:105390005B0390915C030E94B72B80915D03909119
:1053A0005E03DF91CF911F910F910C94B72B8F92D9
:1053B0009F92AF92BF92CF92DF92EF92FF92CF93E4
:1053C000DF93EC01688179818A819B816115710588
:1053D0008105910521F464E279ED8BE597E02DE1FB
:1053E00033EF41E050E00E94B02A49015A019B018D
:1053F000AC01A7EAB1E40E94CF2A6B017C01ACEEBC
:10540000B4EFA50194010E94DD2AC60ED71EE81E46
:10541000F91EF7FE06C081E0C81AD108E10880E84D
:10542000F80AC882D982EA82FB82C701B6019F7757
:10543000DF91CF91FF90EF90DF90CF90BF90AF9032
:105440009F908F9008958F929F92AF92BF92CF922C
:10545000DF92EF92FF926091250270912602809177
:10546000270290912802611571058105910521F4AB
:1054700064E279ED8BE597E02DE133EF41E050E018
:105480000E94B02A49015A019B01AC01A7EAB1E48C
:105490000E94CF2A6B017C01ACEEB4EFA501940110
:1054A0000E94DD2AC60ED71EE81EF91EF7FE06C0B2
:1054B00081E0C81AD108E10880E8F80AC092250204
:1054C000D0922602E0922702F0922802C701B6018C
:1054D0009F77FF90EF90DF90CF90BF90AF909F901D
:1054E0008F9008956093250270932602809327027F
:1054F000909328020895BB274A3031F4992322F46F
:10550000BDE2909581959F4F0C94872ABB27FB01A4
:105510005527AA27880F991FAA1FA41710F0A41BAC
:1055200083955051B9F7A05DAA3308F0A95DA19306
:10553000009779F7B111B1931192CB010C94A02A85
:10554000DC01FC01672F71917723E1F7329704C0EA
:105550007C916D9370836291AE17BF07C8F3089575
:10556000052E97FB1EF400940E94C72A57FD07D012
:105570000E94E22A07FC03D04EF40C94C72A5095EF
:105580004095309521953F4F4F4F5F4F089590952F
:105590008095709561957F4F8F4F9F4F08950E9422
:1055A000042BA59F900DB49F900DA49F800D911D7D
:1055B00011240895B7FF0C94CF2A0E94CF2A821B92
:1055C000930B0895A1E21A2EAA1BBB1BFD010DC06F
:1055D000AA1FBB1FEE1FFF1FA217B307E407F507A3
:1055E00020F0A21BB30BE40BF50B661F771F881F7F
:1055F000991F1A9469F760957095809590959B0115
:10560000AC01BD01CF010895A29FB001B39FC001BD
:10561000A39F700D811D1124911DB29F700D811DDE
:105620001124911D0895EE0FFF1F881F8BBF079057
:10563000F691E02D19940F931F93CF93DF9382304F
:10564000910510F482E090E0E0917603F091770309
:1056500030E020E0B0E0A0E0309799F4211531056A
:1056600009F44AC0281B390B24303105D8F58A814A
:105670009B816115710589F1FB0193838283FE0192
:1056800011C0408151810281138148175907E0F010
:105690004817590799F4109761F012960C931297D6
:1056A00013961C933296CF01DF91CF911F910F91EA
:1056B00008950093760310937703F4CF21153105F5
:1056C00051F04217530738F0A901DB019A01BD01DF
:1056D000DF01F801C1CFEF01F9CF909377038093F9
:1056E0007603CDCFFE01E20FF31F819391932250F9
:1056F000310939832883D7CF209174033091750302
:10570000232B41F420912B0230912C02309375030E
:10571000209374032091290230912A02211531052A
:1057200041F42DB73EB740912D0250912E02241B1B
:10573000350BE0917403F0917503E217F307A0F4C1
:105740002E1B3F0B2817390778F0AC014E5F5F4FD7
:105750002417350748F04E0F5F1F50937503409391
:105760007403819391939FCFF0E0E0E09CCFCF93BF
:10577000DF930097E9F0FC01329713821282A09127
:105780007603B0917703ED0130E020E01097A1F4AB
:1057900020813181820F931F209174033091750312
:1057A0002817390709F061C0F0937503E09374037B
:1057B000DF91CF910895EA01CE17DF07E8F54A811E
:1057C0005B819E0141155105B1F7E901FB83EA8335
:1057D00049915991C40FD51FEC17FD0761F48081E1
:1057E00091810296840F951FE901998388838281B4
:1057F00093819B838A83F0E0E0E012968D919C91E7
:1058000013970097B9F52D913C911197CD01029610
:10581000820F931F20917403309175032817390765
:1058200039F6309751F51092770310927603B093C2
:105830007503A0937403BCCFD383C283408151818D
:10584000840F951FC817D90761F44E5F5F4F888199
:105850009981480F591F518340838A819B8193838B
:1058600082832115310509F0B0CFF0937703E093DF
:1058700076039ECFFD01DC01C0CF13821282D7CF09
:105880004F925F926F927F928F929F92AF92BF9250
:10589000CF92DF92EF92FF920F931F93CF93DF93FC
:1058A0008C01009799F4CB01DF91CF911F910F915B
:1058B000FF90EF90DF90CF90BF90AF909F908F9030
:1058C0007F906F905F904F900C941B2BFC01E60F24
:1058D000F71F9C0122503109E217F30708F4AEC00C
:1058E000D901CD91DC911197C617D70720F1C530AA
:1058F000D10578F0CE0104978617970750F0C61BA4
:10590000D70B2297C193D1936D937C93CF010E94C3
:10591000B72BC801DF91CF911F910F91FF90EF90AE
:10592000DF90CF90BF90AF909F908F907F906F90BF
:105930005F904F9008955B01AC1ABD0A4C018C0E2C
:105940009D1EA0917603B0917703512C412CF12C30
:10595000E12C109731F580917403909175038815AF
:10596000990509F05CC04616570608F058C08091AA
:10597000290290912A02009741F48DB79EB7409179
:105980002D0250912E02841B950BE817F90708F0A1
:1059900055C0F0937503E0937403F901718360833C
:1059A000B8CF8D919C91119712966C901297139687
:1059B0007C901397A815B90559F56C0142E0C40E07
:1059C000D11CCA14DB0420F1AC014A195B09DA01CD
:1059D0001296159780F06282738251834083D901B9
:1059E0006D937C93E114F10471F0D7011396FC934D
:1059F000EE9312978ECF22968C0F9D1FF901918303
:105A00008083F301EFCFF0937703E093760381CFA8
:105A10004816590608F42C017D01D3019ACFCB0119
:105A20000E941B2B7C01009749F0AE01B8010E9437
:105A3000212DC8010E94B72B87016BCF10E000E039
:105A400068CFFB01DC0102C001900D924150504033
:105A5000D8F70895DC0101C06D9341505040E0F744
:105A60000895FB01DC0101900D920020E1F70895FB
:105A700014E0CEE1D4E000E006C0802FFE010E94D9
:105A8000132B2196011DCF31D10780E00807A9F71C
:105A9000F894FFCF040004006F020400000000002F
:105AA0000C001C007B020100020001000400040045
:105AB0007E020500000000000101000000000078E7
:105AC000038000000000009905EA043005E6056146
:105AD000053F05530500000000E6083F110009FFDF
