:100000000C9431010C9462010C9462010C94620115
:100010000C9462010C9462010C9462010C946201D4
:100020000C9462010C9462010C9462010C946201C4
:100030000C9462010C9462010C9462010C946201B4
:100040000C9462010C9462010C9462010C946201A4
:100050000C9462010C9462010C9462010C943B06B6
:100060000C9462010C9405060C94DB050C9462015F
:100070000C9462010C9462010C9462010C94620174
:100080000C9462010C9462010C9462010C94620164
:100090000C94A5050C947B050C9462010C946201F0
:1000A0000C9462010C9462010C9462010C94620144
:1000B0000C9462010C9462010C9462010C94620134
:1000C0000C9462010C9462010C9462010C94620124
:1000D0000C9462010C9462010C9462010C94620114
:1000E0000C9462010C946E030C94E8040C946E0260
:1000F0000C9484030C94BB020C9480030C94640352
:100100000C947C030C943D030C94B8010C945B0399
:100110000C9495030C9468030C94FB010C941E0240
:100120000C944F030C940A020C945E030C94570336
:100130000C9476030C942C020C9472030C94850698
:100140000C948A030C9453030C9438030C948E0380
:100150000C9494030C940C0900000A0B02090C0D7A
:100160000E0807030401000000000000000000006A
:10017000000000000000000000000000000000007F
:10018000000000001211100000000000000000003C
:10019000000000000000000000000000000000005F
:1001A0002200250028002B002E003100340002011F
:1001B0000000050108010B010000210024002700B8
:1001C0002A002D0030003300010100000401070166
:1001D0000A010505050507050808080802020202CC
:1001E0000A0A0808040404040101010101010101D3
:1001F0000303030303030303040707070C0C0C0C9E
:100200000C0C0C0C02020202060606060606060686
:100210000B0B0B0B0B0B0B0B010210202008081013
:100220002040102040800201020108040201010266
:10023000040810204080804020100804020180043F
:10024000020180402010080402010804020101029A
:100250000408102040800102040810204080850618
:100260000C0911241FBECFEFD1E2DEBFCDBF00E0ED
:100270000CBF24E0A0EDB2E001C01D92A536B2078C
:10028000E1F712E0A0E0B2E0E2EDF6E100E00BBF42
:1002900002C007900D92A03DB107D9F711E0C0E36D
:1002A000D1E000E006C021970109802FFE010E94E5
:1002B0003009CF32D10780E00807A9F70E942B0749
:1002C0000C94570B0C94000090E0FC01E85EFD4F8D
:1002D00024918E529E4FFC018491882399F090E0E6
:1002E000880F991FFC01E854FE4FA591B491FC01C1
:1002F000E256FE4F859194918FB7F894EC91E22BE2
:10030000EC938FBF0895FC01A089B18982E08C93A2
:10031000A485B5851C92A685B7858FEC8C93108E2D
:10032000A489B58986E08C93A289B3898C91806178
:100330008C93A289B3898C9188608C93A289B389AC
:100340008C9180688C930288F389E02D80818F7D69
:1003500080830895DB0114964D915C9115976D9102
:100360007C91DC01ED91FC910280F381E02D1994E8
:10037000AF92BF92CF92DF92EF92FF920F931F93B3
:10038000CF93DF936C017B018B01040F151FEB01F1
:100390005E01AE18BF08C017D10759F06991D601A8
:1003A000ED91FC910190F081E02DC6011995892B0A
:1003B00079F7C501DF91CF911F910F91FF90EF90D9
:1003C000DF90CF90BF90AF900895CF93DF9363E11C
:1003D00074E089ED92E00E94AA01EC0142E050E055
:1003E00066E272E089ED92E00E94B8018C0F9D1FD9
:1003F000DF91CF910895FC01538D448D252F30E07E
:10040000842F90E0821B930B541710F0CF96089521
:1004100001970895FC01918D828D981761F0A28D4E
:10042000AE0FBF2FB11D5D968C91928D9F5F9F7314
:10043000928F90E008958FEF9FEF0895FC01918DCA
:10044000828D981731F0828DE80FF11D858D90E037
:1004500008958FEF9FEF0895FC01918D228D892FD4
:1004600090E0805C9F4F821B91098F7399270895BC
:1004700089ED92E00E942C0221E0892B09F420E012
:10048000822F089586E793E00E942C0221E0892BB9
:1004900009F420E0822F0895FC01A48DA80FB92F44
:1004A000B11DA35ABF4F2C91848D90E001968F739C
:1004B0009927848FA689B7892C93A089B1898C91BB
:1004C000837080648C93938D848D981306C002880A
:1004D000F389E02D80818F7D80830895EF92FF92D4
:1004E0000F931F93CF93DF93EC0181E0888F9B8D57
:1004F0008C8D98131AC0E889F989808185FF15C011
:100500009FB7F894EE89FF896083E889F989808133
:100510008370806480839FBF81E090E0DF91CF9102
:100520001F910F91FF90EF900895F62E0B8D10E024
:100530000F5F1F4F0F731127E02E8C8D8E110CC093
:100540000FB607FCFACFE889F989808185FFF5CFDE
:10055000CE010E944C02F1CFEB8DEC0FFD2FF11D6F
:10056000E35AFF4FF0829FB7F8940B8FEA89FB891B
:1005700080818062CFCFCF93DF93EC01888D882379
:10058000B9F0AA89BB89E889F9898C9185FD03C0F6
:10059000808186FD0DC00FB607FCF7CF8C9185FFDB
:1005A000F2CF808185FFEDCFCE010E944C02E9CFD2
:1005B000DF91CF91089580E090E0892B29F00E948F
:1005C000420281110E94000080E090E0892B29F016
:1005D0000E94380281110E94000080E090E0892B87
:1005E00049F080E090E0892B29F00E940000811101
:1005F0000E94000080E090E0892B49F080E090E0CC
:10060000892B29F00E94000081110C9400000895AC
:10061000282F30E0F901E85AFE4F9491F901E85E85
:10062000FD4F44912E523E4FF9012491222309F4AB
:1006300035C0992311F191509231F8F4E92FF0E08F
:100640008827EA5DFC4F8F4F0C94300957035B03FA
:1006500038034F0353033D035E03640368036E03D3
:10066000720376037C0380033D0384038A038E03B5
:10067000809180008F7780938000E22FF0E0EE0F72
:10068000FF1FE256FE4FA591B4918FB7F894EC91FD
:10069000611148C040954E234C938FBF08958091BF
:1006A00080008F7DE8CF80918000877FE4CF84B584
:1006B0008F7784BDE2CF84B58F7DFBCF8091B00072
:1006C0008F778093B000D9CF8091B0008F7DF9CF24
:1006D000809190008F7780939000CFCF8091900091
:1006E0008F7DF9CF80919000877FF5CF8091A0001A
:1006F0008F778093A000C1CF8091A0008F7DF9CF2C
:100700008091A000877FF5CF809120018F77809323
:100710002001B3CF809120018F7DF9CF80912001FE
:10072000877FF5CF4E2BB8CF089590E080E00895F5
:10073000CF93DF93EC0160E08E810E94080361E0BB
:100740008E810E94080360E08E810E9408038BE87E
:1007500091E00197F1F7DF91CF910895CF92DF9269
:10076000EF92FF920F931F93CF93DF936C017C0165
:1007700087E0E80EF11CD0E0C0E0062F10E0B801E1
:100780000C2E02C0759567950A94E2F76170F70127
:1007900081917F010E9408032196C430D10579F729
:1007A000C601DF91CF911F910F91FF90EF90DF90E5
:1007B000CF900C949803CF92DF92EF92FF920F9319
:1007C0001F93CF93DF93EC01F62E642F8C810E9450
:1007D00008038D818F3F19F060E00E9408030F2D00
:1007E00010E08F8584FF25C06E0187E0C80ED11C04
:1007F000F12CE12CB8010E2C02C0759567950A9476
:10080000E2F76170F60181916F010E940803FFEF2A
:10081000EF1AFF0A88E0E816F10461F7CE01DF91D4
:10082000CF911F910F91FF90EF90DF90CF900C949C
:100830009803B80184E0759567958A95E1F7CE0134
:100840000E94AE036F2DCE01DF91CF911F910F91CA
:10085000FF90EF90DF90CF900C94AE0340E0682FB4
:1008600089E494E00C94DB0381E00E942E048BE386
:100870009FE10197F1F70895CF93DF93823029F438
:100880009091580498609093580480935C0410925F
:100890005D0480E480935E0480E180935F0480E5E2
:1008A0008093600480914D040E94640180914E0405
:1008B0008F3F11F00E94640180914F040E946401F7
:1008C000C9E4D4E09E01295434408091580484FD49
:1008D0000AC084E090E02196281739073CF48E8105
:1008E0000E946401EFCF88E090E0F5CF8BE39DE0BC
:1008F0000197F1F760E080914D040E94080360E0E9
:1009000080914F040E94080380914E048F3F19F09C
:1009100060E00E9408038091580484FD34C063E0C5
:1009200089E494E00E94AE03CBE4D6E4CE010197C3
:10093000F1F763E089E494E00E94AE032197F1F7B8
:1009400063E089E494E00E94AE0383E592E00197BE
:10095000F1F762E089E494E00E94AE0380915804CC
:1009600080620E942E0484E0809359048CE00E94EF
:100970002E040E94340482E080935A0486E0DF91C2
:10098000CF910C942E0480620E942E048BE496E496
:100990000197F1F78091580480620E942E0483E54C
:1009A00092E00197F1F78091580480620E942E0432
:1009B000D5CF90915C04891710F08FEF890FE82F45
:1009C000F0E0E75BFB4F84898F5F80680C942E0416
:1009D00041E00E94DB0381E090E00895209117043C
:1009E00030911804232B39F421E0FC018081882305
:1009F00061F020E00AC0BC018091130490911404BE
:100A00000E94470B21E0892BA1F7822F0895FC015A
:100A100080819181009711F00C94D40908950F936F
:100A20001F93CF93DF93EC0188819981009759F050
:100A30002A813B812617370730F081E0DF91CF9183
:100A40001F910F9108958B016F5F7F4F0E945D0A88
:100A5000009759F0998388831B830A832C813D81F9
:100A6000232B59F7FC011082E8CF80E0E7CFEF920B
:100A7000FF920F931F93CF93DF93EC017B018A01C9
:100A8000BA010E940F0528813981811114C02115F6
:100A9000310519F0C9010E94D409198218821D82FA
:100AA0001C821B821A82CE01DF91CF911F910F9180
:100AB000FF90EF9008951D830C83B701C9010E9438
:100AC000500BF1CF50E040E068E272E083E194E047
:100AD0000C943705FC011182108213821282158258
:100AE0001482FB0101900020E9F73197AF01461B0A
:100AF000570B0C9437051F920F920FB60F921124CB
:100B00000BB60F922F933F934F935F936F937F9307
:100B10008F939F93AF93BF93EF93FF9389ED92E0F1
:100B20000E944C02FF91EF91BF91AF919F918F91E5
:100B30007F916F915F914F913F912F910F900BBEDD
:100B40000F900FBE0F901F9018951F920F920FB627
:100B50000F9211240BB60F922F938F939F93EF93C5
:100B6000FF93E091E902F091EA028081E091EF02C7
:100B7000F091F00282FD1DC090818091F2028F5FA2
:100B80008F732091F302821741F0E091F202F0E0BE
:100B9000E752FD4F958F8093F202FF91EF919F9165
:100BA0008F912F910F900BBE0F900FBE0F901F9043
:100BB00018958081F2CF1F920F920FB60F921124D9
:100BC0000BB60F922F933F934F935F936F937F9347
:100BD0008F939F93AF93BF93EF93FF9386E793E039
:100BE0000E944C02FF91EF91BF91AF919F918F9125
:100BF0007F916F915F914F913F912F910F900BBE1D
:100C00000F900FBE0F901F9018951F920F920FB666
:100C10000F9211240BB60F922F938F939F93EF9304
:100C2000FF93E0918603F09187038081E0918C032C
:100C3000F0918D0382FD1DC0908180918F038F5FA5
:100C40008F7320919003821741F0E0918F03F0E0C1
:100C5000EA58FC4F958F80938F03FF91EF919F91FE
:100C60008F912F910F900BBE0F900FBE0F901F9082
:100C700018958081F2CF1F920F920FB60F92112418
:100C80002F933F938F939F93AF93BF938091D50200
:100C90009091D602A091D702B091D8023091D4029F
:100CA00023E0230F2D3758F50196A11DB11D209388
:100CB000D4028093D5029093D602A093D702B0932A
:100CC000D8028091D0029091D102A091D202B0912D
:100CD000D3020196A11DB11D8093D0029093D10241
:100CE000A093D202B093D302BF91AF919F918F9105
:100CF0003F912F910F900FBE0F901F90189526E8EF
:100D0000230F0296A11DB11DD2CFE9EDF2E01382AF
:100D1000128248EE53E060E070E0448355836683BE
:100D200077838CE092E0918380832DEC30E03587EF
:100D300024872CEC30E03787268728EC30E0318B95
:100D4000208B29EC30E0338B228B2AEC30E0358B82
:100D5000248B2EEC30E0378B268B118E128E138E67
:100D6000148EE6E7F3E01382128244835583668390
:100D700077839183808385EC90E09587848784ECEA
:100D800090E09787868780EC90E0918B808B81EC58
:100D900090E0938B828B82EC90E0958B848B86EC39
:100DA00090E0978B868B118E128E138E148EE9E451
:100DB000F4E0138212828EE192E09183808386E1D7
:100DC00084838FEF858387E1868388E187838BE146
:100DD00080878DE1818781E282871386148615865C
:100DE0001686178681E00E943C0469E272E083E483
:100DF00094E00E946A0569E372E08DE394E00E944A
:100E00006A0569E472E087E394E00E946A0569E597
:100E100072E081E394E00E946A0569E672E08BE289
:100E200094E00E946A0569E772E085E294E00E941E
:100E30006A0569E872E08FE194E00E946A0569E959
:100E400072E089E194E00E946A0568E272E083E161
:100E500094E00C946A05CF93DF9300D000D0CDB717
:100E6000DEB7789484B5826084BD84B5816084BD2A
:100E700085B5826085BD85B5816085BD80916E0038
:100E8000816080936E001092810080918100826069
:100E900080938100809181008160809381008091A6
:100EA00080008160809380008091B1008460809395
:100EB000B1008091B00081608093B000809191007A
:100EC0008260809391008091910081608093910075
:100ED000809190008160809390008091A100826059
:100EE0008093A1008091A10081608093A1008091F6
:100EF000A00081608093A000809121018260809396
:100F00002101809121018160809321018091200144
:100F100081608093200180917A00846080937A00C0
:100F200080917A00826080937A0080917A0081605B
:100F300080937A0080917A00806880937A00109282
:100F4000C10086E793E00E94830189ED92E00E9450
:100F500083018CE00E9464018DE00E94640182E0C4
:100F60000E94640182E00E943C0480E00E94D90457
:100F700063E474E089E494E00E94AA0181E00E94A5
:100F8000D9046DE374E089E494E00E94AA01662428
:100F90006394712C92E0E92EF12C23E0C22ED12C27
:100FA00034E0A32EB12C45E0842E912C86E793E00B
:100FB0000E942C02892B31F186E793E00E940A02FD
:100FC00089831A8200911704109118040F5F1F4F34
:100FD000B80183E194E00E940F05882399F02091E5
:100FE0001304309114048091170490911804BE01E9
:100FF0006F5F7F4F820F931F0E94500B1093180456
:10100000009317041A8219821C821B821E821D8281
:1010100060911304709114046115710541F04091C1
:10102000170450911804CE0101960E94370589EAF1
:1010300092E00E94EE048823E1F0109201021092E7
:1010400000020E94E5010E9462050E94340480E0D3
:101050000E94D90463E474E089E494E00E94AA0148
:1010600081E00E94D90467E374E089E494E00E947F
:10107000AA018FEA92E00E94EE048823E1F07092C8
:101080000102609200020E94E5010E9462050E9436
:10109000340480E00E94D90463E474E089E494E0BD
:1010A0000E94AA0181E00E94D90461E374E089E40E
:1010B00094E00E94AA0186EB92E00E94EE0488234D
:1010C000E1F0F0920102E09200020E94E5010E942C
:1010D00062050E94340480E00E94D90463E474E055
:1010E00089E494E00E94AA0181E00E94D9046BE2A5
:1010F00074E089E494E00E94AA018CEB92E00E94E3
:10110000EE048823E1F0D0920102C09200020E9416
:10111000E5010E9462050E94340480E00E94D90427
:1011200063E474E089E494E00E94AA0181E00E94F3
:10113000D90465E274E089E494E00E94AA0183EC9A
:1011400092E00E94EE048823E1F0B0920102A092A6
:1011500000020E94E5010E9462050E94340480E0C2
:101160000E94D90463E474E089E494E00E94AA0137
:1011700081E00E94D9046FE174E089E494E00E9468
:10118000AA0189EC92E00E94EE048823E1F090929B
:101190000102809200020E94E5010E9462050E9405
:1011A000340480E00E94D90463E474E089E494E0AC
:1011B0000E94AA0181E00E94D90469E174E089E4F7
:1011C00094E00E94AA01CE0101960E940705809139
:1011D00000029091010282309105B9F044F4009729
:1011E00079F060E0019769F00E94DB02DFCE843085
:1011F000910581F06CF060E00597B1F782E002C0E4
:1012000061E08CE00E940803EFCF61E08DE0FACF4F
:1012100060E0FCCF61E0F2CF83E194E00E9407053B
:1012200089E194E00E9407058FE194E00E940705A0
:1012300085E294E00E9407058BE294E00E94070596
:1012400081E394E00E94070587E394E00E9407058C
:101250008DE394E00E94070583E494E00C94070575
:10126000EE0FFF1F881F8BBF0790F691E02D19949A
:101270000F931F93CF93DF938230910510F482E098
:1012800090E0E0916304F091640430E020E0B0E08D
:10129000A0E0309799F42115310509F44AC0281BC4
:1012A000390B24303105D8F58A819B816115710590
:1012B00089F1FB0193838283FE0111C0408151813A
:1012C0000281138148175907E0F04817590799F42C
:1012D000109761F012960C93129713961C93329606
:1012E000CF01DF91CF911F910F9108950093630477
:1012F00010936404F4CF2115310551F042175307C0
:1013000038F0A901DB019A01BD01DF01F801C1CF6D
:10131000EF01F9CF9093640480936304CDCFFE0175
:10132000E20FF31F8193919322503109398328836F
:10133000D7CF2091610430916204232B41F4209196
:1013400004023091050230936204209361042091DD
:101350000202309103022115310541F42DB73EB749
:101360004091060250910702241B350BE091610465
:10137000F0916204E217F307A0F42E1B3F0B28172D
:10138000390778F0AC014E5F5F4F2417350748F0FE
:101390004E0F5F1F509362044093610481939193B9
:1013A0009FCFF0E0E0E09CCFCF93DF930097E9F090
:1013B000FC01329713821282A0916304B0916404FD
:1013C000ED0130E020E01097A1F420813181820FFF
:1013D000931F20916104309162042817390709F0A6
:1013E00061C0F0936204E0936104DF91CF910895AE
:1013F000EA01CE17DF07E8F54A815B819E014115BE
:101400005105B1F7E901FB83EA8349915991C40F72
:10141000D51FEC17FD0761F4808191810296840F3E
:10142000951FE90199838883828193819B838A83B5
:10143000F0E0E0E012968D919C9113970097B9F53A
:101440002D913C911197CD010296820F931F20910F
:101450006104309162042817390739F6309751F545
:101460001092640410926304B0936204A093610428
:10147000BCCFD383C28340815181840F951FC8178D
:10148000D90761F44E5F5F4F88819981480F591FDA
:10149000518340838A819B81938382832115310507
:1014A00009F0B0CFF0936404E09363049ECFFD0194
:1014B000DC01C0CF13821282D7CF4F925F926F921E
:1014C0007F928F929F92AF92BF92CF92DF92EF92D4
:1014D000FF920F931F93CF93DF938C01009799F4A2
:1014E000CB01DF91CF911F910F91FF90EF90DF9093
:1014F000CF90BF90AF909F908F907F906F905F90B4
:101500004F900C943809FC01E60FF71F9C01225004
:101510003109E217F30708F4AEC0D901CD91DC918F
:101520001197C617D70720F1C530D10578F0CE0145
:1015300004978617970750F0C61BD70B2297C193C5
:10154000D1936D937C93CF010E94D409C801DF91A0
:10155000CF911F910F91FF90EF90DF90CF90BF90B0
:10156000AF909F908F907F906F905F904F90089575
:101570005B01AC1ABD0A4C018C0E9D1EA091630448
:10158000B0916404512C412CF12CE12C109731F5D1
:1015900080916104909162048815990509F05CC0FE
:1015A0004616570608F058C0809102029091030237
:1015B000009741F48DB79EB7409106025091070203
:1015C000841B950BE817F90708F055C0F0936204E7
:1015D000E0936104F90171836083B8CF8D919C9190
:1015E000119712966C90129713967C901397A815EA
:1015F000B90559F56C0142E0C40ED11CCA14DB04D4
:1016000020F1AC014A195B09DA011296159780F0B6
:101610006282738251834083D9016D937C93E1147C
:10162000F10471F0D7011396FC93EE9312978ECFCD
:1016300022968C0F9D1FF90191838083F301EFCFD8
:10164000F0936404E093630481CF4816590608F4CC
:101650002C017D01D3019ACFCB010E9438097C0176
:10166000009749F0AE01B8010E943E0BC8010E94EC
:10167000D40987016BCF10E000E068CFFB01DC01EB
:1016800002C001900D9241505040D8F70895FB01DF
:10169000DC018D91019080190110D9F3990B089507
:1016A000FB01DC0101900D920020E1F7089511E0AB
:1016B000C0E3D1E000E006C0802FFE010E943009A7
:1016C0002196011DC133D10780E00807A9F7F894DE
:0216D000FFCF4A
:1016D200FFFF000065048000000000006E02B801F8
:1016E200FB01BB022C020A021E0200000000E804F9
:1016F200B801950394030D0A00204D6F6E69746F53
:10170200722065737461646F0020202020202020E5
:1017120020202020202020200043756172746F3128
:10172200204C45443A4F4E200043756172746F312C
:10173200204C45443A4F46460043756172746F32FD
:10174200204C45443A4F4E200043756172746F320B
:10175200204C45443A4F464600506F72746F6E20DB
:1017620041627269656E646F00506F72746F6E20B1
:1017720043657272616E646F0043312D4F4E0043B8
:10178200312D4F46460043322D4F4E0043322D4FEE
:1017920046460050312D4F4E0050312D4F464600E7
:00000001FF
